:100000000C942A000C9447000C9447000C94470071
:100010000C9447000C9447000C9447000C94470044
:100020000C9447000C9447000C9447000C94470034
:100030000C9447000C9447000C9447000C94470024
:100040000C9447000C9447000C9447000C94470014
:100050000C94470011241FBECFE5D8E0DEBFCDBF12
:1000600011E0A0E6B0E0E0EBFBE202C005900D92EB
:10007000AC32B107D9F711E0ACE2B1E001C01D929A
:10008000A133B107E1F70E9443030C94D6150C94F9
:100090000000DF93CF93CDB7DEB7E0916800F09119
:1000A00069008FE68083E0916A00F0916B008FEF2A
:1000B0008083E0916C00F0916D008FEF8083E09180
:1000C0006E00F0916F008FEF8083A0916000B0917F
:1000D0006100E0916000F0916100808180798C93F3
:1000E000E0916200F09163001082E0916400F09171
:1000F00065001082E0916600F09167001082CF9158
:10010000DF910895DF93CF9300D000D000D0CDB71A
:10011000DEB78C837E836D8381E08B838C818F310E
:1001200080F58C818695869586958A838C818770EB
:1001300089838A81882F90E0880F991FFC01E059FC
:10014000FF4F0190F081E02D8081482F50E08981A0
:10015000282F30E081E090E002C0880F991F2A9597
:10016000E2F79A01282339238981882F90E0A90199
:1001700002C0559547958A95E2F7CA01ED81FE8147
:10018000808381E08B838B8126960FB6F894DEBF47
:100190000FBECDBFCF91DF910895DF93CF9300D0F5
:1001A00000D000D0CDB7DEB78D836E8381E08C8325
:1001B0008D81803210F01C8264C08D818695869579
:1001C00086958B838D8187708A838B81882F90E0C1
:1001D000880F991FFC01E859FF4F0190F081E02D35
:1001E0008081482F50E08A81282F30E081E090E024
:1001F00002C0880F991F2A95E2F79A012823392314
:100200008A81882F90E0A90102C0559547958A956B
:10021000E2F7CA0189838981813099F58B81882F22
:1002200090E0880F991FFC01E05AFF4FA081B18137
:100230008A81282F30E081E090E002C0880F991F6A
:100240002A95E2F7282F20958B81882F90E0880F40
:10025000991FFC01E05AFF4F0190F081E02D808151
:10026000422F48238E81282F30E08A81882F90E00A
:10027000B90102C0660F771F8A95E2F7CB01842B84
:100280008C938C8126960FB6F894DEBF0FBECDBF3F
:10029000CF91DF910895DF93CF9300D000D0CDB7F9
:1002A000DEB78A837C836B8381E089838A81843093
:1002B00080F48A81882F90E0880F991FFC01E05913
:1002C000FF4F0190F081E02D8081EB81FC818083E4
:1002D00001C0198289810F900F900F900F90CF91DC
:1002E000DF910895DF93CF9300D000D0CDB7DEB774
:1002F0008B836C8381E08A838B818430F0F48B81E3
:10030000882F90E0880F991FFC01E859FF4F01905A
:10031000F081E02D8081898389818F3F79F48B8101
:10032000882F90E0880F991FFC01E05AFF4F019041
:10033000F081E02D8C81808301C01A828A810F9028
:100340000F900F900F90CF91DF910895DF93CF938F
:1003500000D000D00F92CDB7DEB78C836D8381E0E3
:100360008B838C81803210F01B823BC08C81869500
:10037000869586958A838C81877089838A81882F68
:1003800090E0880F991FFC01E859FF4FA081B181CF
:100390008981282F30E081E090E002C0880F991F0A
:1003A0002A95E2F7282F20958A81882F90E0880FE0
:1003B000991FFC01E859FF4F0190F081E02D8081E9
:1003C000422F48238D81282F30E08981882F90E0AB
:1003D000B90102C0660F771F8A95E2F7CB01842B23
:1003E0008C938B810F900F900F900F900F90CF9167
:1003F000DF910895DF93CF9300D00F92CDB7DEB792
:100400008A836B8381E089838A81843070F48A8156
:10041000882F90E0880F991FFC01E859FF4F019049
:10042000F081E02D8B81808301C0198289810F903A
:100430000F900F90CF91DF910895DF93CF9300D06D
:1004400000D000D0CDB7DEB78C837E836D8381E092
:100450008B838C81803210F01B8230C08C8186951A
:10046000869586958A838C81877089838A81882F77
:1004700090E0880F991FFC01E859FF4F0190F0812F
:10048000E02D8081482F50E08981282F30E081E0E5
:1004900090E002C0880F991F2A95E2F79A0128235D
:1004A00039238981882F90E0A90102C0559547958D
:1004B0008A95E2F7CA01ED81FE8180838B812696C1
:1004C0000FB6F894DEBF0FBECDBFCF91DF91089578
:1004D000DF93CF9300D000D0CDB7DEB78A837C8383
:1004E0006B8381E089838A81843080F48A81882FBC
:1004F00090E0880F991FFC01E059FF4F0190F081B7
:10050000E02D8081EB81FC81808301C0198289818B
:100510000F900F900F900F90CF91DF910895DF9380
:10052000CF93CDB7DEB710922C0110922E0110920E
:100530002D0110922F0110923001CF91DF9108957B
:10054000DF93CF93CDB7DEB727970FB6F894DEBF12
:100550000FBECDBF89837B836A838981882F90E01A
:10056000FC01E858FF4F80812DE231E0B9010E9483
:10057000820080912C01282F30E03F832E838E81D2
:100580009F8181309105E9F02E813F812230310534
:1005900069F18E819F81009709F05EC080912D01E5
:1005A000813059F482E080932C0110922E018091C9
:1005B0002E01EA81FB8180834FC0EA81FB8110829A
:1005C0004BC080912D01882361F482E080932C013F
:1005D00081E080932E0180912E01EA81FB8180834E
:1005E0003BC0EA81FB8181E0808336C080912D0190
:1005F000813059F4809130018F5F80933001809178
:100600002E01EA81FB8180830AC080912F018F5FD8
:1006100080932F0180912E01EA81FB81808380915C
:1006200030018A3061F481E080932C011092300116
:1006300010922F01EA81FB8181E080830DC08091BF
:100640002F018A3049F410922C0110922F01109240
:100650003001EA81FB8110821D821C8289818F30EA
:1006600020F421E030E03D832C83EC81FD81E758CC
:10067000FF4F808127960FB6F894DEBF0FBECDBF27
:10068000CF91DF910895DF93CF93CDB7DEB76B970E
:100690000FB6F894DEBF0FBECDBF0E944900CE0159
:1006A00002969B8B8A8BE3E8F0E0FD8BEC8BF8E005
:1006B000FE8BEC89FD8900808C899D8901969D8B3C
:1006C0008C8BEA89FB8900828A899B8901969B8BA6
:1006D0008A8B9E8991509E8BEE89EE2351F7CE0135
:1006E0000A96988F8F8BEBE7F0E0FA8FE98FF8E0AE
:1006F000FB8FE98DFA8D0080898D9A8D01969A8FF6
:10070000898FEF89F88D00828F89988D0196988F57
:100710008F8B9B8D91509B8FEB8DEE2351F781E159
:1007200061E00E94A60180E160E00E94A60180E0F5
:100730009E012F5F3F4FB9010E94A0028981813045
:1007400029F481E161E00E94CD00F1CF81E160E018
:100750000E94CD00ECCFDF93CF93CDB7DEB7C55A63
:10076000D0400FB6F894DEBF0FBECDBF88E0FE01CB
:100770007E96DF01982F1D929A95E9F781E08E8F82
:10078000DE019696C456DF4FB983A883CC59D0407A
:10079000E3E9F0E0C256DF4FF983E883CE59D04059
:1007A000F8E0C056DF4FF883C05AD040C256DF4F42
:1007B000A881B981CE59D0400C90C256DF4FE88154
:1007C000F981CE59D0403196C256DF4FF983E88384
:1007D000CE59D040C456DF4FA881B981CC59D04002
:1007E0000C92C456DF4FE881F981CC59D040319644
:1007F000C456DF4FF983E883CC59D040C056DF4F51
:10080000F881C05AD040F150C056DF4FF883C05A2B
:10081000D040C056DF4F8881C05AD040882331F67F
:1008200088E0FE01BE96DF01982F1D929A95E9F7A8
:1008300081E08FA788E0FE01F696DF01982F1D92D8
:100840009A95E9F781E08FAB88E0FE01FE96DF0123
:10085000982F1D929A95E9F781E0FE01E05CFF4F29
:100860008083CE018A5B9F4F28E0FC01DF01822F4D
:100870001D928A95E9F7FE01EA5BFF4F81E08283D2
:10088000CE01825B9F4F28E0FC01DF01822F1D9289
:100890008A95E9F7FE01E25BFF4F81E08383CE0199
:1008A0008A5A9F4F28E0FC01DF01822F1D928A9512
:1008B000E9F7FE01EA5AFF4F81E08383CE01825AB5
:1008C0009F4F28E0FC01DF01822F1D928A95E9F7F6
:1008D000FE01E25AFF4F81E08483CE018A599F4F87
:1008E00028E0FC01DF01822F1D928A95E9F7FE01C5
:1008F000EA59FF4F81E08283CE0182599F4F28E061
:10090000FC01DF01822F1D928A95E9F7FE01E25971
:10091000FF4F81E08583CE018A589F4F28E0FC017C
:10092000DF01822F1D928A95E9F7FE01EA58FF4FF9
:1009300081E08183CE0182589F4F28E0FC01DF01D6
:10094000822F1D928A95E9F7FE01E258FF4F81E060
:100950008683CE018A579F4FCF55DF4F9983888377
:10096000C15AD040ABE8B0E0CD55DF4FB983A88382
:10097000C35AD040B8E0CB55DF4FB883C55AD040FA
:10098000CD55DF4FE881F981C35AD0400080CD5565
:10099000DF4F88819981C35AD0400196CD55DF4FF2
:1009A00099838883C35AD040CF55DF4FA881B9813E
:1009B000C15AD0400C92CF55DF4FE881F981C15A1E
:1009C000D0403196CF55DF4FF983E883C15AD040EC
:1009D000CB55DF4FF881C55AD040F150CB55DF4F92
:1009E000F883C55AD040CB55DF4F8881C55AD040D7
:1009F000882331F68EE18D8F35C2CE014E960E944E
:100A00007715CE0186960E94181583E161E00E9459
:100A1000CD008AE090E09A8F898F1FC088E29AE02B
:100A20009C8F8B8FC556DF4F1882CB59D0408B8D52
:100A30009C8D009731F091E0C556DF4F9883CB59DC
:100A4000D0408B8D9C8D01979C8F8B8FC556DF4F2F
:100A5000A881CB59D040AA2329F7C656DF4F188268
:100A6000CA59D040898D9A8D009731F0B1E0C656B1
:100A7000DF4FB883CA59D040898D9A8D01979A8FDC
:100A8000898FC656DF4FE881CA59D040EE2331F630
:100A900083E160E00E94CD00CE018E960E94771522
:100AA000CE01C6960E94181583E161E00E94CD0038
:100AB0008AE090E09E8B8D8B1FC088E29AE0988F31
:100AC0008F8BC756DF4F1882C959D0408F89988DB8
:100AD000009731F0F1E0C756DF4FF883C959D04095
:100AE0008F89988D0197988F8F8BC756DF4F88819C
:100AF000C959D040882329F7C856DF4F1882C859F2
:100B0000D0408D899E89009731F091E0C856DF4F23
:100B10009883C859D0408D899E8901979E8B8D8B73
:100B2000C856DF4FA881C859D040AA2331F683E1C7
:100B300060E00E94CD00CE01CE960E947715CE01D6
:100B40008A5B9F4F0E94181583E161E00E94CD00EF
:100B50008AE090E09A8B898B1FC088E29AE09C8B98
:100B60008B8BC956DF4F1882C759D0408B899C891F
:100B7000009731F0B1E0C956DF4FB883C759D04074
:100B80008B899C8901979C8B8B8BC956DF4FE881A1
:100B9000C759D040EE2329F7CA56DF4F1882C659ED
:100BA000D04089899A89009731F0F1E0CA56DF4F29
:100BB000F883C659D04089899A8901979A8B898B85
:100BC000CA56DF4F8881C659D040882331F683E169
:100BD00060E00E94CD00CE01825B9F4F0E9477159E
:100BE000CE018A5A9F4F0E94181583E161E00E944E
:100BF000CD008AE090E09E878D871FC088E29AE052
:100C0000988B8F87CB56DF4F1882C559D0408F8580
:100C10009889009731F091E0CB56DF4F9883C55902
:100C2000D0408F8598890197988B8F87CB56DF4F5F
:100C3000A881C559D040AA2329F7CC56DF4F188286
:100C4000C459D0408D859E85009731F0B1E0CC56D7
:100C5000DF4FB883C459D0408D859E8501979E870C
:100C60008D87CC56DF4FE881C459D040EE2331F652
:100C700083E160E00E94CD00CE01825A9F4F0E9426
:100C80007715CE018A599F4F0E94181583E161E0C4
:100C90000E94CD008AE090E09A8789871FC088E291
:100CA0009AE09C878B87CD56DF4F1882C359D0407E
:100CB0008B859C85009731F0F1E0CD56DF4FF883AE
:100CC000C359D0408B859C8501979C878B87CD56D7
:100CD000DF4F8881C359D040882329F7CE56DF4F94
:100CE0001882C259D04089859A85009731F091E0E9
:100CF000CE56DF4F9883C259D04089859A85019797
:100D00009A878987CE56DF4FA881C259D040AA233F
:100D100031F683E160E00E94CD00CE0182599F4F01
:100D20000E947715CE018A589F4F0E94181583E1C3
:100D300061E00E94CD008AE090E09E838D831FC019
:100D400088E29AE098878F83CF56DF4F1882C15987
:100D5000D0408F819885009731F0B1E0CF56DF4FBA
:100D6000B883C159D0408F819885019798878F8328
:100D7000CF56DF4FE881C159D040EE2329F7C05745
:100D8000DF4F1882C059D0408D819E81009731F08D
:100D9000F1E0C057DF4FF883C059D0408D819E816C
:100DA00001979E838D83C057DF4F8881C059D04003
:100DB000882331F683E160E00E94CD00CE018258A5
:100DC0009F4F0E947715CE018A579F4F0E9418159A
:100DD00083E161E00E94CD008AE090E09A838983FC
:100DE0001FC088E29AE09C838B83C157DF4F188233
:100DF000CF58D0408B819C81009731F091E0C15752
:100E0000DF4F9883CF58D0408B819C8101979C8382
:100E10008B83C157DF4FA881CF58D040AA2329F731
:100E2000C257DF4F1882CE58D04089819A810097EF
:100E300031F0B1E0C257DF4FB883CE58D04089813E
:100E40009A8101979A838983C257DF4FE881CE58F0
:100E5000D040EE2331F683E160E00E94CD008D8D1D
:100E600081508D8F8D8D882309F0C7CDCB55DF4FF5
:100E70000FB6F894DEBF0FBECDBFCF91DF910895BE
:100E8000DF93CF93CDB7DEB7C65CD0400FB6F894F2
:100E9000DEBF0FBECDBF88E0FE01B696DF01982F02
:100EA0001D929A95E9F781E08EA3DE019E96C854C3
:100EB000DF4FB983A883C85BD040EBEAF0E0C654AB
:100EC000DF4FF983E883CA5BD040F8E0C454DF4FBA
:100ED000F883CC5BD040C654DF4FA881B981CA5B90
:100EE000D0400C90C654DF4FE881F981CA5BD040F6
:100EF0003196C654DF4FF983E883CA5BD040C854AB
:100F0000DF4FA881B981C85BD0400C92C854DF4F35
:100F1000E881F981C85BD0403196C854DF4FF9832E
:100F2000E883C85BD040C454DF4FF881CC5BD0402D
:100F3000F150C454DF4FF883CC5BD040C454DF4F32
:100F40008881CC5BD040882331F688E0FE01F6969C
:100F5000DF01982F1D929A95E9F781E08FAB88E029
:100F6000FE01FE96DF01982F1D929A95E9F781E028
:100F7000FE01E05CFF4F8083CE018A5B9F4F28E03B
:100F8000FC01DF01822F1D928A95E9F7FE01EA5BE1
:100F9000FF4F81E08283CE01825B9F4F28E0FC01FE
:100FA000DF01822F1D928A95E9F7FE01E25BFF4F78
:100FB00081E08183CE018A5A9F4F28E0FC01DF0146
:100FC000822F1D928A95E9F7FE01EA5AFF4F81E0D0
:100FD0008383CE01825A9F4F28E0FC01DF01822FDC
:100FE0001D928A95E9F7FE01E25AFF4F81E0808366
:100FF000CE018A599F4F28E0FC01DF01822F1D920C
:101000008A95E9F7FE01EA59FF4F81E08483CE011A
:1010100082599F4F28E0FC01DF01822F1D928A95A3
:10102000E9F7FE01E259FF4F81E08183CE018A5842
:101030009F4F28E0FC01DF01822F1D928A95E9F77E
:10104000FE01EA58FF4F81E08583CE0182589F4F11
:1010500028E0FC01DF01822F1D928A95E9F7FE014D
:10106000E258FF4F81E08283CE018A579F4F28E0EC
:10107000FC01DF01822F1D928A95E9F7FE01EA57F4
:10108000FF4F81E08683CE0182579F4FC354DF4FCD
:1010900099838883CD5BD040A3EAB0E0C154DF4F91
:1010A000B983A883CF5BD040B8E0CF53DF4FB8837C
:1010B000C15CD040C154DF4FE881F981CF5BD040A3
:1010C0000080C154DF4F88819981CF5BD040019669
:1010D000C154DF4F99838883CF5BD040C354DF4F27
:1010E000A881B981CD5BD0400C92C354DF4FE88119
:1010F000F981CD5BD0403196C354DF4FF983E8834B
:10110000CD5BD040CF53DF4FF881C15CD040F15070
:10111000CF53DF4FF883C15CD040CF53DF4F88817E
:10112000C15CD040882331F6CE018A569F4FCE5302
:10113000DF4F99838883C25CD040ABE9B0E0CC53E9
:10114000DF4FB983A883C45CD040B8E0CA53DF4FF7
:10115000B883C65CD040CC53DF4FE881F981C45CD2
:10116000D0400080CC53DF4F88819981C45CD0404F
:101170000196CC53DF4F99838883C45CD040CE5313
:10118000DF4FA881B981C25CD0400C92CE53DF4FB3
:10119000E881F981C25CD0403196CE53DF4FF983AC
:1011A000E883C25CD040CA53DF4FF881C65CD040B0
:1011B000F150CA53DF4FF883C65CD040CA53DF4FAB
:1011C0008881C65CD040882331F6CE0182569F4F7D
:1011D00028E0FC01DF01822F1D928A95E9F7FE01CC
:1011E000E256FF4F81E085838EE18DA3B4C2CE012C
:1011F00086960E947715CE018E960E94181583E17F
:1012000061E00E94CD001AA219A21FC088E29AE0F4
:101210009CA38BA3C954DF4F1882C75BD0408BA11E
:101220009CA1009731F091E0C954DF4F9883C75BD0
:10123000D0408BA19CA101979CA38BA3C954DF4FE5
:10124000A881C75BD040AA2329F7CA54DF4F188270
:10125000C65BD04089A19AA1009731F0B1E0CA5491
:10126000DF4FB883C65BD04089A19AA101979AA3AA
:1012700089A3CA54DF4FE881C65BD040EE2331F624
:1012800083E160E00E94CD00CE01C6960E947715F2
:10129000CE01CE960E94181583E161E00E94CD0038
:1012A0001E8E1D8E1FC088E29AE098A38F8FCB54AC
:1012B000DF4F1882C55BD0408F8D98A1009731F029
:1012C000F1E0CB54DF4FF883C55BD0408F8D98A100
:1012D000019798A38F8FCB54DF4F8881C55BD04097
:1012E000882329F7CC54DF4F1882C45BD0408D8D02
:1012F0009E8D009731F091E0CC54DF4F9883C45B12
:10130000D0408D8D9E8D01979E8F8D8FCC54DF4F59
:10131000A881C45BD040AA2331F683E160E00E943B
:10132000CD001A8E198E1FC088E29AE09C8F8B8F99
:10133000CD54DF4F1882C35BD0408B8D9C8D0097BE
:1013400031F0B1E0CD54DF4FB883C35BD0408B8D1B
:101350009C8D01979C8F8B8FCD54DF4FE881C35BB1
:10136000D040EE2329F7CE54DF4F1882C25BD04025
:10137000898D9A8D009731F0F1E0CE54DF4FF883DC
:10138000C25BD040898D9A8D01979A8F898FCE54F8
:10139000DF4F8881C25BD040882331F6CE018A5B63
:1013A0009F4F0E947715CE01825B9F4F0E941815B8
:1013B00083E161E00E94CD001E8A1D8A1FC088E281
:1013C0009AE0988F8F8BCF54DF4F1882C15BD0404B
:1013D0008F89988D009731F091E0CF54DF4F98833B
:1013E000C15BD0408F89988D0197988F8F8BCF5498
:1013F000DF4FA881C15BD040AA2329F7C055DF4F3A
:101400001882C05BD0408D899E89009731F0B1E091
:10141000C055DF4FB883C05BD0408D899E8901974E
:101420009E8B8D8BC055DF4FE881C05BD040EE2393
:1014300031F683E160E00E94CD00CE018A5A9F4FD1
:101440000E947715CE01825A9F4F0E94181583E1A2
:1014500061E00E94CD001A8A198A1FC088E29AE0D2
:101460009C8B8B8BC155DF4F1882CF5AD0408B8914
:101470009C89009731F0F1E0C155DF4FF883CF5AD6
:10148000D0408B899C8901979C8B8B8BC155DF4FFA
:101490008881CF5AD040882329F7C255DF4F188260
:1014A000CE5AD04089899A89009731F091E0C2558F
:1014B000DF4F9883CE5AD04089899A8901979A8BB9
:1014C000898BC255DF4FA881CE5AD040AA2331F66E
:1014D00083E160E00E94CD00CE018A599F4F0E94B7
:1014E0007715CE0182599F4F0E94181583E161E064
:1014F0000E94CD001E861D861FC088E29AE0988B50
:101500008F87C355DF4F1882CD5AD0408F85988979
:10151000009731F0B1E0C355DF4FB883CD5AD040CA
:101520008F8598890197988B8F87C355DF4FE88106
:10153000CD5AD040EE2329F7C455DF4F1882CC5A3C
:10154000D0408D859E85009731F0F1E0C455DF4F86
:10155000F883CC5AD0408D859E8501979E878D87D4
:10156000C455DF4F8881CC5AD040882331F683E1BF
:1015700060E00E94CD00CE018A589F4F0E947715EF
:10158000CE0182589F4F0E94181583E161E00E94AE
:10159000CD001A8619861FC088E29AE09C878B8747
:1015A000C555DF4F1882CB5AD0408B859C8500975C
:1015B00031F091E0C555DF4F9883CB5AD0408B85F1
:1015C0009C8501979C878B87C555DF4FA881CB5A97
:1015D000D040AA2329F7C655DF4F1882CA5AD040F7
:1015E00089859A85009731F0B1E0C655DF4FB88301
:1015F000CA5AD04089859A8501979A878987C655A6
:10160000DF4FE881CA5AD040EE2331F683E160E033
:101610000E94CD00CE018A579F4F0E947715CE01C0
:1016200082579F4F0E94181583E161E00E94CD0010
:101630001E821D821FC088E29AE098878F83C7555B
:10164000DF4F1882C95AD0408F819885009731F0BA
:10165000F1E0C755DF4FF883C95AD0408F81988594
:10166000019798878F83C755DF4F8881C95AD0402B
:10167000882329F7C855DF4F1882C85AD0408D817A
:101680009E81009731F091E0C855DF4F9883C85A8A
:10169000D0408D819E8101979E838D83C855DF4FF9
:1016A000A881C85AD040AA2331F683E160E00E94A5
:1016B000CD00CE018A569F4F0E947715CE018256EB
:1016C0009F4F0E94181583E161E00E94CD001A82AD
:1016D00019821FC088E29AE09C838B83C955DF4F33
:1016E0001882C75AD0408B819C81009731F0B1E0BD
:1016F000C955DF4FB883C75AD0408B819C81019771
:101700009C838B83C955DF4FE881C75AD040EE23B5
:1017100029F7CA55DF4F1882C65AD04089819A816D
:10172000009731F0F1E0CA55DF4FF883C65AD04038
:1017300089819A8101979A838983CA55DF4F88816D
:10174000C65AD040882331F683E160E00E94CD0084
:101750008DA181508DA38DA1882309F048CDCA5356
:10176000DF4F0FB6F894DEBF0FBECDBFCF91DF9134
:101770000895DF93CF93CDB7DEB7C858D0400FB6EA
:10178000F894DEBF0FBECDBF88E0FE017696DF0184
:10179000982F1D929A95E9F781E08E8BDE015E9677
:1017A000E296BFAFAEAFE297E3EDF0E0E496FFAFB5
:1017B000EEAFE497F8E0E596FFAFE597E496AEADBF
:1017C000BFADE4970C90E496EEADFFADE497319693
:1017D000E496FFAFEEAFE497E296AEADBFADE29711
:1017E0000C92E296EEADFFADE2973196E296FFAF36
:1017F000EEAFE297E596FFADE597F150E596FFAFC6
:10180000E597E5968FADE5978823C1F688E0FE0160
:10181000B696DF01982F1D929A95E9F781E08FA384
:10182000DE019E96E796BFAFAEAFE797EBECF0E038
:10183000E996FFAFEEAFE997F8E0EA96FFAFEA97D7
:10184000E996AEADBFADE9970C90E996EEADFFAD70
:10185000E9973196E996FFAFEEAFE997E796AEAD1F
:10186000BFADE7970C92E796EEADFFADE7973196E7
:10187000E796FFAFEEAFE797EA96FFADEA97F15034
:10188000EA96FFAFEA97EA968FADEA978823C1F60A
:1018900088E0FE01F696DF01982F1D929A95E9F7F0
:1018A00081E088AFDE01DE96EC96BFAFAEAFEC977D
:1018B000E3ECF0E0EE96FFAFEEAFEE97F8E0EF96D8
:1018C000FFAFEF97EE96AEADBFADEE970C90EE96F4
:1018D000EEADFFADEE973196EE96FFAFEEAFEE9721
:1018E000EC96AEADBFADEC970C92EC96EEADFFADC5
:1018F000EC973196EC96FFAFEEAFEC97EF96FFAD1D
:10190000EF97F150EF96FFAFEF97EF968FADEF9710
:101910008823C1F6CE018A5B9F4F28E0FC01DF01DE
:10192000822F1D928A95E9F7FE01EA5BFF4F81E065
:101930008383CE01825B9F4FC158DF4F9983888399
:10194000CF57D040ABEBB0E0CF57DF4FB983A88380
:10195000C158D040B8E0CD57DF4FB883C358D0400E
:10196000CF57DF4FE881F981C158D0400080CF5771
:10197000DF4F88819981C158D0400196CF57DF4F02
:1019800099838883C158D040C158DF4FA881B9815D
:10199000CF57D0400C92C158DF4FE881F981CF5723
:1019A000D0403196C158DF4FF983E883CF57D040FC
:1019B000CD57DF4FF881C358D040F150CD57DF4F9E
:1019C000F883C358D040CD57DF4F8881C358D040EB
:1019D000882331F6CE018A5A9F4F28E0FC01DF01AF
:1019E000822F1D928A95E9F7FE01EA5AFF4F81E0A6
:1019F0008483CE01825A9F4FCC57DF4F99838883CF
:101A0000C458D040A3EBB0E0CA57DF4FB983A883D6
:101A1000C658D040B8E0C857DF4FB883C858D04048
:101A2000CA57DF4FE881F981C658D0400080CA57B5
:101A3000DF4F88819981C658D0400196CA57DF4F41
:101A400099838883C658D040CC57DF4FA881B9818D
:101A5000C458D0400C92CC57DF4FE881F981C4586C
:101A6000D0403196CC57DF4FF983E883C458D0403B
:101A7000C857DF4FF881C858D040F150C857DF4FE2
:101A8000F883C858D040C857DF4F8881C858D04025
:101A9000882331F68EE18D8B4CC1CE0146960E9493
:101AA0007715CE014E960E94181583E161E00E94E1
:101AB000CD001A8A198A19C088E29AE09C8B8B8B18
:101AC000E0961FAEE0978B899C89009721F091E00A
:101AD000E0969FAFE0978B899C8901979C8B8B8BBD
:101AE000E096AFADE097AA2359F7AF961FAEAF9738
:101AF00089899A89009721F0B1E0AF96BFAFAF977F
:101B000089899A8901979A8B898BAF96EFADAF97A8
:101B1000EE2391F683E160E00E94CD00CE0186962F
:101B20000E947715CE018E960E94181583E161E020
:101B30000E94CD001E861D8619C088E29AE0988B0F
:101B40008F87AE961FAEAE978F859889009721F04C
:101B5000F1E0AE96FFAFAE978F8598890197988B8D
:101B60008F87AE968FADAE97882359F7AD961FAE8F
:101B7000AD978D859E85009721F091E0AD969FAF42
:101B8000AD978D859E8501979E878D87AD96AFAD6C
:101B9000AD97AA2391F683E160E00E94CD00CE01CB
:101BA000C6960E947715CE01CE960E94181583E145
:101BB00061E00E94CD001A86198619C088E29AE079
:101BC0009C878B87AC961FAEAC978B859C850097C6
:101BD00021F0B1E0AC96BFAFAC978B859C850197A7
:101BE0009C878B87AC96EFADAC97EE2359F7AB96FD
:101BF0001FAEAB9789859A85009721F0F1E0AB96EF
:101C0000FFAFAB9789859A8501979A878987AB96AD
:101C10008FADAB97882391F683E160E00E94CD0001
:101C2000CE018A5B9F4F0E947715CE01825B9F4F4A
:101C30000E94181583E161E00E94CD001E821D8282
:101C400019C088E29AE098878F83AA961FAEAA9758
:101C50008F819885009721F091E0AA969FAFAA976F
:101C60008F819885019798878F83AA96AFADAA97A1
:101C7000AA2359F7A9961FAEA9978D819E81009737
:101C800021F0B1E0A996BFAFA9978D819E81019700
:101C90009E838D83A996EFADA997EE2391F683E1FC
:101CA00060E00E94CD00CE018A5A9F4F0E947715B6
:101CB000CE01825A9F4F0E94181583E161E00E9475
:101CC000CD001A82198219C088E29AE09C838B8326
:101CD000A8961FAEA8978B819C81009721F0F1E018
:101CE000A896FFAFA8978B819C8101979C838B83DB
:101CF000A8968FADA897882359F7A7961FAEA797E8
:101D000089819A81009721F091E0A7969FAFA797CC
:101D100089819A8101979A838983A796AFADA79706
:101D2000AA2391F683E160E00E94CD008D89815065
:101D30008D8B8D89882309F0B0CEC857DF4F0FB641
:101D4000F894DEBF0FBECDBFCF91DF910895DF9332
:101D5000CF93CDB7DEB7CE5BD0400FB6F894DEBFE1
:101D60000FBECDBF88E0FE017E96DF01982F1D9249
:101D70009A95E9F781E08E8FDE019696C456DF4F83
:101D8000B983A883CC59D040EBE0F1E0C256DF4FD5
:101D9000F983E883CE59D040F8E0C056DF4FF8838E
:101DA000C05AD040C256DF4FA881B981CE59D04029
:101DB0000C90C256DF4FE881F981CE59D040319660
:101DC000C256DF4FF983E883CE59D040C456DF4F67
:101DD000A881B981CC59D0400C92C456DF4FE8811C
:101DE000F981CC59D0403196C456DF4FF983E8834E
:101DF000CC59D040C056DF4FF881C05AD040F15086
:101E0000C056DF4FF883C05AD040C056DF4F88819C
:101E1000C05AD040882331F688E0FE01BE96DF012B
:101E2000982F1D929A95E9F781E08FA7DE01D6964B
:101E3000CF55DF4FB983A883C15AD040E3E0F1E02A
:101E4000CD55DF4FF983E883C35AD040F8E0CB5536
:101E5000DF4FF883C55AD040CD55DF4FA881B981F7
:101E6000C35AD0400C90CD55DF4FE881F981C35A59
:101E7000D0403196CD55DF4FF983E883C35AD04027
:101E8000CF55DF4FA881B981C15AD0400C92CF55B0
:101E9000DF4FE881F981C15AD0403196CF55DF4FED
:101EA000F983E883C15AD040CB55DF4FF881C55A3A
:101EB000D040F150CB55DF4FF883C55AD040CB55B9
:101EC000DF4F8881C55AD040882331F688E0FE0173
:101ED000FE96DF01982F1D929A95E9F781E0FE01A9
:101EE000E05CFF4F8083CE018A5B9F4FCA55DF4F76
:101EF00099838883C65AD040ABEFB0E0C855DF4F16
:101F0000B983A883C85AD040B8E0C655DF4FB8831C
:101F1000CA5AD040C855DF4FE881F981C85AD0402D
:101F20000080C855DF4F88819981C85AD0400196FA
:101F3000C855DF4F99838883C85AD040CA55DF4FB0
:101F4000A881B981C65AD0400C92CA55DF4FE881AA
:101F5000F981C65AD0403196CA55DF4FF983E883DC
:101F6000C65AD040C655DF4FF881CA5AD040F1500A
:101F7000C655DF4FF883CA5AD040C655DF4F888117
:101F8000CA5AD040882331F6CE01825B9F4F28E0A9
:101F9000FC01DF01822F1D928A95E9F7FE01E25BC9
:101FA000FF4F81E08383CE018A5A9F4FC555DF4F93
:101FB00099838883CB5AD040A3EFB0E0C355DF4F5D
:101FC000B983A883CD5AD040B8E0C155DF4FB8835C
:101FD000CF5AD040C355DF4FE881F981CD5AD04068
:101FE0000080C355DF4F88819981CD5AD04001963A
:101FF000C355DF4F99838883CD5AD040C555DF4FF5
:10200000A881B981CB5AD0400C92C555DF4FE881E9
:10201000F981CB5AD0403196C555DF4FF983E8831B
:10202000CB5AD040C155DF4FF881CF5AD040F15044
:10203000C155DF4FF883CF5AD040C155DF4F88815B
:10204000CF5AD040882331F6CE01825A9F4F28E0E4
:10205000FC01DF01822F1D928A95E9F7FE01E25A09
:10206000FF4F81E08483CE018A599F4FC055DF4FD7
:1020700099838883C05BD040ABEEB0E0CE54DF4F95
:10208000B983A883C25BD040B8E0CC54DF4FB8839B
:10209000C45BD040CE54DF4FE881F981C25BD040B1
:1020A0000080CE54DF4F88819981C25BD040019679
:1020B000CE54DF4F99838883C25BD040C055DF4F39
:1020C000A881B981C05BD0400C92C055DF4FE88138
:1020D000F981C05BD0403196C055DF4FF983E8836A
:1020E000C05BD040CC54DF4FF881C45BD040F1508E
:1020F000CC54DF4FF883C45BD040CC54DF4F888191
:10210000C45BD040882331F6CE0182599F4F28E02E
:10211000FC01DF01822F1D928A95E9F7FE01E25949
:10212000FF4F81E08583CE018A589F4FCB54DF4F0C
:1021300099838883C55BD040A3EEB0E0C954DF4FDC
:10214000B983A883C75BD040B8E0C754DF4FB883DA
:10215000C95BD040C954DF4FE881F981C75BD040EB
:102160000080C954DF4F88819981C75BD0400196B8
:10217000C954DF4F99838883C75BD040CB54DF4F6E
:10218000A881B981C55BD0400C92CB54DF4FE88168
:10219000F981C55BD0403196CB54DF4FF983E8839A
:1021A000C55BD040C754DF4FF881C95BD040F150C8
:1021B000C754DF4FF883C95BD040C754DF4F8881D5
:1021C000C95BD040882331F6CE0182589F4F28E06A
:1021D000FC01DF01822F1D928A95E9F7FE01E2588A
:1021E000FF4F81E08683CE018A579F4FC654DF4F51
:1021F00099838883CA5BD040ABEDB0E0C454DF4F15
:10220000B983A883CC5BD040B8E0C254DF4FB88319
:10221000CE5BD040C454DF4FE881F981CC5BD04025
:102220000080C454DF4F88819981CC5BD0400196F7
:10223000C454DF4F99838883CC5BD040C654DF4FB2
:10224000A881B981CA5BD0400C92C654DF4FE881A7
:10225000F981CA5BD0403196C654DF4FF983E883D9
:10226000CA5BD040C254DF4FF881CE5BD040F15002
:10227000C254DF4FF883CE5BD040C254DF4F888119
:10228000CE5BD040882331F68EE18D8F27C2CE0100
:102290004E960E947715CE0186960E94181583E10E
:1022A00061E00E94CD001A8E198E1FC088E29AE06C
:1022B0009C8F8B8FC556DF4F1882CB59D0408B8DAA
:1022C0009C8D009731F091E0C556DF4F9883CB5934
:1022D000D0408B8D9C8D01979C8F8B8FC556DF4F87
:1022E000A881CB59D040AA2329F7C656DF4F1882C0
:1022F000CA59D040898D9A8D009731F0B1E0C65609
:10230000DF4FB883CA59D040898D9A8D01979A8F33
:10231000898FC656DF4FE881CA59D040EE2331F687
:1023200083E160E00E94CD00CE018E960E94771579
:10233000CE01C6960E94181583E161E00E94CD008F
:102340001E8A1D8A1FC088E29AE0988F8F8BC7561D
:10235000DF4F1882C959D0408F89988D009731F08E
:10236000F1E0C756DF4FF883C959D0408F89988D67
:102370000197988F8F8BC756DF4F8881C959D040FE
:10238000882329F7C856DF4F1882C859D0408D8955
:102390009E89009731F091E0C856DF4F9883C85965
:1023A000D0408D899E8901979E8B8D8BC856DF4FBB
:1023B000A881C859D040AA2331F683E160E00E9489
:1023C000CD00CE01CE960E947715CE018A5B9F4F3D
:1023D0000E94181583E161E00E94CD001A8A198AD3
:1023E0001FC088E29AE09C8B8B8BC956DF4F188206
:1023F000C759D0408B899C89009731F0B1E0C9560C
:10240000DF4FB883C759D0408B899C8901979C8B3B
:102410008B8BC956DF4FE881C759D040EE2329F78F
:10242000CA56DF4F1882C659D04089899A890097C9
:1024300031F0F1E0CA56DF4FF883C659D0408989A0
:102440009A8901979A8B898BCA56DF4F8881C65922
:10245000D040882331F683E160E00E94CD00CE01B8
:10246000825B9F4F0E947715CE018A5A9F4F0E9430
:10247000181583E161E00E94CD001E861D861FC0F5
:1024800088E29AE0988B8F87CB56DF4F1882C55928
:10249000D0408F859889009731F091E0CB56DF4F7F
:1024A0009883C559D0408F8598890197988B8F87DD
:1024B000CB56DF4FA881C559D040AA2329F7CC5667
:1024C000DF4F1882C459D0408D859E85009731F02A
:1024D000B1E0CC56DF4FB883C459D0408D859E857E
:1024E00001979E878D87CC56DF4FE881C459D04035
:1024F000EE2331F683E160E00E94CD00CE01825AE6
:102500009F4F0E947715CE018A599F4F0E94181540
:1025100083E161E00E94CD001A8619861FC088E21F
:102520009AE09C878B87CD56DF4F1882C359D040E5
:102530008B859C85009731F0F1E0CD56DF4FF88315
:10254000C359D0408B859C8501979C878B87CD563E
:10255000DF4F8881C359D040882329F7CE56DF4FFB
:102560001882C259D04089859A85009731F091E050
:10257000CE56DF4F9883C259D04089859A850197FE
:102580009A878987CE56DF4FA881C259D040AA23A7
:1025900031F683E160E00E94CD00CE0182599F4F69
:1025A0000E947715CE018A589F4F0E94181583E12B
:1025B00061E00E94CD001E821D821FC088E29AE069
:1025C00098878F83CF56DF4F1882C159D0408F81B3
:1025D0009885009731F0B1E0CF56DF4FB883C159ED
:1025E000D0408F819885019798878F83CF56DF4F92
:1025F000E881C159D040EE2329F7C057DF4F188238
:10260000C059D0408D819E81009731F0F1E0C057D4
:10261000DF4FF883C059D0408D819E8101979E8302
:102620008D83C057DF4F8881C059D040882331F651
:1026300083E160E00E94CD00CE0182589F4F0E944E
:102640007715CE018A579F4F0E94181583E161E0EC
:102650000E94CD001A8219821FC088E29AE09C83F2
:102660008B83C157DF4F1882CF58D0408B819C811C
:10267000009731F091E0C157DF4F9883CF58D04099
:102680008B819C8101979C838B83C157DF4FA881ED
:10269000CF58D040AA2329F7C257DF4F1882CE580F
:1026A000D04089819A81009731F0B1E0C257DF4F65
:1026B000B883CE58D04089819A8101979A838983C3
:1026C000C257DF4FE881CE58D040EE2331F683E188
:1026D00060E00E94CD008D8D81508D8F8D8D88237F
:1026E00009F0D5CDC254DF4F0FB6F894DEBF0FBE50
:1026F000CDBFCF91DF910895DF93CF93CDB7DEB7F4
:10270000C255D0400FB6F894DEBF0FBECDBF88E0F3
:10271000FE013E96DF01982F1D929A95E9F781E020
:102720008E87DE0156962696BFAFAEAF2697E3E2C0
:10273000F1E02896FFAFEEAF2897F8E02996FFAFBB
:1027400029972896AEADBFAD28970C902896EEAD90
:10275000FFAD289731962896FFAFEEAF28972696C3
:10276000AEADBFAD26970C922696EEADFFAD269787
:1027700031962696FFAFEEAF26972996FFAD2997A3
:10278000F1502996FFAF299729968FAD2997882375
:10279000C1F6DE015E962B96BFAFAEAF2B97EBE195
:1027A000F1E02D96FFAFEEAF2D97F8E02E96FFAF3C
:1027B0002E972D96AEADBFAD2D970C902D96EEAD0C
:1027C000FFAD2D9731962D96FFAFEEAF2D972B963F
:1027D000AEADBFAD2B970C922B96EEADFFAD2B9708
:1027E00031962B96FFAFEEAF2B972E96FFAD2E971F
:1027F000F1502E96FFAF2E972E968FAD2E978823F1
:10280000C1F688E0FE01B696DF01982F1D929A95D9
:10281000E9F781E089A788E0FE01BE96DF01982FE5
:102820001D929A95E9F781E08DABDE01D696609610
:10283000BFAFAEAF6097E3E1F1E06296FFAFEEAFFE
:102840006297F8E06396FFAF63976296AEADBFAD57
:1028500062970C906296EEADFFAD629731966296EC
:10286000FFAFEEAF62976096AEADBFAD60970C92D2
:102870006096EEADFFAD609731966096FFAFEEAF1C
:1028800060976396FFAD6397F1506396FFAF6397D0
:1028900063968FAD63978823C1F682E38D87BAC0B4
:1028A000CE010E960E947715CE0146960E9418150D
:1028B00083E161E00E94CD001A86198619C088E282
:1028C0009AE09C878B8724961FAE24978B859C85E6
:1028D000009721F091E024969FAF24978B859C85EB
:1028E00001979C878B872496AFAD2497AA2359F72D
:1028F00023961FAE239789859A85009721F0B1E032
:102900002396BFAF239789859A8501979A878987F0
:102910002396EFAD2397EE2391F683E160E00E94CA
:10292000CD00CE014E960E947715CE0186960E946C
:10293000181583E161E00E94CD001E821D8219C03E
:1029400088E29AE098878F8322961FAE22978F8124
:102950009885009721F0F1E02296FFAF22978F81B2
:102960009885019798878F8322968FAD2297882329
:1029700059F721961FAE21978D819E81009721F0F6
:1029800091E021969FAF21978D819E8101979E8333
:102990008D832196AFAD2197AA2391F683E160E064
:1029A0000E94CD00CE018E960E947715CE01C6966C
:1029B0000E94181583E161E00E94CD001A821982FD
:1029C00013C088E29AE09C838B831FAE8B819C812D
:1029D000009711F0B1E0BFAF8B819C8101979C8380
:1029E0008B83EFADEE2389F71EAE89819A81009724
:1029F00011F0F1E0FEAF89819A8101979A83898372
:102A00008EAD8823F1F683E160E00E94CD008D85D4
:102A100081508D878D85882309F042CFCE5ADF4FB4
:102A20000FB6F894DEBF0FBECDBFCF91DF910895F2
:102A3000DF93CF93CDB7DEB729970FB6F894DEBFFB
:102A40000FBECDBF9F838E831D8244C08D81282FF2
:102A500030E08E819F81FC01E20FF31F8081813085
:102A600029F482E160E00E94CD0004C082E161E0CF
:102A70000E94CD0081E161E00E94CD001A8219829E
:102A800013C088E29AE09C838B8319868B819C819A
:102A9000009711F081E089878B819C8101979C834D
:102AA0008B838985882389F7188689819A81009785
:102AB00011F081E0888789819A8101979A838983BF
:102AC00088858823F1F681E160E00E94CD008D8148
:102AD0008F5F8D838D81883008F4B8CF29960FB62B
:102AE000F894DEBF0FBECDBFCF91DF910895DF9385
:102AF000CF93CDB7DEB729970FB6F894DEBF0FBEE0
:102B0000CDBF9F838E831D8244C08D81282F30E0EE
:102B10008E819F81FC01E20FF31F8081813029F4B7
:102B200082E161E00E94CD0004C082E160E00E9489
:102B3000CD0081E161E00E94CD001A82198213C0AC
:102B400088E29AE09C838B8319868B819C81009715
:102B500011F081E089878B819C8101979C838B8315
:102B60008985882389F7188689819A81009711F0D1
:102B700081E0888789819A8101979A8389838885F2
:102B80008823F1F681E160E00E94CD008D818F5FA6
:102B90008D838D81883008F4B8CF29960FB6F894CC
:102BA000DEBF0FBECDBFCF91DF910895F894FFCF68
:102BB0003B003800350032003A0037003400310065
:102BC000390036003300300010000101010101011D
:102BD00001010101010101010101010101010101E5
:102BE00001010101010101010101010101010101D5
:102BF00001010000000001010101010000000101CC
:102C000001010100000101010100000001000000BC
:102C100000010001000000000000010100000000B0
:102C20000000010101010101010101000001010198
:102C30000100000001000000000100010000000090
:102C40000000010100000000000001010000000080
:102C5000000001000100000000010000000101016E
:102C60000100000101010101010100010101010157
:0C2C70000101010101010101010100004E
:00000001FF
