:100000000C942A000C9447000C9447000C94470071
:100010000C9447000C9447000C9447000C94470044
:100020000C9447000C9447000C94DE040C94C1041B
:100030000C9447000C9447000C9447000C94470024
:100040000C9447000C9447000C9447000C94470014
:100050000C94470011241FBECFE5D4E0DEBFCDBF16
:1000600010E0A0E6B0E0E8EFFAE002C005900D92E3
:10007000AC3BB107D9F710E0ACEBB0E001C01D928A
:10008000A53CB107E1F70E94FB040C947A050C949F
:100090000000DF93CF93CDB7DEB7E7E2F0E080E476
:1000A0008083E6E2F0E01082E5E2F0E01082E4E234
:1000B000F0E01082A0E5B0E0E0E5F0E080818C9314
:1000C000CF91DF910895DF93CF93CDB7DEB7A6E24E
:1000D000B0E0E6E2F0E0808180688C93CF91DF9120
:1000E0000895DF93CF93CDB7DEB7A6E2B0E0E6E2A6
:1000F000F0E080818F778C93CF91DF910895DF932B
:10010000CF9300D000D00F92CDB7DEB789837B8329
:100110006A83EA81FB8111821082A7E2B0E0E7E204
:10012000F0E08081807E8C93A7E2B0E0E7E2F0E02F
:100130008081982F89818F71892B8C93A6E2B0E002
:10014000E6E2F0E0808180648C93E6E2F0E080817A
:10015000882F90E0807490700097B9F7E4E2F0E0A7
:100160008081882F90E0EA81FB8191838083EA81FE
:10017000FB81808191819695879596958795EA81F7
:10018000FB8191838083EA81FB8120813181E5E2DB
:10019000F0E08081882F90E0002496958795079461
:1001A000969587950794982F802D822B932BEA8123
:1001B000FB81918380831D821C828981883020F499
:1001C00081E090E09D838C83EC81FD81EE59FF4FAF
:1001D00080810F900F900F900F900F90CF91DF9133
:1001E0000895DF93CF93CDB7DEB72A970FB6F89473
:1001F000DEBF0FBECDBF8E8378876F831D821C82CA
:100200001B821A821982EF81F885118210821D8269
:1002100049C0A7E2B0E0E7E2F0E08081982F8E814C
:100220008F71892B8C93A6E2B0E0E6E2F0E080814A
:1002300080648C93E6E2F0E08081882F90E0807407
:1002400090700097B9F7E4E2F0E08081882F90E0A9
:100250009C838B838B819C819695879596958795BA
:100260009C838B83E5E2F0E08081882F90E000247E
:10027000969587950794969587950794982F802D46
:100280009C018B819C81822B932B9C838B83298166
:100290003A818B819C81820F931F9A8389838D8100
:1002A0008F5F8D838D81883008F4B3CF89819A81E7
:1002B000969587959695879596958795EF81F8857C
:1002C000918380831A8619868E81883020F481E09C
:1002D00090E09A878987E985FA85EE59FF4F8081FA
:1002E0002A960FB6F894DEBF0FBECDBFCF91DF9137
:1002F0000895DF93CF93CDB7DEB727970FB6F89465
:10030000DEBF0FBECDBF9B838A837D836C83EC8170
:10031000FD8111821082198252C0A7E2B0E0E7E2AB
:10032000F0E08081482F8981282F30E08A819B81ED
:10033000FC01E20FF31F80818F71842B8C93A6E266
:10034000B0E0E6E2F0E0808180648C93E6E2F0E0E9
:100350008081882F90E0807490700097B9F7E4E274
:10036000F0E08081882F90E0EC81FD819183808393
:10037000EC81FD81808191819695879596958795F1
:10038000EC81FD8191838083EC81FD81208131812D
:10039000E5E2F0E08081882F90E000249695879533
:1003A0000794969587950794982F802D822B932BF1
:1003B000EC81FD819183808389818F5F898389812D
:1003C000843008F4AACFEA81FB8180818830D0F4A0
:1003D0008A819B81FC0131968081883098F48A81E2
:1003E0009B81FC0132968081883060F48A819B81F8
:1003F000FC0133968081883028F481E090E09F836F
:100400008E8302C01F821E828E819F81FC01EE5965
:10041000FF4F808127960FB6F894DEBF0FBECDBF89
:10042000CF91DF910895DF93CF93CDB7DEB7E09101
:100430006C00F0916D001082E0916E00F0916F0001
:100440008FEF8083E0917000F09171001082E09155
:100450007200F09173001082A0916400B091650069
:10046000E0916400F091650080818C93E0916600DA
:10047000F09167001082A0916800B0916900E0914E
:100480006800F091690080818C93A0916A00B0911E
:100490006B00E0916A00F0916B0080818C93CF91AA
:1004A000DF910895DF93CF93CDB7DEB727970FB6CF
:1004B000F894DEBF0FBECDBF8B837D836C838B81B1
:1004C0008F3180F58B818695869586958A838B8181
:1004D000877089838A81882F90E0880F991FFC019B
:1004E000EC58FF4F0190F081E02D8081482F50E0C3
:1004F0008981282F30E081E090E002C0880F991FA9
:100500002A95E2F79A01282339238981882F90E0E0
:10051000A90102C0559547958A95E2F7CA01EC8179
:10052000FD8180831F821E828B81803220F081E0DA
:1005300090E09F838E83EE81FF81E05AFF4F8081A0
:1005400027960FB6F894DEBF0FBECDBFCF91DF91D7
:100550000895DF93CF9300D000D00F92CDB7DEB7D0
:100560008C836D8381E08B838C81869586958695BF
:100570008A838C81877089838C81803210F01B8202
:1005800033C08A81882F90E0880F991FFC01EC59B5
:10059000FF4FA081B1818981282F30E081E090E078
:1005A00002C0880F991F2A95E2F7282F20958A818B
:1005B000882F90E0880F991FFC01EC59FF4F0190A4
:1005C000F081E02D8081422F48238D81282F30E05B
:1005D0008981882F90E0B90102C0660F771F8A9544
:1005E000E2F7CB01842B8C938B810F900F900F90AF
:1005F0000F900F90CF91DF910895DF93CF9300D0AC
:1006000000D0CDB7DEB78A837C836B8381E089839A
:100610008A81843080F48A81882F90E0880F991F26
:10062000FC01EC58FF4F0190F081E02D8081EB81BF
:10063000FC81808301C0198289810F900F900F90F7
:100640000F90CF91DF910895DF93CF9300D00F9259
:10065000CDB7DEB78A836B8381E089838A8184305A
:1006600070F48A81882F90E0880F991FFC01EC5963
:10067000FF4F0190F081E02D8B81808301C01982B2
:1006800089810F900F900F90CF91DF910895DF93A4
:10069000CF9300D000D00F92CDB7DEB78C836D839F
:1006A00081E08B838C818695869586958A838C8163
:1006B000877089838C81803210F01B8233C08A81DD
:1006C000882F90E0880F991FFC01E459FF4FA0810B
:1006D000B1818981282F30E081E090E002C0880F4D
:1006E000991F2A95E2F7282F20958A81882F90E07C
:1006F000880F991FFC01E459FF4F0190F081E02D14
:100700008081422F48238D81282F30E08981882FD6
:1007100090E0B90102C0660F771F8A95E2F7CB011E
:10072000842B8C938B810F900F900F900F900F90D4
:10073000CF91DF910895DF93CF9300D00F92CDB783
:10074000DEB78A836B8381E089838A81843070F489
:100750008A81882F90E0880F991FFC01E459FF4F90
:100760000190F081E02D8B81808301C01982898105
:100770000F900F900F90CF91DF910895DF93CF935B
:1007800000D000D000D0CDB7DEB78C837E836D83E0
:1007900081E08B838C818695869586958A838C8172
:1007A000877089838C81803210F01B8228C08A81F7
:1007B000882F90E0880F991FFC01E459FF4F0190AA
:1007C000F081E02D8081482F50E08981282F30E092
:1007D00081E090E002C0880F991F2A95E2F79A0104
:1007E000282339238981882F90E0A90102C05595DB
:1007F00047958A95E2F7CA01ED81FE8180838B815E
:1008000026960FB6F894DEBF0FBECDBFCF91DF9115
:100810000895DF93CF9300D000D0CDB7DEB78A83A1
:100820007C836B8381E089838A81843080F48A8130
:10083000882F90E0880F991FFC01EC58FF4F019022
:10084000F081E02D8081EB81FC81808301C01982E1
:1008500089810F900F900F900F90CF91DF910895A5
:10086000DF93CF93CDB7DEB7A3E5B0E0E3E5F0E0EB
:10087000808183608C93A9E5B0E0E9E5F0E08081B8
:1008800083608C9384E090E09093C2008093C100D9
:10089000CF91DF910895DF93CF9300D000D0CDB7F3
:1008A000DEB79C838B832091BC003091BD0080918A
:1008B000C1009091C200AC01249FC001259F900D02
:1008C000349F900D11249A83898329813A818B81E9
:1008D0009C818217930718F481E08093C0000F90E9
:1008E0000F900F900F90CF91DF910895DF93CF93EA
:1008F000CDB7DEB71092BD001092BC001092BF00C1
:100900001092BE00CF91DF910895DF93CF93CDB7C2
:10091000DEB71092C000CF91DF910895DF93CF939F
:10092000CDB7DEB7A3E5B0E0E3E5F0E0808183601A
:100930008C93CF91DF910895DF93CF93CDB7DEB73E
:10094000A3E5B0E0E3E5F0E08081887F8C93CF9170
:10095000DF910895DF93CF93CDB7DEB78091C000CC
:10096000CF91DF910895DF93CF930F92CDB7DEB78C
:100970008983ECE5F0E0898180830F90CF91DF914E
:1009800008951F920F920FB60F9211248F939F9389
:10099000DF93CF93CDB7DEB78091BC009091BD00BF
:1009A00001969093BD008093BC00CF91DF919F9101
:1009B0008F910F900FBE0F901F9018951F920F925E
:1009C0000FB60F9211248F939F93DF93CF93CDB7E0
:1009D000DEB78091BE009091BF0001969093BF005A
:1009E0008093BE00CF91DF919F918F910F900FBEAA
:1009F0000F901F901895DF93CF93CDB7DEB7C854F3
:100A0000D0400FB6F894DEBF0FBECDBF1A821C8255
:100A10001B82CE01059626969FAF8EAF2697ECE7F8
:100A2000F0E02896FFAFEEAF2897FFE32996FFAFDF
:100A300029972896EEADFFAD2897008028968EADB9
:100A40009FAD2897019628969FAF8EAF2897269640
:100A5000EEADFFAD2697008226968EAD9FAD269710
:100A6000019626969FAF8EAF269729969FAD299720
:100A7000915029969FAF29972996EFAD2997EE239C
:100A8000C1F60E9413020E9430040E9449000E9495
:100A900063000E948E0478949E012D5F3F4F80E09A
:100AA000B9010E947F008B819C81969587959695D0
:100AB00087950E944B040E94AA0489838981813012
:100AC00059F78A81282F30E0CE010596FC01E20F0C
:100AD000F31F908181E0692F0E9424038A818F5F38
:100AE0008A838A818E3309F41A820E9485040E94C7
:080AF0007604D2CFF894FFCF89
:100AF800010000013B003800350032003A003700A1
:100B0800340031003B003800350032007F8C98A556
:100B1800B1BCC7D1DAE3EAF1F6FAFDFEFEFDFBF857
:100B2800F3EDE6DED5CBC1B5AA9E9184786B5E5213
:100B3800473B31271F17100A06020000000205096B
:0C0B48000E151C252F39444F5B6874000B
:00000001FF
