:100000000C942A000C9484040C94B1040C94DE0427
:100010000C9447000C9447000C9447000C94EC059A
:100020000C9447000C9447000C9447000C94470034
:100030000C9447000C9447000C9447000C94470024
:100040000C9447000C9447000C9447000C94470014
:100050000C94470011241FBECFE5D8E0DEBFCDBF12
:1000600011E0A0E6B0E0EAEDFCE002C005900D92E0
:10007000AA37B107D9F711E0AAE7B1E001C01D9294
:10008000A238B107E1F70E94C0050C946B060C94EE
:100090000000A8E0B0E0EFE4F0E00C943D069B0126
:1000A000AC0183E08983DA01C9018827B7FD839514
:1000B0009927AA27BB27B82E2115310541055105DF
:1000C00019F482E089833AC08823A9F0203080E0C7
:1000D000380780E0480780E8580729F460E070E0BE
:1000E00080E09FEC30C0EE24FF248701E21AF30A7F
:1000F000040B150B02C079018A018EE1C82ED12CA8
:10010000DC82CB82ED82FE820F831887C801B701A3
:100110000E94A70001971816190684F4082E04C03F
:10012000EE0CFF1C001F111F0A94D2F7ED82FE8215
:100130000F831887C81AD90ADC82CB82BA82CE0113
:1001400001960E94F6002896E9E00C945906EF9279
:10015000FF920F931F937B018C0180E0E81680E0F3
:10016000F80681E0080780E0180788F48FEFE816AA
:10017000F1040105110531F028F088E090E0A0E0DD
:10018000B0E017C080E090E0A0E0B0E012C080E0F6
:10019000E81680E0F80680E0080781E0180728F0FC
:1001A00088E190E0A0E0B0E004C080E190E0A0E051
:1001B000B0E020E230E040E050E0281B390B4A0B71
:1001C0005B0B04C016950795F794E7948A95D2F7D0
:1001D000F701E05AFF4F8081281B3109410951097D
:1001E000C9011F910F91FF90EF900895DF92EF9258
:1001F000FF920F931F93FC01E480F5800681178125
:10020000D1808081823048F480E090E0A0E1B0E0CD
:10021000E82AF92A0A2B1B2BA5C0843009F49FC0B9
:10022000823021F4EE24FF24870105C0E114F1049B
:100230000105110519F4E0E0F0E096C062817381D8
:100240009FEF623879070CF05BC022E83FEF261B76
:10025000370B2A3131052CF020E030E040E050E04F
:100260002AC0B801A701022E04C07695679557955C
:1002700047950A94D2F781E090E0A0E0B0E004C096
:10028000880F991FAA1FBB1F2A95D2F70197A109B2
:10029000B1098E219F21A023B1230097A105B105AB
:1002A00021F081E090E0A0E0B0E09A01AB01282BC2
:1002B000392B4A2B5B2BDA01C9018F779070A07024
:1002C000B07080349105A105B10539F427FF09C04C
:1002D000205C3F4F4F4F5F4F04C0215C3F4F4F4F5B
:1002E0005F4FE0E0F0E02030A0E03A07A0E04A07EE
:1002F000A0E45A0710F0E1E0F0E079018A0127C09C
:100300006038710564F5FB01E158FF4FD801C70162
:100310008F779070A070B07080349105A105B10501
:1003200039F4E7FE0DC080E490E0A0E0B0E004C046
:100330008FE390E0A0E0B0E0E80EF91E0A1F1B1F5B
:1003400017FF05C016950795F794E794319687E057
:1003500016950795F794E7948A95D1F705C0EE2492
:10036000FF248701EFEFF0E06E2F67956627679512
:10037000902F9F77D794DD24D7948E2F8695492F81
:10038000462B582F5D29B701CA011F910F91FF908D
:10039000EF90DF900895DF93CF930F92CDB7DEB744
:1003A000E0916A01F0916B0188E08083E0916C013B
:1003B000F0916D018FEF8083E0916E01F0916F01FC
:1003C0008EEF8083E0917001F09171018BEF80835B
:1003D000A0916201B0916301E0916201F09163012B
:1003E0008081877F8C93E0916401F0916501808129
:1003F000E0916401F09165011082A0916601B091D5
:100400006701E0916601F0916701808181708C93B2
:10041000A0916801B0916901E0916801F0916901D2
:10042000808184708C930F90CF91DF910895DF933A
:10043000CF9300D000D000D0CDB7DEB78C837E83C1
:100440006D8381E08B838C818F3180F58C818695E3
:10045000869586958A838C81877089838A81882F87
:1004600090E0880F991FFC01EE58FE4F0190F0813B
:10047000E02D8081482F50E08981282F30E081E0F5
:1004800090E002C0880F991F2A95E2F79A0128236D
:1004900039238981882F90E0A90102C0559547959D
:1004A0008A95E2F7CA01ED81FE81808381E08B832A
:1004B0008B8126960FB6F894DEBF0FBECDBFCF91CD
:1004C000DF910895DF93CF9300D000D000D0CDB757
:1004D000DEB78D836E8381E08C838D81803210F056
:1004E0001C8264C08D818695869586958B838D81CF
:1004F00087708A838B81882F90E0880F991FFC0179
:10050000E659FE4F0190F081E02D8081482F50E0A8
:100510008A81282F30E081E090E002C0880F991F87
:100520002A95E2F79A01282339238A81882F90E0BF
:10053000A90102C0559547958A95E2F7CA018983BA
:100540008981813099F58B81882F90E0880F991FE0
:10055000FC01EE59FE4FA081B1818A81282F30E045
:1005600081E090E002C0880F991F2A95E2F7282FBA
:1005700020958B81882F90E0880F991FFC01EE5900
:10058000FE4F0190F081E02D8081422F48238E8123
:10059000282F30E08A81882F90E0B90102C0660FD1
:1005A000771F8A95E2F7CB01842B8C938C8126965A
:1005B0000FB6F894DEBF0FBECDBFCF91DF91089587
:1005C000DF93CF9300D000D0CDB7DEB78A837C8392
:1005D0006B8381E089838A81843080F48A81882FCB
:1005E00090E0880F991FFC01EE58FE4F0190F081BA
:1005F000E02D8081EB81FC81808301C0198289819B
:100600000F900F900F900F90CF91DF910895DF938F
:10061000CF9300D000D0CDB7DEB78B836C8381E061
:100620008A838B818430F0F48B81882F90E0880F4F
:10063000991FFC01E659FE4F0190F081E02D808169
:10064000898389818F3F79F48B81882F90E0880F8F
:10065000991FFC01EE59FE4F0190F081E02D8C8135
:10066000808301C01A828A810F900F900F900F90A3
:10067000CF91DF910895DF93CF9300D000D00F92F8
:10068000CDB7DEB78C836D8381E08B838C81803224
:1006900010F01B823BC08C818695869586958A8357
:1006A0008C81877089838A81882F90E0880F991FB9
:1006B000FC01E659FE4FA081B1818981282F30E0ED
:1006C00081E090E002C0880F991F2A95E2F7282F59
:1006D00020958A81882F90E0880F991FFC01E659A8
:1006E000FE4F0190F081E02D8081422F48238D81C3
:1006F000282F30E08981882F90E0B90102C0660F71
:10070000771F8A95E2F7CB01842B8C938B810F9016
:100710000F900F900F900F90CF91DF910895DF937E
:10072000CF9300D00F92CDB7DEB78A836B8381E081
:1007300089838A81843070F48A81882F90E0880FC1
:10074000991FFC01E659FE4F0190F081E02D8B814D
:10075000808301C0198289810F900F900F90CF91F3
:10076000DF910895DF93CF9300D000D000D0CDB7B4
:10077000DEB78C837E836D8381E08B838C818032B6
:1007800010F01B8230C08C818695869586958A8371
:100790008C81877089838A81882F90E0880F991FC8
:1007A000FC01E659FE4F0190F081E02D8081482F39
:1007B00050E08981282F30E081E090E002C0880F6E
:1007C000991F2A95E2F79A01282339238981882FD6
:1007D00090E0A90102C0559547958A95E2F7CA01B4
:1007E000ED81FE8180838B8126960FB6F894DEBF63
:1007F0000FBECDBFCF91DF910895DF93CF9300D08F
:1008000000D0CDB7DEB78A837C836B8381E0898398
:100810008A81843080F48A81882F90E0880F991F24
:10082000FC01EE58FE4F0190F081E02D8081EB81BC
:10083000FC81808301C0198289810F900F900F90F5
:100840000F90CF91DF910895DF93CF93CDB7DEB7AF
:10085000A5E5B0E0E5E5F0E080818E608C93A4E54D
:10086000B0E0E4E5F0E0808180648C93ABE5B0E03B
:10087000EBE5F0E0808180648C93CF91DF91089567
:10088000DF93CF930F92CDB7DEB788E08983EAE597
:10089000F0E08081882F90E080749070082E892F7E
:1008A000000C881F990B000C881F991F009719F0E6
:1008B000898181608983EAE5F0E08081881F88274B
:1008C000881F882F90E09070009719F089818260CE
:1008D0008983EAE5F0E08081882F90E08072907053
:1008E00095958795959587959595879595958795F0
:1008F00095958795009719F089818460898389810E
:100900000F90CF91DF9108951F920F920FB60F9223
:1009100011242F933F934F935F936F937F938F9304
:100920009F93AF93BF93EF93FF93DF93CF93CDB795
:10093000DEB7E0917C01F0917D010995CF91DF91C7
:10094000FF91EF91BF91AF919F918F917F916F91A7
:100950005F914F913F912F910F900FBE0F901F907D
:1009600018951F920F920FB60F9211242F933F9359
:100970004F935F936F937F938F939F93AF93BF93A7
:10098000EF93FF93DF93CF93CDB7DEB7E091800174
:10099000F09181010995CF91DF91FF91EF91BF9186
:1009A000AF919F918F917F916F915F914F913F9107
:1009B0002F910F900FBE0F901F9018951F920F92BE
:1009C0000FB60F9211242F933F934F935F936F9322
:1009D0007F938F939F93AF93BF93EF93FF93DF9397
:1009E000CF93CDB7DEB7E0917E01F0917F010995FD
:1009F000CF91DF91FF91EF91BF91AF919F918F9137
:100A00007F916F915F914F913F912F910F900FBE0A
:100A10000F901F901895DF93CF9300D0CDB7DEB71E
:100A20009A83898389819A8190937D0180937C0147
:100A30000F900F90CF91DF910895DF93CF9300D067
:100A4000CDB7DEB79A83898389819A81909381019A
:100A5000809380010F900F90CF91DF910895DF93E5
:100A6000CF9300D0CDB7DEB79A83898389819A81ED
:100A700090937F0180937E010F900F90CF91DF9133
:100A80000895DF93CF93CDB7DEB77894CF91DF9100
:100A90000895DF93CF93CDB7DEB7CF91DF9108955F
:100AA000DF93CF93CDB7DEB7A3E5B0E0E3E5F0E0A9
:100AB000808183608C93CF91DF910895DF93CF93F2
:100AC000CDB7DEB7E2E5F0E08081882F90E000242A
:100AD000969587950794969587950794982F802DDE
:100AE00020EA3FE0B9010E940D06CB01AA2797FD3D
:100AF000A095BA2FBC01CD010E944900DC01CB01B9
:100B0000BC01CD01CF91DF910895DF93CF93CDB795
:100B1000DEB7E8E5F0E08081882F90E0817090708A
:100B2000882381F0A8E5B0E0E8E5F0E0808181600D
:100B30008C9380917A0190917B01019690937B0137
:100B400080937A0120917A0130917B01809160013C
:100B500090916101AC01249FC001259F900D349FAD
:100B6000900D1124CF91DF910895DF93CF93CDB7EE
:100B7000DEB710927B0110927A01CF91DF91089538
:100B8000DF93CF93CDB7DEB70E94CB010E94240440
:100B90000E945005EAE3F0E08FEF8083EBE3F0E0A2
:100BA0008FEF8083AEE4B0E0EEE4F0E08081896016
:100BB0008C93ECE4F0E011821082EAE4F0E082E34E
:100BC00090E091838083A9E5B0E0E9E5F0E08081E1
:100BD00080618C937894FFCF1F920F920FB60F9283
:100BE00011248F93AF93BF93EF93FF93DF93CF9332
:100BF000CDB7DEB7ABE3B0E0EBE3F0E0808180950A
:100C00008C93CF91DF91FF91EF91BF91AF918F9135
:100C10000F900FBE0F901F90189597FB092E072677
:100C20000AD077FD04D00CD006D000201AF47095BD
:100C300061957F4F0895F6F7909581959F4F0895A0
:100C4000AA1BBB1B51E107C0AA1FBB1FA617B707F2
:100C500010F0A61BB70B881F991F5A95A9F780950E
:100C60009095BC01CD0108952F923F924F925F92D3
:100C70006F927F928F929F92AF92BF92CF92DF92AC
:100C8000EF92FF920F931F93CF93DF93CDB7DEB711
:100C9000CA1BDB0B0FB6F894DEBF0FBECDBF0994A5
:100CA0002A88398848885F846E847D848C849B84FC
:100CB000AA84B984C884DF80EE80FD800C811B810A
:100CC000AA81B981CE0FD11D0FB6F894DEBF0FBE39
:0A0CD000CDBFED010895F894FFCFA9
:100CDA0000010202030303030404040404040404D9
:100CEA0005050505050505050505050505050505AA
:100CFA00060606060606060606060606060606068A
:100D0A000606060606060606060606060606060679
:100D1A000707070707070707070707070707070759
:100D2A000707070707070707070707070707070749
:100D3A000707070707070707070707070707070739
:100D4A000707070707070707070707070707070729
:100D5A000808080808080808080808080808080809
:100D6A0008080808080808080808080808080808F9
:100D7A0008080808080808080808080808080808E9
:100D8A0008080808080808080808080808080808D9
:100D9A0008080808080808080808080808080808C9
:100DAA0008080808080808080808080808080808B9
:100DBA0008080808080808080808080808080808A9
:100DCA000808080808080808080808080808080899
:100DDA0004003B003800350032003A003700340086
:0A0DEA0031003900360033003000FC
:00000001FF
