:100000000C942A000C943F000C943F000C943F0089
:100010000C943F000C943F000C943F000C943F0064
:100020000C943F000C943F000C943F000C943F0054
:100030000C943F000C943F000C943F000C943F0044
:100040000C943F000C943F000C943F000C943F0034
:100050000C943F0011241FBECFE5D8E0DEBFCDBF1A
:1000600010E0A0E6B0E0ECEFFAE002C005900D92DF
:10007000A03BB107D9F70E9480040C947C050C9436
:100080000000DF93CF93CDB7DEB728970FB6F89473
:10009000DEBF0FBECDBF18861F8206C000008F8155
:1000A0009885019698878F838F81988527E2803184
:1000B0009207A0F380E30E94A5001E821D8206C065
:1000C00000008D819E8101969E838D838D819E810E
:1000D00029E0843C9207A0F380E30E94A5001C82E3
:1000E0001B8206C000008B819C8101969C838B83C0
:1000F0008B819C8121E0843F9207A0F380E30E94E2
:10010000A50088E30E94A50086E00E94A5008CE07F
:100110000E94A5001A82198206C0000089819A8176
:1001200001969A83898389819A8121E0843F92078D
:10013000A0F38CE30E94A50028960FB6F894DEBFCA
:100140000FBECDBFCF91DF910895DF93CF9300D045
:1001500000D0CDB7DEB78C831B8229C08B81882F5E
:1001600090E0FC01E359FF4F60818C81482F50E003
:100170008B81282F30E081E090E002C0880F991F2A
:100180002A95E2F79A01282339238B81882F90E062
:10019000A90102C0559547958A95E2F7CA01982FA3
:1001A000862F692F0E94BE028B818F5F8B838B818C
:1001B0008830A0F280E160E00E94BE0281E160E050
:1001C0000E94BE0282E161E00E94BE021A82198290
:1001D00006C0000089819A8101969A83898389816A
:1001E0009A8151E0843F9507A0F382E160E00E948C
:1001F000BE0280E00F900F900F900F90CF91DF9193
:100200000895DF93CF9300D000D0CDB7DEB78C83B5
:100210001B8229C08B81882F90E0FC01E359FF4F9E
:1002200060818C81482F50E08B81282F30E081E065
:1002300090E002C0880F991F2A95E2F79A012823BF
:1002400039238B81882F90E0A90102C055954795ED
:100250008A95E2F7CA01982F862F692F0E94BE0265
:100260008B818F5F8B838B818830A0F280E161E08E
:100270000E94BE0281E160E00E94BE0282E161E074
:100280000E94BE021A82198206C0000089819A81EA
:1002900001969A83898389819A8151E0843F9507E9
:1002A000A0F382E160E00E94BE0280E00F900F9018
:1002B0000F900F90CF91DF910895DF93CF9300D0EF
:1002C00000D00F92CDB7DEB79D838C831B8254C0C4
:1002D0001B822BC08B81882F90E0FC01E359FF4FDC
:1002E0006081EC81FD818081482F50E08B81282F37
:1002F00030E081E090E002C0880F991F2A95E2F774
:100300009A01282339238B81882F90E0A90102C00C
:10031000559547958A95E2F7CA01982F862F692F40
:100320000E94BE028B818F5F8B838B81883090F21D
:1003300080E161E00E94BE0281E160E00E94BE02B5
:1003400082E161E00E94BE021A82198206C00000AA
:1003500089819A8101969A83898389819A8151E062
:10036000843F9507A0F382E160E00E94BE028C8189
:100370009D8101969D838C83EC81FD818081882302
:1003800009F0A6CF80E00F900F900F900F900F9084
:10039000CF91DF910895DF93CF9300D000D0CDB7F8
:1003A000DEB79C838B8380E160E00E94BE0281E126
:1003B00061E00E94BE028FE060E00E9497032B8103
:1003C0003C818FE0B9010E9473021A82198206C033
:1003D000000089819A8101969A83898389819A8113
:1003E00021E0843F9207A0F38FE061E00E94970331
:1003F00080E00F900F900F900F90CF91DF910895B4
:10040000DF93CF9300D000D000D0CDB7DEB79B8371
:100410008A836C838C81882F90E00896880F991FBF
:10042000880F991F880F991F0E94A50019820EC07E
:100430008981282F30E08A819B81FC01E20FF31F24
:1004400080810E94010189818F5F89838981883041
:1004500078F31E821D828C81883020F481E090E048
:100460009E838D83ED81FE81EB58FF4F8081269620
:100470000FB6F894DEBF0FBECDBFCF91DF910895C8
:10048000DF93CF93CDB7DEB7E0917F00F09180008E
:100490008FEF8083E0918100F09182008FEF808365
:1004A000E0918300F09184008FEF8083E0918500DC
:1004B000F09186008FEF8083E0917700F0917800D3
:1004C0001082E0917900F0917A001082E0917B0037
:1004D000F0917C001082E0917D00F0917E0010820E
:1004E000CF91DF910895DF93CF9300D000D000D05B
:1004F000CDB7DEB78C837E836D8381E08B838C8167
:100500008F3180F58C818695869586958A838C813E
:10051000877089838A81882F90E0880F991FFC015A
:10052000E957FF4F0190F081E02D8081482F50E086
:100530008981282F30E081E090E002C0880F991F68
:100540002A95E2F79A01282339238981882F90E0A0
:10055000A90102C0559547958A95E2F7CA01ED8138
:10056000FE81808381E08B838B8126960FB6F89481
:10057000DEBF0FBECDBFCF91DF910895DF93CF9344
:1005800000D000D000D0CDB7DEB78D836E8381E080
:100590008C838D81803210F01C8264C08D818695A1
:1005A000869586958B838D8187708A838B81882F32
:1005B00090E0880F991FFC01E158FF4F0190F081F6
:1005C000E02D8081482F50E08A81282F30E081E0A3
:1005D00090E002C0880F991F2A95E2F79A0128231C
:1005E00039238A81882F90E0A90102C0559547954B
:1005F0008A95E2F7CA0189838981813099F58B81D7
:10060000882F90E0880F991FFC01E958FF4FA081C7
:10061000B1818A81282F30E081E090E002C0880F0C
:10062000991F2A95E2F7282F20958B81882F90E03B
:10063000880F991FFC01E958FF4F0190F081E02DD0
:100640008081422F48238E81282F30E08A81882F95
:1006500090E0B90102C0660F771F8A95E2F7CB01DF
:10066000842B8C938C8126960FB6F894DEBF0FBE38
:10067000CDBFCF91DF910895DF93CF9300D000D00D
:10068000CDB7DEB78A837C836B8381E089838A81DF
:10069000843080F48A81882F90E0880F991FFC01B4
:1006A000E957FF4F0190F081E02D8081EB81FC81C3
:1006B000808301C0198289810F900F900F900F9055
:1006C000CF91DF910895DF93CF9300D000D0CDB7C5
:1006D000DEB78B836C8381E08A838B818430F0F476
:1006E0008B81882F90E0880F991FFC01E158FF4F04
:1006F0000190F081E02D8081898389818F3F79F499
:100700008B81882F90E0880F991FFC01E958FF4FDB
:100710000190F081E02D8C81808301C01A828A8152
:100720000F900F900F900F90CF91DF910895DF936E
:10073000CF9300D000D00F92CDB7DEB78C836D83FE
:1007400081E08B838C81803210F01B823BC08C81D6
:100750008695869586958A838C81877089838A8120
:10076000882F90E0880F991FFC01E158FF4FA0816E
:10077000B1818981282F30E081E090E002C0880FAC
:10078000991F2A95E2F7282F20958A81882F90E0DB
:10079000880F991FFC01E158FF4F0190F081E02D77
:1007A0008081422F48238D81282F30E08981882F36
:1007B00090E0B90102C0660F771F8A95E2F7CB017E
:1007C000842B8C938B810F900F900F900F900F9034
:1007D000CF91DF910895DF93CF9300D00F92CDB7E3
:1007E000DEB78A836B8381E089838A81843070F4E9
:1007F0008A81882F90E0880F991FFC01E158FF4FF4
:100800000190F081E02D8B81808301C01982898164
:100810000F900F900F90CF91DF910895DF93CF93BA
:1008200000D000D000D0CDB7DEB78C837E836D833F
:1008300081E08B838C81803210F01B8230C08C81F0
:100840008695869586958A838C81877089838A812F
:10085000882F90E0880F991FFC01E158FF4F01900D
:10086000F081E02D8081482F50E08981282F30E0F1
:1008700081E090E002C0880F991F2A95E2F79A0163
:10088000282339238981882F90E0A90102C055953A
:1008900047958A95E2F7CA01ED81FE8180838B81BD
:1008A00026960FB6F894DEBF0FBECDBFCF91DF9175
:1008B0000895DF93CF9300D000D0CDB7DEB78A8301
:1008C0007C836B8381E089838A81843080F48A8190
:1008D000882F90E0880F991FFC01E957FF4F019086
:1008E000F081E02D8081EB81FC81808301C0198241
:1008F00089810F900F900F900F90CF91DF91089505
:10090000DF93CF93CDB7DEB7CC54D0400FB6F89479
:10091000DEBF0FBECDBF85E090E09B838A830E943F
:1009200040020E9441007894CE010C969DAB8CABA6
:10093000E5E6F0E0FFABEEABF8E0F8AFEEA9FFA91B
:1009400000808EA99FA901969FAB8EABECA9FDA953
:1009500000828CA99DA901969DAB8CAB98AD91505E
:1009600098AFE8ADEE2351F7CE0144969AAF89AF28
:10097000E7EAF0E0FCAFEBAFF8E0FDAFEBADFCADCC
:1009800000808BAD9CAD01969CAF8BAFE9ADFAAD0D
:10099000008289AD9AAD01969AAF89AF9DAD915015
:1009A0009DAFEDADEE2351F7CE014C969FAF8EAFCC
:1009B000EFE9F0E02296FFAFEEAF2297F8E0239642
:1009C000FFAF23972296EEADFFAD229700802296CF
:1009D0008EAD9FAD2297019622969FAF8EAF229744
:1009E000EEADFFAD00828EAD9FAD01969FAF8EAF95
:1009F00023969FAD2397915023969FAF23972396DD
:100A0000EFAD2397EE23F1F6CE01849625969FAFA6
:100A10008EAF2597E7E9F0E02796FFAFEEAF279777
:100A2000F8E02896FFAF28972796EEADFFAD279701
:100A3000008027968EAD9FAD2797019627969FAF92
:100A40008EAF27972596EEADFFAD259700822596B0
:100A50008EAD9FAD2597019625969FAF8EAF2597BA
:100A600028969FAD2897915028969FAF2897289653
:100A7000EFAD2897EE23C1F6CE018C962A969FAF54
:100A80008EAF2A97EFE8F0E02C96FFAFEEAF2C97F1
:100A9000F8E02D96FFAF2D972C96EEADFFAD2C977D
:100AA00000802C968EAD9FAD2C9701962C969FAF13
:100AB0008EAF2C972A96EEADFFAD2A9700822A962C
:100AC0008EAD9FAD2A9701962A969FAF8EAF2A973B
:100AD0002D969FAD2D9791502D969FAF2D972D96CA
:100AE000EFAD2D97EE23C1F680E690E00E945D0108
:0C0AF00080EC0E94A500F8CFF894FFCF26
:100AFC004C494654004D414D444F4F480008090A9B
:100B0C000B0C0D0E0F00013B003800350032003A83
:100B1C000037003400310039003600330030001F3C
:100B2C00010F0808080F001F11111F011F00000002
:100B3C000101011F0000001F090909090F00000035
:00000001FF
