:100000000C942A000C9447000C9447000C94470071
:100010000C9447000C9447000C9447000C94470044
:100020000C9447000C9447000C9414050C94F704AE
:100030000C9447000C9447000C9447000C94470024
:100040000C9447000C9447000C9447000C94470014
:100050000C94470011241FBECFE5D8E0DEBFCDBF12
:1000600010E0A0E6B0E0E2E9FAE002C005900D92EF
:10007000A438B107D9F710E0A4E8B0E001C01D92A0
:10008000AD38B107E1F70E9431050C9447050C9497
:100090000000DF93CF93CDB7DEB728970FB6F89463
:1000A000DEBF0FBECDBF18861F8206C000008F8145
:1000B0009885019698878F838F81988527E2803174
:1000C0009207A0F380E30E94AD001E821D8206C04D
:1000D00000008D819E8101969E838D838D819E81FE
:1000E00029E0843C9207A0F380E30E94AD001C82CB
:1000F0001B8206C000008B819C8101969C838B83B0
:100100008B819C8121E0843F9207A0F380E30E94D1
:10011000AD0088E30E94AD0086E00E94AD008CE057
:100120000E94AD001A82198206C0000089819A815E
:1001300001969A83898389819A8121E0843F92077D
:10014000A0F38CE30E94AD0028960FB6F894DEBFB2
:100150000FBECDBFCF91DF910895DF93CF9300D035
:1001600000D0CDB7DEB78C831B8229C08B81882F4E
:1001700090E0FC01EE59FF4F60818C81482F50E0E8
:100180008B81282F30E081E090E002C0880F991F1A
:100190002A95E2F79A01282339238B81882F90E052
:1001A000A90102C0559547958A95E2F7CA01982F93
:1001B000862F692F0E94DF028B818F5F8B838B815B
:1001C0008830A0F280E160E00E94DF0281E160E01F
:1001D0000E94DF0282E161E00E94DF021A8219823E
:1001E00006C0000089819A8101969A83898389815A
:1001F0009A8151E0843F9507A0F382E160E00E947C
:10020000DF0280E00F900F900F900F90CF91DF9161
:100210000895DF93CF9300D000D0CDB7DEB78C83A5
:100220001B8229C08B81882F90E0FC01EE59FF4F83
:1002300060818C81482F50E08B81282F30E081E055
:1002400090E002C0880F991F2A95E2F79A012823AF
:1002500039238B81882F90E0A90102C055954795DD
:100260008A95E2F7CA01982F862F692F0E94DF0234
:100270008B818F5F8B838B818830A0F280E161E07E
:100280000E94DF0281E160E00E94DF0282E161E022
:100290000E94DF021A82198206C0000089819A81B9
:1002A00001969A83898389819A8151E0843F9507D9
:1002B000A0F382E160E00E94DF0280E00F900F90E7
:1002C0000F900F90CF91DF910895DF93CF9300D0DF
:1002D00000D00F92CDB7DEB79D838C831B8254C0B4
:1002E0001B822BC08B81882F90E0FC01EE59FF4FC1
:1002F0006081EC81FD818081482F50E08B81282F27
:1003000030E081E090E002C0880F991F2A95E2F763
:100310009A01282339238B81882F90E0A90102C0FC
:10032000559547958A95E2F7CA01982F862F692F30
:100330000E94DF028B818F5F8B838B81883090F2EC
:1003400080E161E00E94DF0281E160E00E94DF0263
:1003500082E161E00E94DF021A82198206C0000079
:1003600089819A8101969A83898389819A8151E052
:10037000843F9507A0F382E160E00E94DF028C8158
:100380009D8101969D838C83EC81FD8180818823F2
:1003900009F0A6CF80E00F900F900F900F900F9074
:1003A000CF91DF910895DF93CF9300D000D0CDB7E8
:1003B000DEB79C838B8380E160E00E94DF0281E1F5
:1003C00061E00E94DF028FE060E00E947D032B81EC
:1003D0003C818FE0B9010E9488021A82198206C00E
:1003E000000089819A8101969A83898389819A8103
:1003F00021E0843F9207A0F38FE061E00E947D033B
:1004000080E00F900F900F900F90CF91DF910895A3
:10041000DF93CF9300D000D000D0CDB7DEB79B8361
:100420008A836C838C81882F90E00896880F991FAF
:10043000880F991F880F991F0E94AD0019820EC066
:100440008981282F30E08A819B81FC01E20FF31F14
:1004500080810E94090189818F5F89838981883029
:1004600078F31E821D828C81883020F481E090E038
:100470009E838D83ED81FE81E659FF4F8081269614
:100480000FB6F894DEBF0FBECDBFCF91DF910895B8
:10049000DF93CF93CDB7DEB7E0917400F091750094
:1004A0008FE88083E0917600F09177008FEF808372
:1004B000E0917800F09179008FEF8083E0917A00ED
:1004C000F0917B008BE78083A0916C00B0916D0070
:1004D000E0916C00F0916D008081807780688C9352
:1004E000E0916E00F0916F001082E0917000F09149
:1004F00071001082A0917200B0917300E0917200BF
:10050000F0917300808184788C93CF91DF9108956E
:10051000DF93CF93CDB7DEB727970FB6F894DEBF42
:100520000FBECDBF8B837D836C838B818F3180F534
:100530008B818695869586958A838B818770898342
:100540008A81882F90E0880F991FFC01E458FF4FA3
:100550000190F081E02D8081482F50E08981282F83
:1005600030E081E090E002C0880F991F2A95E2F701
:100570009A01282339238981882F90E0A90102C09C
:10058000559547958A95E2F7CA01EC81FD818083F4
:100590001F821E828B81803220F081E090E09F8359
:1005A0008E83EE81FF81E05AFF4F808127960FB640
:1005B000F894DEBF0FBECDBFCF91DF910895DF93DA
:1005C000CF9300D000D00F92CDB7DEB78C836D8370
:1005D00081E08B838C818695869586958A838C8134
:1005E000877089838C81803210F01B8233C08A81AE
:1005F000882F90E0880F991FFC01E459FF4FA081DC
:10060000B1818981282F30E081E090E002C0880F1D
:10061000991F2A95E2F7282F20958A81882F90E04C
:10062000880F991FFC01E459FF4F0190F081E02DE4
:100630008081422F48238D81282F30E08981882FA7
:1006400090E0B90102C0660F771F8A95E2F7CB01EF
:10065000842B8C938B810F900F900F900F900F90A5
:10066000CF91DF910895DF93CF9300D000D0CDB725
:10067000DEB78A837C836B8381E089838A818430BF
:1006800080F48A81882F90E0880F991FFC01E4583C
:10069000FF4F0190F081E02D8081EB81FC81808310
:1006A00001C0198289810F900F900F900F90CF9108
:1006B000DF910895DF93CF9300D00F92CDB7DEB7CF
:1006C0008A836B8381E089838A81843070F48A8194
:1006D000882F90E0880F991FFC01E459FF4F01908B
:1006E000F081E02D8B81808301C0198289810F9078
:1006F0000F900F90CF91DF910895DF93CF9300D0AB
:1007000000D00F92CDB7DEB78C836D8381E08B83F1
:100710008C818695869586958A838C81877089835E
:100720008C81803210F01B8233C08A81882F90E048
:10073000880F991FFC01EC58FF4FA081B18189817E
:10074000282F30E081E090E002C0880F991F2A95A1
:10075000E2F7282F20958A81882F90E0880F991F33
:10076000FC01EC58FF4F0190F081E02D8081422F79
:1007700048238D81282F30E08981882F90E0B901AE
:1007800002C0660F771F8A95E2F7CB01842B8C930A
:100790008B810F900F900F900F900F90CF91DF9162
:1007A0000895DF93CF9300D00F92CDB7DEB78A8341
:1007B0006B8381E089838A81843070F48A81882FF9
:1007C00090E0880F991FFC01EC58FF4F0190F081D9
:1007D000E02D8B81808301C0198289810F900F9059
:1007E0000F90CF91DF910895DF93CF9300D000D089
:1007F00000D0CDB7DEB78C837E836D8381E08B83A1
:100800008C818695869586958A838C81877089836D
:100810008C81803210F01B8228C08A81882F90E062
:10082000880F991FFC01EC58FF4F0190F081E02DDB
:100830008081482F50E08981282F30E081E090E0CE
:1008400002C0880F991F2A95E2F79A0128233923BD
:100850008981882F90E0A90102C0559547958A9516
:10086000E2F7CA01ED81FE8180838B8126960FB667
:10087000F894DEBF0FBECDBFCF91DF910895DF9317
:10088000CF9300D000D0CDB7DEB78A837C836B8353
:1008900081E089838A81843080F48A81882F90E086
:1008A000880F991FFC01E458FF4F0190F081E02D63
:1008B0008081EB81FC81808301C0198289810F9046
:1008C0000F900F900F90CF91DF910895DF93CF930A
:1008D000CDB7DEB7A3E5B0E0E3E5F0E08081836368
:1008E0008C93A9E5B0E0E9E5F0E0808183608C932A
:1008F00084E090E090938A0080938900CF91DF910B
:100900000895DF93CF9300D000D0CDB7DEB79C839E
:100910008B83209184003091850080918900909193
:100920008A00AC01249FC001259F900D349F900D3B
:1009300011249A83898329813A818B819C81821732
:10094000930718F481E0809388000F900F900F9028
:100950000F90CF91DF910895DF93CF93CDB7DEB79E
:1009600010928500109284001092870010928600E9
:10097000CF91DF910895DF93CF93CDB7DEB710927B
:100980008800CF91DF910895DF93CF93CDB7DEB785
:10099000A3E5B0E0E3E5F0E0808183638C93CF9141
:1009A000DF910895DF93CF93CDB7DEB7A3E5B0E035
:1009B000E3E5F0E08081887F8C93CF91DF9108950B
:1009C000DF93CF93CDB7DEB780918800CF91DF91D1
:1009D0000895DF93CF930F92CDB7DEB78983ECE50F
:1009E000F0E0898180830F90CF91DF9108951F926D
:1009F0000F920FB60F9211248F939F93DF93CF9393
:100A0000CDB7DEB7809184009091850001969093D8
:100A1000850080938400CF91DF919F918F910F90FB
:100A20000FBE0F901F9018951F920F920FB60F9246
:100A300011248F939F93DF93CF93CDB7DEB780912F
:100A4000860090918700019690938700809386009E
:100A5000CF91DF919F918F910F900FBE0F901F90BC
:100A60001895DF93CF9300D000D0CDB7DEB71C82AE
:100A70001A820E9448020E94660478948CE161E028
:100A80000E94DF028CE160E00E94DF02F7CFF89461
:020A9000FFCF96
:100A9200010008090A0B0C0D0E0F00013B00380083
:100AA200350032003A003700340031003B00380094
:040AB20035003200D9
:00000001FF
