:100000000C942A000C9447000C9447000C94470071
:100010000C9447000C9447000C9447000C94470044
:100020000C9447000C9447000C9447000C94470034
:100030000C9447000C9447000C9447000C94470024
:100040000C9447000C9447000C9447000C94470014
:100050000C94470011241FBECFE5D8E0DEBFCDBF12
:1000600010E0A0E6B0E0E8ECF7E102C005900D92E8
:10007000A039B107D9F710E0A0E9B0E001C01D92A6
:10008000AA39B107E1F70E94A3050C94E20B0C9486
:100090000000EF92FF920F931F937B018C0120E0F1
:1000A00030E040E05FE40E94490388238CF0C801FF
:1000B000B70120E030E040E05FE40E94C1010E940F
:1000C000A9039B01AC01205030404040504806C07D
:1000D000C801B7010E94A9039B01AC01B901CA0183
:1000E0001F910F91FF90EF900895A0E0B0E0EBE733
:1000F000F0E00C94AB0BDC012B01FA019C919230E7
:1001000008F439C1EB018881823008F433C194309E
:1001100069F4843009F02FC111969C91119789815F
:10012000981709F428C1A0E6B0E025C1843009F48D
:1001300021C18230A9F4923009F01DC19A01AD01AC
:1001400088E0EA010990AE01E90109929E0181501F
:10015000C1F7E201898111969C918923818308C1AD
:10016000923009F407C112962D903C901397EB0141
:100170008A819B811496AD90BD90CD90DC901797AD
:10018000EC80FD800E811F819101281B390BB90184
:1001900037FF04C066277727621B730B6032710537
:1001A0000CF061C0121613066CF537014801062EDB
:1001B00004C096948794779467940A94D2F721E0C8
:1001C00030E040E050E004C0220F331F441F551FB1
:1001D0006A95D2F721503040404050402E213F21B7
:1001E00040235123211531054105510521F021E01E
:1001F00030E040E050E079018A01E628F72808293C
:1002000019293CC0232BD1F1260E371E350146019A
:10021000062E04C096948794779467940A94D2F734
:1002200021E030E040E050E004C0220F331F441FC3
:10023000551F6A95D2F721503040404050402A2146
:100240003B214C215D21211531054105510521F04E
:1002500021E030E040E050E059016A01A628B728CB
:10026000C828D9280BC0821593052CF01C01AA249C
:10027000BB24650103C0EE24FF24870111969C91E5
:10028000D20111968C91981709F445C0992339F041
:10029000A80197012A193B094C095D0906C0A6016E
:1002A00095012E193F09400B510B57FD08C01182D3
:1002B0003382228224833583468357831DC081E0A5
:1002C00081833382228288279927DC01821B930B4A
:1002D000A40BB50B84839583A683B7830DC0220F2F
:1002E000331F441F551F24833583468357838281E0
:1002F000938101979383828324813581468157813D
:10030000DA01C9010197A109B1098F5F9F4FAF4F72
:10031000BF4328F30BC0918333822282EA0CFB1C7B
:100320000C1D1D1DE482F5820683178383E0808304
:10033000248135814681578157FF1AC0C901AA27F8
:1003400097FDA095BA2F81709070A070B0705695EF
:10035000479537952795822B932BA42BB52B848318
:100360009583A683B7838281938101969383828349
:10037000DF0101C0D201CD01CDB7DEB7E2E10C94BF
:10038000C70BA0E2B0E0E7ECF1E00C94B70B698397
:100390007A838B839C832D833E834F835887E9E048
:1003A000EE2EF12CEC0EFD1ECE010196B7010E943F
:1003B000D2048E010F5E1F4FCE010596B8010E9438
:1003C000D2048A8991E089278A8BC701B801AE01DE
:1003D000475E5F4F0E9475000E94FD03A096E6E015
:1003E0000C94D30BA0E2B0E0E8EFF1E00C94B70B73
:1003F00069837A838B839C832D833E834F835887C5
:10040000F9E0EF2EF12CEC0EFD1ECE010196B701A6
:100410000E94D2048E010F5E1F4FCE010596B801D7
:100420000E94D204C701B801AE01475E5F4F0E942F
:1004300075000E94FD03A096E6E00C94D30BA0E2A9
:10044000B0E0E5E2F2E00C94AB0B69837A838B8336
:100450009C832D833E834F835887CE010196BE0136
:10046000675F7F4F0E94D204CE010596BE016F5E8A
:100470007F4F0E94D2049985923088F0898982301A
:10048000C8F0943019F4823051F404C0843029F457
:10049000923081F480E690E0C6C0923049F420E0CA
:1004A0009A858A89981321E02A87CE010996BBC0D4
:1004B000823049F420E09A858A89981321E02A8BBA
:1004C000CE014196B0C02D843E844F8458886D88FB
:1004D0007E888F88988CEE24FF248701AA24BB2471
:1004E000650140E050E060E070E0E0E0F0E0C10174
:1004F00081709070892BE9F0E60CF71C081D191D1E
:100500009A01AB012A0D3B1D4C1D5D1D80E090E062
:10051000A0E0B0E0E614F7040805190520F481E036
:1005200090E0A0E0B0E0BA01A901480F591F6A1F8E
:100530007B1FAA0CBB1CCC1CDD1C97FE08C081E0F5
:1005400090E0A0E0B0E0A82AB92ACA2ADB2A3196B6
:10055000E032F10549F0660C771C881C991C569412
:10056000479437942794C3CFFA85EA892B893C892D
:100570008B859C85280F391F2E5F3F4F17C0CA01FE
:1005800081709070892B61F016950795F794E79428
:1005900080E090E0A0E0B0E8E82AF92A0A2B1B2BC3
:1005A00076956795579547952F5F3F4F77FDE7CF36
:1005B0000CC0440F551F661F771F17FD4160EE0CDE
:1005C000FF1C001F111F21503040403090E05907A0
:1005D00090E0690790E4790760F32B8F3C8FDB0193
:1005E000CA018F779070A070B07080349105A1051A
:1005F000B10561F447FD0AC0E114F10401051105DC
:1006000029F0405C5F4F6F4F7F4F40781A8EFE1786
:1006100011F081E08A8F4D8F5E8F6F8F78A383E01A
:10062000898FCE0149960E94FD03A096E2E10C94C9
:10063000C70BA8E1B0E0EFE1F3E00C94B70B6983DE
:100640007A838B839C832D833E834F83588789E0F5
:10065000E82EF12CEC0EFD1ECE010196B7010E9492
:10066000D2048E010F5E1F4FCE010596B8010E9485
:10067000D2048985823040F08989823028F0C70110
:10068000B8010E944A0501C08FEF6896E6E00C941D
:10069000D30BA8E1B0E0EFE4F3E00C94B70B69836F
:1006A0007A838B839C832D833E834F83588789E095
:1006B000E82EF12CEC0EFD1ECE010196B7010E9432
:1006C000D2048E010F5E1F4FCE010596B8010E9425
:1006D000D2048985823040F08989823028F0C701B0
:1006E000B8010E944A0501C08FEF6896E6E00C94BD
:1006F000D30BA8E1B0E0EFE7F3E00C94B70B69830C
:100700007A838B839C832D833E834F83588789E034
:10071000E82EF12CEC0EFD1ECE010196B7010E94D1
:10072000D2048E010F5E1F4FCE010596B8010E94C4
:10073000D2048985823040F08989823028F0C7014F
:10074000B8010E944A0501C081E06896E6E00C9479
:10075000D30BACE0B0E0EFEAF3E00C94BB0B6983A1
:100760007A838B839C83CE010196BE016B5F7F4FA2
:100770000E94D2048D81823061F1823050F1843048
:1007800021F48E81882351F12EC02F81388537FDC9
:1007900020C06E812F3131051CF06623F9F023C093
:1007A0008EE190E0821B930B29853A854B855C8511
:1007B00004C056954795379527958A95D2F76623B5
:1007C000B1F050954095309521953F4F4F4F5F4F79
:1007D0000EC020E030E040E050E009C02FEF3FEFD6
:1007E0004FEF5FE704C020E030E040E050E8B9019F
:1007F000CA012C96E2E00C94D70BDF92EF92FF92A5
:100800000F931F93FC01E480F58006811781D1804E
:100810008081823048F480E090E0A0E1B0E0E82AF6
:10082000F92A0A2B1B2BA5C0843009F49FC0823003
:1008300021F4EE24FF24870105C0E114F104010531
:10084000110519F4E0E0F0E096C0628173819FEF3A
:10085000623879070CF05BC022E83FEF261B370BAC
:100860002A3131052CF020E030E040E050E02AC091
:10087000B801A701022E04C0769567955795479554
:100880000A94D2F781E090E0A0E0B0E004C0880FC5
:10089000991FAA1FBB1F2A95D2F70197A109B10979
:1008A0008E219F21A023B1230097A105B10521F03E
:1008B00081E090E0A0E0B0E09A01AB01282B392B59
:1008C0004A2B5B2BDA01C9018F779070A070B07052
:1008D00080349105A105B10539F427FF09C0205CDA
:1008E0003F4F4F4F5F4F04C0215C3F4F4F4F5F4F13
:1008F000E0E0F0E02030A0E03A07A0E04A07A0E402
:100900005A0710F0E1E0F0E079018A0127C0603871
:10091000710564F5FB01E158FF4FD801C7018F77DE
:100920009070A070B07080349105A105B10539F4C4
:10093000E7FE0DC080E490E0A0E0B0E004C08FE3EB
:1009400090E0A0E0B0E0E80EF91E0A1F1B1F17FFA1
:1009500005C016950795F794E794319687E01695AC
:100960000795F794E7948A95D1F705C0EE24FF2404
:100970008701EFEFF0E06E2F679566276795902F60
:100980009F77D794DD24D7948E2F8695492F462BB9
:10099000582F5D29B701CA011F910F91FF90EF9069
:1009A000DF900895FC01DB01408151812281622F9B
:1009B0006F7770E0221F2227221F9381892F880FD3
:1009C000822B282F30E0991F9927991F11969C930D
:1009D000119721153105A9F54115510561057105DD
:1009E00011F482E037C082E89FEF13969C938E93B8
:1009F00012979A01AB0167E0220F331F441F551F66
:100A00006A95D1F783E08C930DC0220F331F441FEA
:100A1000551F12968D919C911397019713969C9355
:100A20008E931297203080E0380780E0480780E4FA
:100A3000580758F314962D933D934D935C93179755
:100A400008952F3F310579F4411551056105710570
:100A500019F484E08C93089564FF03C081E08C93C3
:100A600012C01C9210C02F57304013963C932E9307
:100A7000129783E08C9387E0440F551F661F771F02
:100A80008A95D1F7706414964D935D936D937C9322
:100A9000179708951F93DC01FB019C91923008F495
:100AA00047C08081823008F443C0943051F41196DD
:100AB0001C91843099F58181682F70E0611B710968
:100AC0003FC0843021F0923031F48230B9F181811D
:100AD000882389F12DC011961C9111978230F1F075
:100AE00081811817D9F412962D913C911397828128
:100AF00093818217930794F028173907BCF0149656
:100B00008D919D910D90BC91A02D248135814681C0
:100B10005781281739074A075B0718F4112341F05A
:100B20000AC082179307A407B50740F4112319F0F0
:100B300061E070E005C06FEF7FEF02C060E070E041
:100B4000CB011F910895DF93CF93CDB7DEB72F97D9
:100B50000FB6F894DEBF0FBECDBF0E949D0882E0A5
:100B600064E00E94AE088DE690E00E94190982E7D9
:100B700090E00E94F5088091680080939500809134
:100B80006800809396008091680080939700809120
:100B900068008093980085E990E00E94B8090E945F
:100BA000EB098823E1F70E941A0A80939400809150
:100BB00094000E94A309809394000E943D0A80E063
:100BC00090E8ABE3B5E48B879C87AD87BE876B85E8
:100BD0007C858D859E8520E030E04AE753E40E94C5
:100BE0001F02DC01CB018F839887A987BA876F81A9
:100BF000788589859A8520E030E040E85FE30E94AF
:100C0000790388232CF481E090E09E838D833FC09C
:100C10006F81788589859A8520E03FEF4FE757E41B
:100C20000E94190318164CF56B857C858D859E8571
:100C300020E030E040E251E40E941F02DC01CB01E1
:100C4000BC01CD010E944900DC01CB019E838D8354
:100C50000FC089E190E09C838B838B819C810197FD
:100C6000F1F79C838B838D819E8101979E838D8379
:100C70008D819E81009769F714C06F817885898581
:100C80009A850E944900DC01CB019E838D838D8172
:100C90009E819A83898389819A810197F1F79A834A
:100CA0008983809168008F5F8093680064CFDF93B1
:100CB000CF93CDB7DEB7E0917F00F09180008FEE4B
:100CC0008083E0918100F09182008FEF8083E0913A
:100CD0008300F09184008FEF8083E0918500F09194
:100CE00086008FEF8083A0917700B0917800E0912B
:100CF0007700F0917800808180718C93E091790089
:100D0000F0917A001082E0917B00F0917C001082DB
:100D1000E0917D00F0917E001082CF91DF910895E7
:100D2000DF93CF9300D000D000D0CDB7DEB78C8357
:100D30007E836D8381E08B838C818F3180F58C8104
:100D40008695869586958A838C81877089838A812A
:100D5000882F90E0880F991FFC01E957FF4F019001
:100D6000F081E02D8081482F50E08981282F30E0EC
:100D700081E090E002C0880F991F2A95E2F79A015E
:100D8000282339238981882F90E0A90102C0559535
:100D900047958A95E2F7CA01ED81FE81808381E063
:100DA0008B838B8126960FB6F894DEBF0FBECDBF26
:100DB000CF91DF910895DF93CF9300D000D000D082
:100DC000CDB7DEB78D836E8381E08C838D818032D9
:100DD00010F01C8264C08D818695869586958B83E4
:100DE0008D8187708A838B81882F90E0880F991F6F
:100DF000FC01E158FF4F0190F081E02D8081482FE8
:100E000050E08A81282F30E081E090E002C0880F16
:100E1000991F2A95E2F79A01282339238A81882F7E
:100E200090E0A90102C0559547958A95E2F7CA015D
:100E300089838981813099F58B81882F90E0880F93
:100E4000991FFC01E958FF4FA081B1818A81282FA9
:100E500030E081E090E002C0880F991F2A95E2F708
:100E6000282F20958B81882F90E0880F991FFC01F7
:100E7000E958FF4F0190F081E02D8081422F4823F7
:100E80008E81282F30E08A81882F90E0B90102C03E
:100E9000660F771F8A95E2F7CB01842B8C938C81A8
:100EA00026960FB6F894DEBF0FBECDBFCF91DF916F
:100EB0000895DF93CF9300D000D0CDB7DEB78A83FB
:100EC0007C836B8381E089838A81843080F48A818A
:100ED000882F90E0880F991FFC01E957FF4F019080
:100EE000F081E02D8081EB81FC81808301C019823B
:100EF00089810F900F900F900F90CF91DF910895FF
:100F0000DF93CF9300D000D0CDB7DEB78B836C8357
:100F100081E08A838B818430F0F48B81882F90E08C
:100F2000880F991FFC01E158FF4F0190F081E02DDF
:100F30008081898389818F3F79F48B81882F90E02C
:100F4000880F991FFC01E958FF4F0190F081E02DB7
:100F50008C81808301C01A828A810F900F900F903C
:100F60000F90CF91DF910895DF93CF9300D000D001
:100F70000F92CDB7DEB78C836D8381E08B838C813C
:100F8000803210F01B823BC08C81869586958695B9
:100F90008A838C81877089838A81882F90E0880F6B
:100FA000991FFC01E158FF4FA081B1818981282F51
:100FB00030E081E090E002C0880F991F2A95E2F7A7
:100FC000282F20958A81882F90E0880F991FFC0197
:100FD000E158FF4F0190F081E02D8081422F48239E
:100FE0008D81282F30E08981882F90E0B90102C0DF
:100FF000660F771F8A95E2F7CB01842B8C938B8148
:101000000F900F900F900F900F90CF91DF91089558
:10101000DF93CF9300D00F92CDB7DEB78A836B8377
:1010200081E089838A81843070F48A81882F90E0FE
:10103000880F991FFC01E158FF4F0190F081E02DCE
:101040008B81808301C0198289810F900F900F904E
:10105000CF91DF910895DF93CF9300D000D000D0DF
:10106000CDB7DEB78C837E836D8381E08B838C81EB
:10107000803210F01B8230C08C81869586958695D3
:101080008A838C81877089838A81882F90E0880F7A
:10109000991FFC01E158FF4F0190F081E02D808104
:1010A000482F50E08981282F30E081E090E002C095
:1010B000880F991F2A95E2F79A01282339238981FD
:1010C000882F90E0A90102C0559547958A95E2F7CF
:1010D000CA01ED81FE8180838B8126960FB6F8943C
:1010E000DEBF0FBECDBFCF91DF910895DF93CF93C9
:1010F00000D000D0CDB7DEB78A837C836B8381E0DC
:1011000089838A81843080F48A81882F90E0880FD7
:10111000991FFC01E957FF4F0190F081E02D80817C
:10112000EB81FC81808301C0198289810F900F902F
:101130000F900F90CF91DF910895DF93CF93CDB7AC
:10114000DEB70E94900B80E060E00E94DB0681E049
:1011500061E00E94DB06CF91DF910895DF93CF938A
:1011600000D0CDB7DEB789836A838A8180939900E6
:1011700085E069810E942C0B81E160E00E942C0BCC
:101180009091990082E1692F0E942C0B83E160E02D
:101190000E942C0B84E160E00E942C0B85E160E052
:1011A0000E942C0B86E160E00E942C0B86E066E03A
:1011B0000E942C0B80E068E00E942C0B81E060E034
:1011C0000E942C0B82E063E00E942C0B84E06FE411
:1011D0000E942C0B8CE160E00E942C0B0E943D0AC7
:1011E0000F900F90CF91DF910895DF93CF9300D0B0
:1011F000CDB7DEB79A83898380E060E00E94DB068A
:1012000029813A818BE0B90145E00E946D0B80E0B5
:1012100061E00E94DB060F900F90CF91DF9108955F
:10122000DF93CF93CDB7DEB780919900CF91DF9157
:101230000895DF93CF9300D0CDB7DEB79A8389832B
:1012400029813A818AE0B90145E00E946D0B29812C
:101250003A8180E1B90145E00E946D0B0F900F903B
:10126000CF91DF910895DF93CF9300D0CDB7DEB754
:101270000E94040A89838981882F90E0807490708D
:10128000009719F081E08A8307C00E9452091A82F0
:10129000882311F481E08A838A810F900F90CF9187
:1012A000DF910895DF93CF930F92CDB7DEB787E13B
:1012B0009E012F5F3F4FB90141E00E94480B898199
:1012C00081700F90CF91DF910895DF93CF930F92AC
:1012D000CDB7DEB781E060E00E94DB0680E60E94C9
:1012E0007D0A80E00E947D0A898381E061E00E949E
:1012F000DB0689810F90CF91DF910895DF93CF9323
:1013000000D0CDB7DEB79A83898381E060E00E9488
:10131000DB0681E60E947D0A2091990089819A81ED
:1013200049815A81BA01422F0E94D10A81E061E0CD
:101330000E94DB0687E060E40E942C0B0F900F9068
:10134000CF91DF910895DF93CF930F92CDB7DEB7A2
:1013500088E09E012F5F3F4FB90141E00E94480B9A
:1013600089818F70898389810F90CF91DF91089552
:10137000DF93CF9300D0CDB7DEB79A83898380E027
:1013800060E00E94DB060E945F0A81E060E00E944C
:10139000DB0681EE0E947D0A81E061E00E94DB06AF
:1013A00081E060E00E94DB0680EA0E947D0A2091D5
:1013B000990089819A81622F0E94080B81E061E087
:1013C0000E94DB0680E061E00E94DB060F900F9038
:1013D000CF91DF910895DF93CF9300D0CDB7DEB7E3
:1013E0000E94040A89838981882F90E0807390701D
:1013F000009711F01A8202C081E08A838A810F90DF
:101400000F90CF91DF910895DF93CF930F92CDB7D7
:10141000DEB781E060E00E94DB068FEF0E947D0A6C
:10142000898381E061E00E94DB0689810F90CF9182
:10143000DF910895DF93CF9300D0CDB7DEB70E9440
:10144000040A89838981882F90E0807290700097C8
:1014500011F01A820CC08981882F90E08071907001
:10146000009719F081E08A8302C08FEF8A838A8116
:101470000F900F90CF91DF910895DF93CF93CDB769
:10148000DEB781E060E00E94DB0682EE0E947D0A0A
:1014900081E061E00E94DB0687E060E70E942C0BA0
:1014A00080E060E00E94DB0680E06BE00E942C0B95
:1014B00080E061E00E94DB06CF91DF910895DF9329
:1014C000CF93CDB7DEB787E060E70E942C0B80E0BA
:1014D0006AE00E942C0BCF91DF910895DF93CF93A8
:1014E000CDB7DEB780E060E00E94DB0680E068E018
:1014F0000E942C0BCF91DF910895DF93CF9300D002
:1015000000D0CDB7DEB78C831A8219821B8282E0AD
:1015100060E00E94DB061A8239C08C81482F50E0BF
:101520008A81282F30E087E090E0821B930B9A019C
:1015300002C0359527958A95E2F7C90181709070B0
:10154000882329F083E061E00E94DB0604C083E089
:1015500060E00E94DB0682E061E00E94DB06898198
:10156000880F89839E012D5F3F4F84E0B9010E945F
:1015700090068B81882319F089818160898382E0BC
:1015800060E00E94DB068A818F5F8A838A818830CF
:1015900020F289810F900F900F900F90CF91DF91E3
:1015A00008950F931F93DF93CF9300D000D000D006
:1015B000CDB7DEB79B838A837D836C834E8319828C
:1015C00018C08981282F30E08C819D818C01020F09
:1015D000131F8981282F30E08A819B81FC01E20F53
:1015E000F31F80810E947D0AF801808389818F5FCB
:1015F000898399818E81981720F326960FB6F894E7
:10160000DEBF0FBECDBFCF91DF911F910F91089527
:10161000DF93CF9300D000D0CDB7DEB79B838A8312
:101620006C8319820EC08981282F30E08A819B81CA
:10163000FC01E20FF31F80810E947D0A89818F5F88
:10164000898399818C81981770F30F900F900F9078
:101650000F90CF91DF910895DF93CF9300D0CDB756
:10166000DEB789836A8381E060E00E94DB068981BE
:101670008F7180620E947D0A8A810E947D0A81E0CA
:1016800061E00E94DB060F900F90CF91DF910895EB
:10169000DF93CF9300D000D0CDB7DEB789837B83B3
:1016A0006A834C8381E060E00E94DB0689818F7150
:1016B0000E947D0A8A819B812A813B81B9014C81EC
:1016C0000E94D10A81E061E00E94DB060F900F903A
:1016D0000F900F90CF91DF910895DF93CF9300D0BB
:1016E00000D0CDB7DEB789837B836A834C8381E0EA
:1016F00060E00E94DB0689818F7180620E947D0A12
:101700008A819B816C810E94080B81E061E00E94CC
:10171000DB060F900F900F900F90CF91DF910895FF
:10172000DF93CF93CDB7DEB780E061E00E94B407CE
:1017300081E061E00E94B40782E061E00E94B407AA
:1017400083E061E00E94B40784E060E00E94B40797
:10175000CF91DF9108952F923F924F925F926F92B7
:101760007F928F929F92AF92BF92CF92DF92EF9231
:10177000FF920F931F93CF93DF93CDB7DEB7CA1BB2
:10178000DB0B0FB6F894DEBF0FBECDBF09942A88DD
:10179000398848885F846E847D848C849B84AA8485
:1017A000B984C884DF80EE80FD800C811B81AA8112
:1017B000B981CE0FD11D0FB6F894DEBF0FBECDBFDD
:0817C000ED010895F894FFCF3C
:1017C800000000000000000001FFFFFFFFE7E7E75F
:1017D800E7E7D7D7D7D7D73B003800350032003AEC
:1017E8000037003400310039003600330030000083
:00000001FF
