:100000000C942A000C9447000C9447000C94470071
:100010000C9447000C9447000C9447000C94470044
:100020000C9447000C9447000C9447000C94470034
:100030000C9447000C9447000C9447000C94470024
:100040000C9447000C9447000C9447000C94470014
:100050000C94470011241FBECFE5D4E0DEBFCDBF16
:1000600010E0A0E6B0E0E8E7FBE002C005900D92EA
:10007000A238B107D9F710E0A2E8B0E001C01D92A4
:10008000A938B107E1F70E9449000C94BA050C9415
:100090000000DF93CF93CDB7DEB70E9466000E94C9
:1000A000AC0282E064E00E94BD0280E690E00E9423
:1000B000280385E690E00E9404030E9442038823FF
:1000C000E1F384E890E00E948D03F7CFDF93CF93B4
:1000D000CDB7DEB7E0917200F09173008FEE8083B0
:1000E000E0917400F09175008FEF8083E0917600CD
:1000F000F09177008FEF8083E0917800F0917900A4
:100100008FEF8083A0916A00B0916B00E0916A004C
:10011000F0916B00808180718C93E0916C00F09184
:100120006D001082E0916E00F0916F001082E091FE
:100130007000F09171001082CF91DF910895DF93EC
:10014000CF9300D000D000D0CDB7DEB78C837E83B4
:100150006D8381E08B838C818F3180F58C818695D6
:10016000869586958A838C81877089838A81882F7A
:1001700090E0880F991FFC01E658FF4F0190F08135
:10018000E02D8081482F50E08981282F30E081E0E8
:1001900090E002C0880F991F2A95E2F79A01282360
:1001A00039238981882F90E0A90102C05595479590
:1001B0008A95E2F7CA01ED81FE81808381E08B831D
:1001C0008B8126960FB6F894DEBF0FBECDBFCF91C0
:1001D000DF910895DF93CF9300D000D000D0CDB74A
:1001E000DEB78D836E8381E08C838D81803210F049
:1001F0001C8264C08D818695869586958B838D81C2
:1002000087708A838B81882F90E0880F991FFC016B
:10021000EE58FF4F0190F081E02D8081482F50E093
:100220008A81282F30E081E090E002C0880F991F7A
:100230002A95E2F79A01282339238A81882F90E0B2
:10024000A90102C0559547958A95E2F7CA018983AD
:100250008981813099F58B81882F90E0880F991FD3
:10026000FC01E659FF4FA081B1818A81282F30E03F
:1002700081E090E002C0880F991F2A95E2F7282FAD
:1002800020958B81882F90E0880F991FFC01E659FB
:10029000FF4F0190F081E02D8081422F48238E8115
:1002A000282F30E08A81882F90E0B90102C0660FC4
:1002B000771F8A95E2F7CB01842B8C938C8126964D
:1002C0000FB6F894DEBF0FBECDBFCF91DF9108957A
:1002D000DF93CF9300D000D0CDB7DEB78A837C8385
:1002E0006B8381E089838A81843080F48A81882FBE
:1002F00090E0880F991FFC01E658FF4F0190F081B4
:10030000E02D8081EB81FC81808301C0198289818D
:100310000F900F900F900F90CF91DF910895DF9382
:10032000CF9300D000D0CDB7DEB78B836C8381E054
:100330008A838B818430F0F48B81882F90E0880F42
:10034000991FFC01EE58FF4F0190F081E02D808154
:10035000898389818F3F79F48B81882F90E0880F82
:10036000991FFC01E659FF4F0190F081E02D8C812F
:10037000808301C01A828A810F900F900F900F9096
:10038000CF91DF910895DF93CF9300D000D00F92EB
:10039000CDB7DEB78C836D8381E08B838C81803217
:1003A00010F01B823BC08C818695869586958A834A
:1003B0008C81877089838A81882F90E0880F991FAC
:1003C000FC01EE58FF4FA081B1818981282F30E0D8
:1003D00081E090E002C0880F991F2A95E2F7282F4C
:1003E00020958A81882F90E0880F991FFC01EE5894
:1003F000FF4F0190F081E02D8081422F48238D81B5
:10040000282F30E08981882F90E0B90102C0660F63
:10041000771F8A95E2F7CB01842B8C938B810F9009
:100420000F900F900F900F90CF91DF910895DF9371
:10043000CF9300D00F92CDB7DEB78A836B8381E074
:1004400089838A81843070F48A81882F90E0880FB4
:10045000991FFC01EE58FF4F0190F081E02D8B8138
:10046000808301C0198289810F900F900F90CF91E6
:10047000DF910895DF93CF9300D000D000D0CDB7A7
:10048000DEB78C837E836D8381E08B838C818032A9
:1004900010F01B8230C08C818695869586958A8364
:1004A0008C81877089838A81882F90E0880F991FBB
:1004B000FC01EE58FF4F0190F081E02D8081482F24
:1004C00050E08981282F30E081E090E002C0880F61
:1004D000991F2A95E2F79A01282339238981882FC9
:1004E00090E0A90102C0559547958A95E2F7CA01A7
:1004F000ED81FE8180838B8126960FB6F894DEBF56
:100500000FBECDBFCF91DF910895DF93CF9300D081
:1005100000D0CDB7DEB78A837C836B8381E089838B
:100520008A81843080F48A81882F90E0880F991F17
:10053000FC01E658FF4F0190F081E02D8081EB81B6
:10054000FC81808301C0198289810F900F900F90E8
:100550000F90CF91DF910895DF93CF93CDB7DEB7A2
:100560000E949F0580E060E00E94EA0081E061E077
:100570000E94EA00CF91DF910895DF93CF9300D0DE
:10058000CDB7DEB789836A838A818093880085E04E
:1005900069810E943B0581E160E00E943B059091EA
:1005A000880082E1692F0E943B0583E160E00E94A0
:1005B0003B0584E160E00E943B0585E160E00E942C
:1005C0003B0586E160E00E943B0586E066E00E9414
:1005D0003B0580E068E00E943B0581E060E00E940E
:1005E0003B0582E063E00E943B0584E06FE40E94EB
:1005F0003B058CE160E00E943B050E944C040F909B
:100600000F90CF91DF910895DF93CF9300D0CDB7B6
:10061000DEB79A83898380E060E00E94EA00298146
:100620003A818BE0B90145E00E947C0580E061E001
:100630000E94EA000F900F90CF91DF910895DF9311
:10064000CF93CDB7DEB780918800CF91DF91089529
:10065000DF93CF9300D0CDB7DEB79A83898329810A
:100660003A818AE0B90145E00E947C0529813A81FE
:1006700080E1B90145E00E947C050F900F90CF9179
:10068000DF910895DF93CF9300D0CDB7DEB70E94FE
:10069000130489838981882F90E08074907000977B
:1006A00019F081E08A8307C00E9461031A828823BF
:1006B00011F481E08A838A810F900F90CF91DF91AE
:1006C0000895DF93CF930F92CDB7DEB787E19E01F8
:1006D0002F5F3F4FB90141E00E945705898181702A
:1006E0000F90CF91DF910895DF93CF930F92CDB705
:1006F000DEB781E060E00E94EA0080E60E948C04A0
:1007000080E00E948C04898381E061E00E94EA001D
:1007100089810F90CF91DF910895DF93CF9300D01F
:10072000CDB7DEB79A83898381E060E00E94EA005A
:1007300081E60E948C042091880089819A814981F8
:100740005A81BA01422F0E94E00481E061E00E94D8
:10075000EA0087E060E40E943B050F900F90CF9184
:10076000DF910895DF93CF930F92CDB7DEB788E086
:100770009E012F5F3F4FB90141E00E9457058981DB
:100780008F70898389810F90CF91DF910895DF93D6
:10079000CF9300D0CDB7DEB79A83898380E060E045
:1007A0000E94EA000E946E0481E060E00E94EA007C
:1007B00081EE0E948C0481E061E00E94EA0081E009
:1007C00060E00E94EA0080EA0E948C042091880088
:1007D00089819A81622F0E94170581E061E00E9461
:1007E000EA0080E061E00E94EA000F900F90CF9154
:1007F000DF910895DF93CF9300D0CDB7DEB70E948D
:10080000130489838981882F90E08073907000970A
:1008100011F01A8202C081E08A838A810F900F90C2
:10082000CF91DF910895DF93CF930F92CDB7DEB7CD
:1008300081E060E00E94EA008FEF0E948C048983CF
:1008400081E061E00E94EA0089810F90CF91DF9101
:100850000895DF93CF9300D0CDB7DEB70E94130485
:1008600089838981882F90E080729070009711F0C1
:100870001A820CC08981882F90E080719070009757
:1008800019F081E08A8302C08FEF8A838A810F90FA
:100890000F90CF91DF910895DF93CF93CDB7DEB75F
:1008A00081E060E00E94EA0082EE0E948C0481E018
:1008B00061E00E94EA0087E060E70E943B0580E07B
:1008C00060E00E94EA0080E06BE00E943B0580E06F
:1008D00061E00E94EA00CF91DF910895DF93CF930A
:1008E000CDB7DEB787E060E70E943B0580E06AE0B5
:1008F0000E943B05CF91DF910895DF93CF93CDB751
:10090000DEB780E060E00E94EA0080E068E00E94DC
:100910003B05CF91DF910895DF93CF9300D000D0B6
:10092000CDB7DEB78C831A8219821B8282E060E029
:100930000E94EA001A8239C08C81482F50E08A81D7
:10094000282F30E087E090E0821B930B9A0102C0D1
:10095000359527958A95E2F7C901817090708823B3
:1009600029F083E061E00E94EA0004C083E060E0D7
:100970000E94EA0082E061E00E94EA008981880F1B
:1009800089839E012D5F3F4F84E0B9010E949F0043
:100990008B81882319F089818160898382E060E0FE
:1009A0000E94EA008A818F5F8A838A81883020F2E0
:1009B00089810F900F900F900F90CF91DF91089544
:1009C0000F931F93DF93CF9300D000D000D0CDB70B
:1009D000DEB79B838A837D836C834E83198218C024
:1009E0008981282F30E08C819D818C01020F131F9B
:1009F0008981282F30E08A819B81FC01E20FF31F5F
:100A000080810E948C04F801808389818F5F8983B3
:100A100099818E81981720F326960FB6F894DEBF41
:100A20000FBECDBFCF91DF911F910F910895DF933E
:100A3000CF9300D000D0CDB7DEB79B838A836C8381
:100A400019820EC08981282F30E08A819B81FC01A8
:100A5000E20FF31F80810E948C0489818F5F89835C
:100A600099818C81981770F30F900F900F900F90D1
:100A7000CF91DF910895DF93CF9300D0CDB7DEB74C
:100A800089836A8381E060E00E94EA0089818F7136
:100A900080620E948C048A810E948C0481E061E063
:100AA0000E94EA000F900F90CF91DF910895DF939D
:100AB000CF9300D000D0CDB7DEB789837B836A8324
:100AC0004C8381E060E00E94EA0089818F710E947E
:100AD0008C048A819B812A813B81B9014C810E94CF
:100AE000E00481E061E00E94EA000F900F900F9017
:100AF0000F90CF91DF910895DF93CF9300D000D076
:100B0000CDB7DEB789837B836A834C8381E060E065
:100B10000E94EA0089818F7180620E948C048A8120
:100B20009B816C810E94170581E061E00E94EA00D0
:100B30000F900F900F900F90CF91DF910895DF935A
:100B4000CF93CDB7DEB780E061E00E94C30181E0C2
:100B500061E00E94C30182E061E00E94C30183E082
:100B600061E00E94C30184E060E00E94C301CF9174
:080B7000DF910895F894FFCF16
:100B7800D7D7D7D7D7E7E7E7E7E73B00380035000F
:100B880032003A00370034003100390036003300B3
:020B980030002B
:00000001FF
