:100000000C942A000C9447000C9447000C94470071
:100010000C9447000C9447000C9447000C94470044
:100020000C9447000C9447000C9447000C94470034
:100030000C9447000C9447000C9447000C94470024
:100040000C9447000C9447000C9447000C94470014
:100050000C94470011241FBECFE5D4E0DEBFCDBF16
:1000600010E0A0E6B0E0E6EFF5E002C005900D92EA
:10007000A238B107D9F710E0A2E8B0E001C01D92A4
:10008000AC38B107E1F70E94DB020C94F9020C9442
:100090000000DF93CF93CDB7DEB7E0917200F0910F
:1000A00073008FEF8083E0917400F09175008FE80A
:1000B0008083E0917600F09177008FEF8083E0916C
:1000C0007800F09179008EEF8083E0916A00F091E2
:1000D0006B001082A0916C00B0916D00E0916C00FB
:1000E000F0916D00808180778C93E0916E00F091AB
:1000F0006F001082A0917000B0917100E0917000CB
:10010000F0917100808181708C93CF91DF9108957F
:10011000DF93CF9300D000D000D0CDB7DEB78C8373
:100120007E836D8381E08B838C818F3180F58C8120
:100130008695869586958A838C81877089838A8146
:10014000882F90E0880F991FFC01E658FF4F01901F
:10015000F081E02D8081482F50E08981282F30E008
:1001600081E090E002C0880F991F2A95E2F79A017A
:10017000282339238981882F90E0A90102C0559551
:1001800047958A95E2F7CA01ED81FE81808381E07F
:100190008B838B8126960FB6F894DEBF0FBECDBF42
:1001A000CF91DF910895DF93CF9300D000D000D09E
:1001B000CDB7DEB78D836E8381E08C838D818032F5
:1001C00010F01C8264C08D818695869586958B8300
:1001D0008D8187708A838B81882F90E0880F991F8B
:1001E000FC01EE58FF4F0190F081E02D8081482FF7
:1001F00050E08A81282F30E081E090E002C0880F33
:10020000991F2A95E2F79A01282339238A81882F9A
:1002100090E0A90102C0559547958A95E2F7CA0179
:1002200089838981813099F58B81882F90E0880FAF
:10023000991FFC01E659FF4FA081B1818A81282FC7
:1002400030E081E090E002C0880F991F2A95E2F724
:10025000282F20958B81882F90E0880F991FFC0113
:10026000E659FF4F0190F081E02D8081422F482315
:100270008E81282F30E08A81882F90E0B90102C05A
:10028000660F771F8A95E2F7CB01842B8C938C81C4
:1002900026960FB6F894DEBF0FBECDBFCF91DF918B
:1002A0000895DF93CF9300D000D0CDB7DEB78A8317
:1002B0007C836B8381E089838A81843080F48A81A6
:1002C000882F90E0880F991FFC01E658FF4F01909E
:1002D000F081E02D8081EB81FC81808301C0198257
:1002E00089810F900F900F900F90CF91DF9108951B
:1002F000DF93CF9300D000D0CDB7DEB78B836C8374
:1003000081E08A838B818430F0F48B81882F90E0A8
:10031000880F991FFC01EE58FF4F0190F081E02DEE
:100320008081898389818F3F79F48B81882F90E048
:10033000880F991FFC01E659FF4F0190F081E02DD5
:100340008C81808301C01A828A810F900F900F9058
:100350000F90CF91DF910895DF93CF9300D000D01D
:100360000F92CDB7DEB78C836D8381E08B838C8158
:10037000803210F01B823BC08C81869586958695D5
:100380008A838C81877089838A81882F90E0880F87
:10039000991FFC01EE58FF4FA081B1818981282F60
:1003A00030E081E090E002C0880F991F2A95E2F7C3
:1003B000282F20958A81882F90E0880F991FFC01B3
:1003C000EE58FF4F0190F081E02D8081422F4823AD
:1003D0008D81282F30E08981882F90E0B90102C0FB
:1003E000660F771F8A95E2F7CB01842B8C938B8164
:1003F0000F900F900F900F900F90CF91DF91089575
:10040000DF93CF9300D00F92CDB7DEB78A836B8393
:1004100081E089838A81843070F48A81882F90E01A
:10042000880F991FFC01EE58FF4F0190F081E02DDD
:100430008B81808301C0198289810F900F900F906A
:10044000CF91DF910895DF93CF9300D000D000D0FB
:10045000CDB7DEB78C837E836D8381E08B838C8107
:10046000803210F01B8230C08C81869586958695EF
:100470008A838C81877089838A81882F90E0880F96
:10048000991FFC01EE58FF4F0190F081E02D808113
:10049000482F50E08981282F30E081E090E002C0B1
:1004A000880F991F2A95E2F79A0128233923898119
:1004B000882F90E0A90102C0559547958A95E2F7EB
:1004C000CA01ED81FE8180838B8126960FB6F89458
:1004D000DEBF0FBECDBFCF91DF910895DF93CF93E5
:1004E00000D000D0CDB7DEB78A837C836B8381E0F8
:1004F00089838A81843080F48A81882F90E0880FF4
:10050000991FFC01E658FF4F0190F081E02D80819A
:10051000EB81FC81808301C0198289810F900F904B
:100520000F900F90CF91DF910895DF93CF93CDB7C8
:10053000DEB7E0E4F0E01082E9E2F0E089E18083F8
:10054000ABE2B0E0EBE2F0E080818C93EAE2F0E035
:1005500088ED8083E0E4F0E080E48083E0E4F0E094
:100560008EE88083CF91DF910895DF93CF930F9230
:10057000CDB7DEB78983EBE2F0E08081882F90E091
:10058000807290700097B9F3ECE2F0E0898180838B
:100590000F90CF91DF910895DF93CF93CDB7DEB762
:1005A000EBE2F0E080818823DCF7ECE2F0E0808190
:1005B000CF91DF910895DF93CF93CDB7DEB70E943F
:1005C00049000E9495020E94E602FDCFDF93CF937F
:1005D000CDB7DEB70E94CC02809383008091830068
:1005E0008D3421F4809160000E94B502CF91DF919B
:0605F0000895F894FFCF0E
:1005F6004D0000000000000000003B003800350000
:1006060032003A003700340031003900360033003A
:020616003000B2
:00000001FF
