:100000000C942A000C9401050C942E050C945B05AD
:100010000C9447000C9447000C9447000C94470044
:100020000C9483070C9447000C9447000C944700F1
:100030000C9447000C9447000C9447000C94A007C4
:100040000C9447000C9447000C9447000C94470014
:100050000C94470011241FBECFE5D8E0DEBFCDBF12
:1000600010E0A0E6B0E0E2E2F1E102C005900D92FE
:10007000AA39B107D9F710E0AAE9B0E001C01D9292
:10008000A23BB107E1F70E94BD070C948F080C94C6
:100090000000DF93CF93CDB7DEB728970FB6F89463
:1000A000DEBF0FBECDBF18861F8206C000008F8145
:1000B0009885019698878F838F81988527E2803174
:1000C0009207A0F380E30E94AD001E821D8206C04D
:1000D00000008D819E8101969E838D838D819E81FE
:1000E00029E0843C9207A0F380E30E94AD001C82CB
:1000F0001B8206C000008B819C8101969C838B83B0
:100100008B819C8121E0843F9207A0F380E30E94D1
:10011000AD0088E30E94AD0086E00E94AD008CE057
:100120000E94AD001A82198206C0000089819A815E
:1001300001969A83898389819A8121E0843F92077D
:10014000A0F38CE30E94AD0028960FB6F894DEBFB2
:100150000FBECDBFCF91DF910895DF93CF9300D035
:1001600000D0CDB7DEB78C831B8229C08B81882F4E
:1001700090E0FC01E05AFF4F60818C81482F50E0F5
:100180008B81282F30E081E090E002C0880F991F1A
:100190002A95E2F79A01282339238B81882F90E052
:1001A000A90102C0559547958A95E2F7CA01982F93
:1001B000862F692F0E94DF028B818F5F8B838B815B
:1001C0008830A0F280E160E00E94DF0281E160E01F
:1001D0000E94DF0282E161E00E94DF021A8219823E
:1001E00006C0000089819A8101969A83898389815A
:1001F0009A8151E0843F9507A0F382E160E00E947C
:10020000DF0280E00F900F900F900F90CF91DF9161
:100210000895DF93CF9300D000D0CDB7DEB78C83A5
:100220001B8229C08B81882F90E0FC01E05AFF4F90
:1002300060818C81482F50E08B81282F30E081E055
:1002400090E002C0880F991F2A95E2F79A012823AF
:1002500039238B81882F90E0A90102C055954795DD
:100260008A95E2F7CA01982F862F692F0E94DF0234
:100270008B818F5F8B838B818830A0F280E161E07E
:100280000E94DF0281E160E00E94DF0282E161E022
:100290000E94DF021A82198206C0000089819A81B9
:1002A00001969A83898389819A8151E0843F9507D9
:1002B000A0F382E160E00E94DF0280E00F900F90E7
:1002C0000F900F90CF91DF910895DF93CF9300D0DF
:1002D00000D00F92CDB7DEB79D838C831B8254C0B4
:1002E0001B822BC08B81882F90E0FC01E05AFF4FCE
:1002F0006081EC81FD818081482F50E08B81282F27
:1003000030E081E090E002C0880F991F2A95E2F763
:100310009A01282339238B81882F90E0A90102C0FC
:10032000559547958A95E2F7CA01982F862F692F30
:100330000E94DF028B818F5F8B838B81883090F2EC
:1003400080E161E00E94DF0281E160E00E94DF0263
:1003500082E161E00E94DF021A82198206C0000079
:1003600089819A8101969A83898389819A8151E052
:10037000843F9507A0F382E160E00E94DF028C8158
:100380009D8101969D838C83EC81FD8180818823F2
:1003900009F0A6CF80E00F900F900F900F900F9074
:1003A000CF91DF910895DF93CF9300D000D0CDB7E8
:1003B000DEB79C838B8380E160E00E94DF0281E1F5
:1003C00061E00E94DF028FE060E00E94B8032B81B1
:1003D0003C818FE0B9010E9494021A82198206C002
:1003E000000089819A8101969A83898389819A8103
:1003F00021E0843F9207A0F38FE061E00E94B80300
:1004000080E00F900F900F900F90CF91DF910895A3
:10041000DF93CF9300D000D000D0CDB7DEB79B8361
:100420008A836C838C81882F90E00896880F991FAF
:10043000880F991F880F991F0E94AD0019820EC066
:100440008981282F30E08A819B81FC01E20FF31F14
:1004500080810E94090189818F5F89838981883029
:1004600078F31E821D828C81883020F481E090E038
:100470009E838D83ED81FE81E859FF4F8081269612
:100480000FB6F894DEBF0FBECDBFCF91DF910895B8
:10049000DF93CF9300D0CDB7DEB7E0917200F0913B
:1004A00073008FE08083E0917400F09175008FEF0E
:1004B0008083E0917600F09177008FEF8083E09168
:1004C0007800F09179008BEF8083A0916A00B09161
:1004D0006B00E0916A00F0916B008081807F8C93CB
:1004E000E0916C00F0916D008081E0916C00F091E2
:1004F0006D001082E0916E00F0916F008081E091BC
:100500006E00F0916F001082A0917000B0917100A8
:10051000E0917000F0917100808184708C930F9055
:100520000F90CF91DF910895DF93CF9300D000D04B
:1005300000D0CDB7DEB78C837E836D8381E08B8363
:100540008C818F3180F58C818695869586958A83FE
:100550008C81877089838A81882F90E0880F991F0A
:10056000FC01E658FF4F0190F081E02D8081482F7B
:1005700050E08981282F30E081E090E002C0880FB0
:10058000991F2A95E2F79A01282339238981882F18
:1005900090E0A90102C0559547958A95E2F7CA01F6
:1005A000ED81FE81808381E08B838B8126960FB65F
:1005B000F894DEBF0FBECDBFCF91DF910895DF93DA
:1005C000CF9300D000D000D0CDB7DEB78D836E833F
:1005D00081E08C838D81803210F01C8264C08D811B
:1005E0008695869586958B838D8187708A838B818E
:1005F000882F90E0880F991FFC01EE58FF4F019063
:10060000F081E02D8081482F50E08A81282F30E052
:1006100081E090E002C0880F991F2A95E2F79A01C5
:10062000282339238A81882F90E0A90102C055959B
:1006300047958A95E2F7CA0189838981813099F5C6
:100640008B81882F90E0880F991FFC01E659FF4F9E
:10065000A081B1818A81282F30E081E090E002C042
:10066000880F991F2A95E2F7282F20958B81882FD4
:1006700090E0880F991FFC01E659FF4F0190F0812F
:10068000E02D8081422F48238E81282F30E08A81FF
:10069000882F90E0B90102C0660F771F8A95E2F7B4
:1006A000CB01842B8C938C8126960FB6F894DEBFF9
:1006B0000FBECDBFCF91DF910895DF93CF9300D0D0
:1006C00000D0CDB7DEB78A837C836B8381E08983DA
:1006D0008A81843080F48A81882F90E0880F991F66
:1006E000FC01E658FF4F0190F081E02D8081EB8105
:1006F000FC81808301C0198289810F900F900F9037
:100700000F90CF91DF910895DF93CF9300D000D069
:10071000CDB7DEB78B836C8381E08A838B81843095
:10072000F0F48B81882F90E0880F991FFC01EE5820
:10073000FF4F0190F081E02D8081898389818F3F77
:1007400079F48B81882F90E0880F991FFC01E6597E
:10075000FF4F0190F081E02D8C81808301C01A82CF
:100760008A810F900F900F900F90CF91DF91089595
:10077000DF93CF9300D000D00F92CDB7DEB78C833C
:100780006D8381E08B838C81803210F01B823BC0B3
:100790008C818695869586958A838C8187708983DE
:1007A0008A81882F90E0880F991FFC01EE58FF4F37
:1007B000A081B1818981282F30E081E090E002C0E2
:1007C000880F991F2A95E2F7282F20958A81882F74
:1007D00090E0880F991FFC01EE58FF4F0190F081C7
:1007E000E02D8081422F48238D81282F30E08981A0
:1007F000882F90E0B90102C0660F771F8A95E2F753
:10080000CB01842B8C938B810F900F900F900F90C6
:100810000F90CF91DF910895DF93CF9300D00F9287
:10082000CDB7DEB78A836B8381E089838A81843088
:1008300070F48A81882F90E0880F991FFC01EE5890
:10084000FF4F0190F081E02D8B81808301C01982E0
:1008500089810F900F900F90CF91DF910895DF93D2
:10086000CF9300D000D000D0CDB7DEB78C837E838D
:100870006D8381E08B838C81803210F01B8230C0CD
:100880008C818695869586958A838C8187708983ED
:100890008A81882F90E0880F991FFC01EE58FF4F46
:1008A0000190F081E02D8081482F50E08981282F30
:1008B00030E081E090E002C0880F991F2A95E2F7AE
:1008C0009A01282339238981882F90E0A90102C049
:1008D000559547958A95E2F7CA01ED81FE8180839F
:1008E0008B8126960FB6F894DEBF0FBECDBFCF9199
:1008F000DF910895DF93CF9300D000D0CDB7DEB75E
:100900008A837C836B8381E089838A81843080F44D
:100910008A81882F90E0880F991FFC01E658FF4FCD
:100920000190F081E02D8081EB81FC81808301C00A
:10093000198289810F900F900F900F90CF91DF91C6
:100940000895DF93CF93CDB7DEB7A5E5B0E0E5E539
:10095000F0E080818F608C93A4E5B0E0E4E5F0E006
:10096000808180648C93ABE5B0E0EBE5F0E08081C2
:1009700080648C93CF91DF910895DF93CF930F9292
:10098000CDB7DEB788E08983EAE5F0E08081882F83
:1009900090E080749070082E892F000C881F990BAE
:1009A000000C881F991F009719F089818160898345
:1009B000EAE5F0E08081881F8827881F882F90E073
:1009C0009070009719F0898182608983EAE5F0E0F0
:1009D0008081882F90E0807290709595879595958D
:1009E0008795959587959595879595958795009782
:1009F00019F089818460898389810F90CF91DF917B
:100A000008951F920F920FB60F9211242F933F93C8
:100A10004F935F936F937F938F939F93AF93BF9306
:100A2000EF93FF93DF93CF93CDB7DEB7E091A500AF
:100A3000F091A6000995CF91DF91FF91EF91BF91C1
:100A4000AF919F918F917F916F915F914F913F9166
:100A50002F910F900FBE0F901F9018951F920F921D
:100A60000FB60F9211242F933F934F935F936F9381
:100A70007F938F939F93AF93BF93EF93FF93DF93F6
:100A8000CF93CDB7DEB7E091A900F091AA00099508
:100A9000CF91DF91FF91EF91BF91AF919F918F9196
:100AA0007F916F915F914F913F912F910F900FBE6A
:100AB0000F901F9018951F920F920FB60F9211244E
:100AC0002F933F934F935F936F937F938F939F9356
:100AD000AF93BF93EF93FF93DF93CF93CDB7DEB781
:100AE000E091A700F091A8000995CF91DF91FF91C7
:100AF000EF91BF91AF919F918F917F916F915F9196
:100B00004F913F912F910F900FBE0F901F9018950E
:100B1000DF93CF9300D0CDB7DEB79A8389838981E5
:100B20009A819093A6008093A5000F900F90CF918B
:100B3000DF910895DF93CF9300D0CDB7DEB79A83CE
:100B4000898389819A819093AA008093A9000F904C
:100B50000F90CF91DF910895DF93CF9300D0CDB761
:100B6000DEB79A83898389819A819093A8008093C4
:100B7000A7000F900F90CF91DF910895DF93CF934F
:100B8000CDB7DEB77894CF91DF910895DF93CF93FF
:100B9000CDB7DEB7F894CF91DF910895DF93CF936F
:100BA000CDB7DEB71092AB00CF91DF910895DF9300
:100BB000CF93CDB7DEB729970FB6F894DEBF0FBE3F
:100BC000CDBF9D838C8319821B8281E08A83B3C051
:100BD0008A8181708095982F80E0692F0E94DF02C2
:100BE0008A81882F90E0827090708095909595957D
:100BF0008795982F81E0692F0E94DF028A81882FD4
:100C000090E08470907080959095959587959595D6
:100C10008795982F82E0692F0E94DF028A81882FB2
:100C200090E08870907080959095959587959595B2
:100C3000879595958795982F83E0692F0E94DF020D
:100C40009E012D5F3F4F84E0B9010E9494028B8189
:100C50001986882311F481E089878091AB009985FA
:100C6000890F8093AB009E012D5F3F4F85E0B90156
:100C70000E9494028B81882319F482E0888701C046
:100C800018868091AB009885890F8093AB009E01F8
:100C90002D5F3F4F86E0B9010E9494028B8188232B
:100CA00019F484E08F8301C01F828091AB009F8183
:100CB000890F8093AB009E012D5F3F4F87E0B90104
:100CC0000E9494028B81882319F488E08E8301C0EE
:100CD0001E828091AB009E81890F8093AB00809132
:100CE000AB008823E1F08091AB008695882F90E0DF
:100CF000FC01ED56FF4F8081282F30E08981882F3D
:100D000090E0880F991F820F931FFC01EE57FF4F51
:100D10008081EC81FD8180831092AB0010C0EC815A
:100D2000FD81108289818E5F89838A81882F90E07E
:100D3000880F991F8A838A81893008F449CF2996C0
:100D40000FB6F894DEBF0FBECDBFCF91DF910895EF
:100D5000DF93CF93CDB7DEB727970FB6F894DEBFFA
:100D60000FBECDBF8A837C836B83CE0101960E9428
:100D7000D70599811F828A81981711F481E08F83AA
:100D8000EB81FC819F8190831E821D828A8180314C
:100D900020F481E090E09E838D83ED81FE81E85612
:100DA000FF4F808127960FB6F894DEBF0FBECDBFF0
:100DB000CF91DF910895DF93CF93CDB7DEB7A3E551
:100DC000B0E0E3E5F0E0808183608C93A9E5B0E0DA
:100DD000E9E5F0E0808183608C93ECE5F0E08081D0
:100DE000882F90E00024969587950794969587958F
:100DF0000794982F802D20EA3FE0B9010E946808EF
:100E0000CB019093AF008093AE0084E090E090938C
:100E1000AD008093AC00CF91DF910895DF93CF9325
:100E200000D00F92CDB7DEB79B838A8320919A00C2
:100E300030919B008091AC009091AD00AC01249F5B
:100E4000C001259F900D349F900D112489838981C5
:100E5000282F30E08A819B818217930718F481E064
:100E600080939E000F900F900F90CF91DF91089587
:100E7000DF93CF93CDB7DEB710929B0010929A000C
:100E800010929D0010929C00CF91DF910895DF9306
:100E9000CF93CDB7DEB710929E00CF91DF9108952A
:100EA000DF93CF93CDB7DEB7A3E5B0E0E3E5F0E0A5
:100EB000808183608C93CF91DF910895DF93CF93EE
:100EC000CDB7DEB7A3E5B0E0E3E5F0E08081887F51
:100ED0008C93CF91DF910895DF93CF93CDB7DEB799
:100EE00080919E00CF91DF910895DF93CF930F9271
:100EF000CDB7DEB78983ECE5F0E0898180830F9080
:100F0000CF91DF9108951F920F920FB60F92112487
:100F10008F939F93DF93CF93CDB7DEB780919A00E5
:100F200090919B00019690939B0080939A00CF91A3
:100F3000DF919F918F910F900FBE0F901F9018958A
:100F40001F920F920FB60F9211248F939F93DF93EE
:100F5000CF93CDB7DEB780919C0090919D00019614
:100F600090939D0080939C00CF91DF919F918F91F2
:100F70000F900FBE0F901F901895DF93CF930F9295
:100F8000CDB7DEB70E9448020E9449000E94CE05FC
:100F90000E94A1040E94DB060E94BE05CE010196BC
:100FA0000E94D7058981813029F482E198E00E946E
:100FB00088050FC08981853029F48FEF97E00E9462
:100FC000880507C08981893021F48CEE97E00E9462
:100FD00088050E942508E2CFDF93CF93CDB7DEB717
:100FE0008091A20091E089278093A20010929F0037
:100FF0001092A0001092A100CF91DF910895DF938D
:10100000CF93CDB7DEB78091A30091E0892780937D
:10101000A30010929F001092A0001092A100CF9107
:10102000DF910895DF93CF93CDB7DEB78091A40011
:1010300091E089278093A40010929F001092A00055
:101040001092A100CF91DF910895DF93CF93CDB798
:10105000DEB788EE93E00E940E070E946C07813095
:10106000A1F58091A200813031F480919F0091E040
:10107000892780939F008091A300813031F4809173
:10108000A00091E089278093A0008091A400813086
:1010900031F48091A10091E089278093A100909183
:1010A0009F008CE1692F0E94DF029091A0008DE1EA
:1010B000692F0E94DF029091A1008EE1692F0E94AA
:1010C000DF020E9447070E943807CF91DF91089501
:1010D00097FB092E07260AD077FD04D00CD006D046
:1010E00000201AF4709561957F4F0895F6F790955A
:1010F00081959F4F0895AA1BBB1B51E107C0AA1FF2
:10110000BB1FA617B70710F0A61BB70B881F991FA8
:101110005A95A9F780959095BC01CD010895F89452
:02112000FFCFFF
:1011220008090A0B0C0D0E0F00013B0038003500B8
:1011320032003A0037003400310039003600330003
:101142003000000102030405060708090A0B0C0D12
:0A1152000E0F10010203000400015B
:00000001FF
