:100000000C942A000C9447000C9447000C94470071
:100010000C9447000C9447000C9447000C94470044
:100020000C9447000C9447000C9447000C94470034
:100030000C9447000C9447000C9447000C94470024
:100040000C9447000C9447000C9447000C94470014
:100050000C94470011241FBECFE5D8E0DEBFCDBF12
:1000600010E0A0E6B0E0EAEAF7E002C005900D92E9
:10007000A039B107D9F710E0A0E9B0E001C01D92A6
:10008000A139B107E1F70E94A2030C94D3030C94A9
:100090000000DF93CF93CDB7DEB7E0916800F09119
:1000A00069008FE08083E0916A00F0916B008FEF30
:1000B0008083E0916C00F0916D008FEF8083E09180
:1000C0006E00F0916F008FE78083A0916000B09187
:1000D0006100E0916000F09161008081807F8C93ED
:1000E000E0916200F09163001082E0916400F09171
:1000F00065001082A0916600B0916700E0916600F3
:10010000F0916700808180788C93CF91DF91089582
:10011000DF93CF9300D000D000D0CDB7DEB78C8373
:100120007E836D8381E08B838C818F3180F58C8120
:100130008695869586958A838C81877089838A8146
:10014000882F90E0880F991FFC01E059FF4F019024
:10015000F081E02D8081482F50E08981282F30E008
:1001600081E090E002C0880F991F2A95E2F79A017A
:10017000282339238981882F90E0A90102C0559551
:1001800047958A95E2F7CA01ED81FE81808381E07F
:100190008B838B8126960FB6F894DEBF0FBECDBF42
:1001A000CF91DF910895DF93CF9300D000D000D09E
:1001B000CDB7DEB78D836E8381E08C838D818032F5
:1001C00010F01C8264C08D818695869586958B8300
:1001D0008D8187708A838B81882F90E0880F991F8B
:1001E000FC01E859FF4F0190F081E02D8081482FFC
:1001F00050E08A81282F30E081E090E002C0880F33
:10020000991F2A95E2F79A01282339238A81882F9A
:1002100090E0A90102C0559547958A95E2F7CA0179
:1002200089838981813099F58B81882F90E0880FAF
:10023000991FFC01E05AFF4FA081B1818A81282FCC
:1002400030E081E090E002C0880F991F2A95E2F724
:10025000282F20958B81882F90E0880F991FFC0113
:10026000E05AFF4F0190F081E02D8081422F48231A
:100270008E81282F30E08A81882F90E0B90102C05A
:10028000660F771F8A95E2F7CB01842B8C938C81C4
:1002900026960FB6F894DEBF0FBECDBFCF91DF918B
:1002A0000895DF93CF9300D000D0CDB7DEB78A8317
:1002B0007C836B8381E089838A81843080F48A81A6
:1002C000882F90E0880F991FFC01E059FF4F0190A3
:1002D000F081E02D8081EB81FC81808301C0198257
:1002E00089810F900F900F900F90CF91DF9108951B
:1002F000DF93CF9300D000D0CDB7DEB78B836C8374
:1003000081E08A838B818430F0F48B81882F90E0A8
:10031000880F991FFC01E859FF4F0190F081E02DF3
:100320008081898389818F3F79F48B81882F90E048
:10033000880F991FFC01E05AFF4F0190F081E02DDA
:100340008C81808301C01A828A810F900F900F9058
:100350000F90CF91DF910895DF93CF9300D000D01D
:100360000F92CDB7DEB78C836D8381E08B838C8158
:10037000803210F01B823BC08C81869586958695D5
:100380008A838C81877089838A81882F90E0880F87
:10039000991FFC01E859FF4FA081B1818981282F65
:1003A00030E081E090E002C0880F991F2A95E2F7C3
:1003B000282F20958A81882F90E0880F991FFC01B3
:1003C000E859FF4F0190F081E02D8081422F4823B2
:1003D0008D81282F30E08981882F90E0B90102C0FB
:1003E000660F771F8A95E2F7CB01842B8C938B8164
:1003F0000F900F900F900F900F90CF91DF91089575
:10040000DF93CF9300D00F92CDB7DEB78A836B8393
:1004100081E089838A81843070F48A81882F90E01A
:10042000880F991FFC01E859FF4F0190F081E02DE2
:100430008B81808301C0198289810F900F900F906A
:10044000CF91DF910895DF93CF9300D000D000D0FB
:10045000CDB7DEB78C837E836D8381E08B838C8107
:10046000803210F01B8230C08C81869586958695EF
:100470008A838C81877089838A81882F90E0880F96
:10048000991FFC01E859FF4F0190F081E02D808118
:10049000482F50E08981282F30E081E090E002C0B1
:1004A000880F991F2A95E2F79A0128233923898119
:1004B000882F90E0A90102C0559547958A95E2F7EB
:1004C000CA01ED81FE8180838B8126960FB6F89458
:1004D000DEBF0FBECDBFCF91DF910895DF93CF93E5
:1004E00000D000D0CDB7DEB78A837C836B8381E0F8
:1004F00089838A81843080F48A81882F90E0880FF4
:10050000991FFC01E059FF4F0190F081E02D80819F
:10051000EB81FC81808301C0198289810F900F904B
:100520000F900F90CF91DF910895DF93CF93CDB7C8
:10053000DEB710929000CF91DF910895DF93CF93B3
:10054000CDB7DEB729970FB6F894DEBF0FBECDBF8B
:100550009D838C8319821B8281E08A83B3C08A8148
:1005600081708095982F80E0692F0E94D3008A8146
:10057000882F90E0827090708095909595958795E2
:10058000982F81E0692F0E94D3008A81882F90E004
:1005900084709070809590959595879595958795A1
:1005A000982F82E0692F0E94D3008A81882F90E0E3
:1005B000887090708095909595958795959587957D
:1005C00095958795982F83E0692F0E94D3009E010F
:1005D0002D5F3F4F84E0B9010E9488008B8119860E
:1005E000882311F481E08987809190009985890F93
:1005F000809390009E012D5F3F4F85E0B9010E94DE
:1006000088008B81882319F482E0888701C01886CE
:10061000809190009885890F809390009E012D5FB6
:100620003F4F86E0B9010E9488008B81882319F42E
:1006300084E08F8301C01F82809190009F81890F89
:10064000809390009E012D5F3F4F87E0B9010E948B
:1006500088008B81882319F488E08E8301C01E8274
:10066000809190009E81890F8093900080919000EE
:100670008823E1F0809190008695882F90E0FC011E
:10068000E757FF4F8081282F30E08981882F90E045
:10069000880F991F820F931FFC01E858FF4F80813C
:1006A000EC81FD8180831092900010C0EC81FD816F
:1006B000108289818E5F89838A81882F90E0880FDC
:1006C000991F8A838A81893008F449CF29960FB609
:1006D000F894DEBF0FBECDBFCF91DF910895DF93B9
:1006E000CF93CDB7DEB727970FB6F894DEBF0FBE16
:1006F000CDBF8A837C836B83CE0101960E949E02CC
:1007000099811F828A81981711F481E08F83EB8190
:10071000FC819F8190831E821D828A81803120F41A
:1007200081E090E09E838D83ED81FE81E257FF4F53
:10073000808127960FB6F894DEBF0FBECDBFCF9154
:10074000DF910895DF93CF930F92CDB7DEB781E0AD
:1007500089830E9449000E949502CE0101960E9461
:100760009E028981882F90E084309105B1F788E05E
:1007700061E00E94D300F1CFDF93CF9300D0CDB7DB
:10078000DEB780EA9FE09A83898389819A81019705
:100790009A83898389819A810097B9F70F900F9086
:0A07A000CF91DF910895F894FFCF88
:1007AA003B003800350032003A003700340031008F
:1007BA003900360033003000000102030405060741
:1007CA0008090A0B0C0D0E0F1001020300040001A8
:00000001FF
