:100000000C942A000C9447000C9447000C94470071
:100010000C9447000C9447000C9447000C94470044
:100020000C9447000C9447000C9447000C94470034
:100030000C9447000C9447000C9447000C94470024
:100040000C9447000C9447000C9447000C94470014
:100050000C94470011241FBECFE5D8E0DEBFCDBF12
:1000600011E0A0E6B0E0E4E2F8E102C005900D92F4
:10007000AA3CB107D9F711E0AAECB1E001C01D928A
:10008000AB3DB107E1F70E9440070C94100C0C94B3
:100090000000A0E2B0E0EFE4F0E00C94D90B69833B
:1000A0007A838B839C832D833E834F835887CE0135
:1000B0000196BE01675F7F4F0E941003CE01059637
:1000C000BE016F5E7F4F0E9410039985923088F0C9
:1000D00089898230C8F0943019F4823051F404C018
:1000E000843029F4923081F480E690E0C6C09230EA
:1000F00049F420E09A858A89981321E02A87CE0165
:100100000996BBC0823049F420E09A858A89981309
:1001100021E02A8BCE014196B0C02D843E844F84CD
:1001200058886D887E888F88988CEE24FF248701FC
:10013000AA24BB24650140E050E060E070E0E0E00C
:10014000F0E0C10181709070892BE9F0E60CF71C9A
:10015000081D191D9A01AB012A0D3B1D4C1D5D1D8B
:1001600080E090E0A0E0B0E0E614F704080519058F
:1001700020F481E090E0A0E0B0E0BA01A901480FCE
:10018000591F6A1F7B1FAA0CBB1CCC1CDD1C97FED1
:1001900008C081E090E0A0E0B0E0A82AB92ACA2A0D
:1001A000DB2A3196E032F10549F0660C771C881C99
:1001B000991C5694479437942794C3CFFA85EA89BB
:1001C0002B893C898B859C85280F391F2E5F3F4FDB
:1001D00017C0CA0181709070892B61F01695079540
:1001E000F794E79480E090E0A0E0B0E8E82AF92AEC
:1001F0000A2B1B2B76956795579547952F5F3F4F99
:1002000077FDE7CF0CC0440F551F661F771F17FD02
:100210004160EE0CFF1C001F111F21503040403088
:1002200090E0590790E0690790E4790760F32B8F1D
:100230003C8FDB01CA018F779070A070B070803462
:100240009105A105B10561F447FD0AC0E114F1046F
:100250000105110529F0405C5F4F6F4F7F4F4078DB
:100260001A8EFE1711F081E08A8F4D8F5E8F6F8F8F
:1002700078A383E0898FCE0149960E943B02A09625
:10028000E2E10C94F50BA8E1B0E0E9E4F1E00C94B4
:10029000E50B69837A838B839C832D833E834F8315
:1002A000588789E0E82EF12CEC0EFD1ECE01019658
:1002B000B7010E9410038E010F5E1F4FCE010596FD
:1002C000B8010E9410038985823040F0898982300C
:1002D00028F0C701B8010E94880301C08FEF68961B
:1002E000E6E00C94010CA8E0B0E0E9E7F1E00C9442
:1002F000E10B7B018C01611571058105910519F4F4
:1003000082E0898360C083E089838EE1C82ED12C8E
:10031000DC82CB82ED82FE820F831887C801B70191
:100320000E94EC01FC013197F7FF3BC022273327E5
:100330002E1B3F0B57016801022E04C0D694C794B0
:10034000B794A7940A94D2F740E050E060E070E0E0
:1003500081E090E0A0E0B0E004C0880F991FAA1FE0
:10036000BB1F2A95D2F70197A109B1098E219F21C0
:10037000A023B1230097A105B10521F041E050E091
:1003800060E070E04A295B296C297D294D835E83FA
:100390006F8378878EE190E08E1B9F0B9C838B830D
:1003A00012C0309781F00E2E04C0EE0CFF1C001F0F
:1003B000111F0A94D2F7ED82FE820F831887CE1A9E
:1003C000DF0ADC82CB821A82CE0101960E943B02B8
:1003D0002896EAE00C94FD0BEF92FF920F931F9387
:1003E0007B018C0180E0E81680E0F80681E00807D8
:1003F00080E0180788F48FEFE816F1040105110575
:1004000031F028F088E090E0A0E0B0E017C080E094
:1004100090E0A0E0B0E012C080E0E81680E0F806CE
:1004200080E0080781E0180728F088E190E0A0E06C
:10043000B0E004C080E190E0A0E0B0E020E230E075
:1004400040E050E0281B390B4A0B5B0B04C01695AB
:100450000795F794E7948A95D2F7F701E859FF4F8B
:100460008081281B310941095109C9011F910F9150
:10047000FF90EF900895DF92EF92FF920F931F93FA
:10048000FC01E480F58006811781D1808081823073
:1004900048F480E090E0A0E1B0E0E82AF92A0A2BD5
:1004A0001B2BA5C0843009F49FC0823021F4EE24B8
:1004B000FF24870105C0E114F1040105110519F4B9
:1004C000E0E0F0E096C0628173819FEF62387907C7
:1004D0000CF05BC022E83FEF261B370B2A313105B9
:1004E0002CF020E030E040E050E02AC0B801A70145
:1004F000022E04C076956795579547950A94D2F7D2
:1005000081E090E0A0E0B0E004C0880F991FAA1F2E
:10051000BB1F2A95D2F70197A109B1098E219F210E
:10052000A023B1230097A105B10521F081E090E05F
:10053000A0E0B0E09A01AB01282B392B4A2B5B2BB2
:10054000DA01C9018F779070A070B0708034910586
:10055000A105B10539F427FF09C0205C3F4F4F4F7B
:100560005F4F04C0215C3F4F4F4F5F4FE0E0F0E032
:100570002030A0E03A07A0E04A07A0E45A0710F0B4
:10058000E1E0F0E079018A0127C06038710564F587
:10059000FB01E158FF4FD801C7018F779070A07021
:1005A000B07080349105A105B10539F4E7FE0DC0A6
:1005B00080E490E0A0E0B0E004C08FE390E0A0E031
:1005C000B0E0E80EF91E0A1F1B1F17FF05C01695A5
:1005D0000795F794E794319687E016950795F79479
:1005E000E7948A95D1F705C0EE24FF248701EFEF49
:1005F000F0E06E2F679566276795902F9F77D794C9
:10060000DD24D7948E2F8695492F462B582F5D29B0
:10061000B701CA011F910F91FF90EF90DF900895ED
:10062000FC01DB01408151812281622F6F7770E0F4
:10063000221F2227221F9381892F880F822B282F88
:1006400030E0991F9927991F11969C9311972115B6
:100650003105A9F5411551056105710511F482E0D7
:1006600037C082E89FEF13969C938E9312979A015E
:10067000AB0167E0220F331F441F551F6A95D1F766
:1006800083E08C930DC0220F331F441F551F129619
:100690008D919C911397019713969C938E9312972B
:1006A000203080E0380780E0480780E4580758F39E
:1006B00014962D933D934D935C93179708952F3F78
:1006C000310579F4411551056105710519F484E08E
:1006D0008C93089564FF03C081E08C9312C01C9238
:1006E00010C02F57304013963C932E93129783E0FF
:1006F0008C9387E0440F551F661F771F8A95D1F7AB
:10070000706414964D935D936D937C931797089541
:100710001F93DC01FB019C91923008F447C080815B
:10072000823008F443C0943051F411961C91843007
:1007300099F58181682F70E0611B71093FC0843099
:1007400021F0923031F48230B9F18181882389F12E
:100750002DC011961C9111978230F1F081811817EC
:10076000D9F412962D913C9113978281938182172F
:10077000930794F028173907BCF014968D919D913A
:100780000D90BC91A02D2481358146815781281779
:1007900039074A075B0718F4112341F00AC0821792
:1007A0009307A407B50740F4112319F061E070E046
:1007B00005C06FEF7FEF02C060E070E0CB011F91DA
:1007C0000895DF93CF93CDB7DEB7E0917201F0913A
:1007D00073018FEE8083E0917401F09175018EEFCB
:1007E0008083E0917601F09177018FE08083E09142
:1007F0007801F09179018FEF8083A0916A01B09127
:100800006B01E0916A01F0916B01808180718C93A2
:10081000A0916C01B0916D01E0916C01F0916D01BE
:10082000808181708C93A0916E01B0916F01E091F5
:100830006E01F0916F018081807F8C93E091700157
:10084000F09171011082CF91DF910895DF93CF93E2
:1008500000D000D000D0CDB7DEB78C837E836D830F
:1008600081E08B838C818F3180F58C818695869594
:1008700086958A838C81877089838A81882F90E00E
:10088000880F991FFC01E658FE4F0190F081E02D82
:100890008081482F50E08981282F30E081E090E06E
:1008A00002C0880F991F2A95E2F79A01282339235D
:1008B0008981882F90E0A90102C0559547958A95B6
:1008C000E2F7CA01ED81FE81808381E08B838B8119
:1008D00026960FB6F894DEBF0FBECDBFCF91DF9145
:1008E0000895DF93CF9300D000D000D0CDB7DEB70E
:1008F0008D836E8381E08C838D81803210F01C8229
:1009000064C08D818695869586958B838D81877051
:100910008A838B81882F90E0880F991FFC01EE5805
:10092000FE4F0190F081E02D8081482F50E08A81B8
:10093000282F30E081E090E002C0880F991F2A95AF
:10094000E2F79A01282339238A81882F90E0A901B0
:1009500002C0559547958A95E2F7CA018983898136
:10096000813099F58B81882F90E0880F991FFC01C9
:10097000E659FE4FA081B1818A81282F30E081E0C5
:1009800090E002C0880F991F2A95E2F7282F209542
:100990008B81882F90E0880F991FFC01E659FE4F4C
:1009A0000190F081E02D8081422F48238E81282FF5
:1009B00030E08A81882F90E0B90102C0660F771F6E
:1009C0008A95E2F7CB01842B8C938C8126960FB607
:1009D000F894DEBF0FBECDBFCF91DF910895DF93B6
:1009E000CF9300D000D0CDB7DEB78A837C836B83F2
:1009F00081E089838A81843080F48A81882F90E025
:100A0000880F991FFC01E658FE4F0190F081E02D00
:100A10008081EB81FC81808301C0198289810F90E4
:100A20000F900F900F90CF91DF910895DF93CF93A8
:100A300000D000D0CDB7DEB78B836C8381E08A8392
:100A40008B818430F0F48B81882F90E0880F991F80
:100A5000FC01EE58FE4F0190F081E02D80818983EA
:100A600089818F3F79F48B81882F90E0880F991FBF
:100A7000FC01E659FE4F0190F081E02D8C818083CE
:100A800001C01A828A810F900F900F900F90CF9122
:100A9000DF910895DF93CF9300D000D00F92CDB7B0
:100AA000DEB78C836D8381E08B838C81803210F084
:100AB0001B823BC08C818695869586958A838C8126
:100AC000877089838A81882F90E0880F991FFC01A5
:100AD000EE58FE4FA081B1818981282F30E081E05E
:100AE00090E002C0880F991F2A95E2F7282F2095E1
:100AF0008A81882F90E0880F991FFC01EE58FE4FE5
:100B00000190F081E02D8081422F48238D81282F94
:100B100030E08981882F90E0B90102C0660F771F0D
:100B20008A95E2F7CB01842B8C938B810F900F90E9
:100B30000F900F900F90CF91DF910895DF93CF9397
:100B400000D00F92CDB7DEB78A836B8381E08983B3
:100B50008A81843070F48A81882F90E0880F991FF1
:100B6000FC01EE58FE4F0190F081E02D8B818083D7
:100B700001C0198289810F900F900F90CF91DF9162
:100B80000895DF93CF9300D000D000D0CDB7DEB76B
:100B90008C837E836D8381E08B838C81803210F027
:100BA0001B8230C08C818695869586958A838C8140
:100BB000877089838A81882F90E0880F991FFC01B4
:100BC000EE58FE4F0190F081E02D8081482F50E0DB
:100BD0008981282F30E081E090E002C0880F991FC2
:100BE0002A95E2F79A01282339238981882F90E0FA
:100BF000A90102C0559547958A95E2F7CA01ED8192
:100C0000FE8180838B8126960FB6F894DEBF0FBEDF
:100C1000CDBFCF91DF910895DF93CF9300D000D067
:100C2000CDB7DEB78A837C836B8381E089838A8139
:100C3000843080F48A81882F90E0880F991FFC010E
:100C4000E658FE4F0190F081E02D8081EB81FC8120
:100C5000808301C0198289810F900F900F900F90AF
:100C6000CF91DF910895DF93CF93CDB7DEB7109288
:100C7000D801CF91DF910895DF93CF93CDB7DEB741
:100C800029970FB6F894DEBF0FBECDBF9D838C832E
:100C900019821B8281E08A83B3C08A81817080952A
:100CA000982F80E1692F0E9471048A81882F90E03B
:100CB000827090708095909595958795982F81E199
:100CC000692F0E9471048A81882F90E0847090704F
:100CD000809590959595879595958795982F82E124
:100CE000692F0E9471048A81882F90E0887090702B
:100CF00080959095959587959595879595958795E8
:100D0000982F83E1692F0E9471049E012D5F3F4F50
:100D100084E1B9010E9426048B811986882311F48D
:100D200081E089878091D8019985890F8093D801C6
:100D30009E012D5F3F4F85E1B9010E9426048B8102
:100D4000882319F482E0888701C018868091D80131
:100D50009885890F8093D8019E012D5F3F4F86E1D2
:100D6000B9010E9426048B81882319F484E08F83C3
:100D700001C01F828091D8019F81890F8093D80183
:100D80009E012D5F3F4F87E1B9010E9426048B81B0
:100D9000882319F488E08E8301C01E828091D801D7
:100DA0009E81890F8093D8018091D8018823E1F03A
:100DB0008091D8018695882F90E0FC01ED56FE4F7A
:100DC0008081282F30E08981882F90E0880F991F3B
:100DD000820F931FFC01EE57FE4F8081EC81FD8155
:100DE00080831092D80110C0EC81FD81108289812E
:100DF0008E5F89838A81882F90E0880F991F8A836C
:100E00008A81893008F449CF29960FB6F894DEBF5D
:100E10000FBECDBFCF91DF910895DF93CF93CDB7B4
:100E2000DEB727970FB6F894DEBF0FBECDBF8A831B
:100E30007C836B83CE0101960E943C0699811F82C0
:100E40008A81981711F481E08F83EB81FC819F8167
:100E500090831E821D828A81803120F481E090E09F
:100E60009E838D83ED81FE81E856FE4F808127961B
:100E70000FB6F894DEBF0FBECDBFCF91DF910895BE
:100E8000DF93CF93CDB7DEB70E94E1030E94330614
:100E90000E944D070E94BE0AFBCFDF93CF93CDB7D0
:100EA000DEB729ED31E084E0B9010E94260480918B
:100EB000D901813051F58091CB01882331F581E052
:100EC0008093CB0181E08093CC010E9492070E9425
:100ED000EC078091CE019091CF018A3F910538F4C3
:100EE0008091CC01813019F40E94A60718C080912E
:100EF000CE019091CF018A3F910588F08091CC017D
:100F0000813069F40E94C3070AC08091D901882307
:100F100031F41092CB011092CF011092CE01CF91FB
:100F2000DF910895DF93CF93CDB7DEB78091CD01E8
:100F3000882319F40E94090806C08091CD018130F0
:100F400011F40E941C08CF91DF910895DF93CF9395
:100F5000CDB7DEB711C029ED31E084E0B9010E94C0
:100F600026048091D901813029F482E08093CC015C
:100F70000E9431080E94BE0A8091CC01813059F351
:100F8000CF91DF910895DF93CF930F92CDB7DEB766
:100F90008091CD011982882311F481E089838981B0
:100FA0008093CD0111C029ED31E084E0B9010E94A8
:100FB00026048091D901882329F40E94310882E017
:100FC0008093CC010E94BE0A8091CC01813059F3FC
:100FD0000F90CF91DF910895DF93CF93CDB7DEB718
:100FE00011C029ED31E084E0B9010E94260480910E
:100FF000CE019091CF0101969093CF018093CE01C5
:101000000E94BE0A8091D901813059F3CF91DF91BE
:101010000895DF93CF93CDB7DEB788E061E00E94FB
:10102000710489E060E00E947104109269011092DD
:10103000CD01CF91DF910895DF93CF93CDB7DEB788
:1010400089E061E00E94710488E060E00E94710420
:1010500081E08093690181E08093CD01CF91DF91A0
:101060000895DF93CF93CDB7DEB788E060E00E94AC
:10107000710489E060E00E94710482E0809369015C
:10108000CF91DF910895DF93CF93CDB7DEB7C455ED
:10109000D0400FB6F894DEBF0FBECDBF88E0FE0192
:1010A0003196DF01982F1D929A95E9F781E08A83A6
:1010B000DE0119962396BFAFAEAF2397E2EBF1E0C6
:1010C0002596FFAFEEAF2597F8E02696FFAF26975F
:1010D0002596AEADBFAD25970C902596EEADFFAD34
:1010E000259731962596FFAFEEAF25972396AEADA7
:1010F000BFAD23970C922396EEADFFAD23973196AB
:101100002396FFAFEEAF23972696FFAD2697F150BB
:101110002696FFAF269726968FAD26978823C1F691
:1011200088E0FE017196DF01982F1D929A95E9F7EC
:1011300081E08B8BDE0159962896BFAFAEAF289722
:10114000EAEAF1E02A96FFAFEEAF2A97F8E02B9695
:10115000FFAF2B972A96AEADBFAD2A970C902A967B
:10116000EEADFFAD2A9731962A96FFAFEEAF2A97E4
:101170002896AEADBFAD28970C922896EEADFFAD88
:10118000289731962896FFAFEEAF28972B96FFADA4
:101190002B97F1502B96FFAF2B972B968FAD2B975C
:1011A0008823C1F688E0FE01B196DF01982F1D92D9
:1011B0009A95E9F781E08CA3DE0199962D96BFAF51
:1011C000AEAF2D97E2EAF1E02F96FFAFEEAF2F978B
:1011D000F8E06096FFAF60972F96AEADBFAD2F974A
:1011E0000C902F96EEADFFAD2F9731962F96FFAF57
:1011F000EEAF2F972D96AEADBFAD2D970C922D96DD
:10120000EEADFFAD2D9731962D96FFAFEEAF2D973A
:101210006096FFAD6097F1506096FFAF6097609663
:101220008FAD60978823C1F688E0FE01F196DF015B
:10123000982F1D929A95E9F781E08DABDE01D99642
:101240006296BFAFAEAF6297EAE9F1E06496FFAF96
:10125000EEAF6497F8E06596FFAF65976496AEAD24
:10126000BFAD64970C906496EEADFFAD6497319678
:101270006496FFAFEEAF64976296AEADBFAD629776
:101280000C926296EEADFFAD629731966296FFAF1B
:10129000EEAF62976596FFAD6597F1506596FFAF2B
:1012A000659765968FAD65978823C1F6CE0109963F
:1012B0000E945A0ACE0101960E948C0A89E161E0DF
:1012C0000E94710489E160E00E947104CE01499698
:1012D0000E945A0ACE0141960E948C0A89E161E07F
:1012E0000E94710489E160E00E947104CE01899638
:1012F0000E945A0ACE0181960E948C0A89E161E01F
:101300000E94710489E160E00E947104CE01C996D7
:101310000E945A0ACE01C1960E948C0A89E161E0BE
:101320000E94710489E160E00E947104CC5ADF4F91
:101330000FB6F894DEBF0FBECDBFCF91DF910895F9
:10134000DF93CF93CDB7DEB7AA970FB6F894DEBF81
:101350000FBECDBF88E0FE013196DF01982F1D92B0
:101360009A95E9F781E08A83DE011996BAA3A9A3C9
:10137000E2ECF1E0FCA3EBA3F8E0FDA3ABA1BCA180
:101380000C90EBA1FCA13196FCA3EBA3A9A1BAA1FF
:101390000C92E9A1FAA13196FAA3E9A3FDA1F150BB
:1013A000FDA38DA1882351F7DE015196BFA3AEA303
:1013B000EAEBF1E0F9A7E8A7F8E0FAA7A8A5B9A534
:1013C0000C90E8A5F9A53196F9A7E8A7AEA1BFA1B1
:1013D0000C92EEA1FFA13196FFA3EEA3FAA5F15066
:1013E000FAA78AA5882351F788E0FE017996DF01E4
:1013F000982F1D929A95E9F781E08F8FCE0109967B
:101400000E945A0ACE0101960E948C0A89E161E08D
:101410000E94710489E160E00E947104CE01499646
:101420000E945A0ACE0141960E948C0A89E161E02D
:101430000E94710489E160E00E947104AA960FB6CF
:10144000F894DEBF0FBECDBFCF91DF910895DF933B
:10145000CF93CDB7DEB760970FB6F894DEBF0FBE5F
:10146000CDBF88E0FE013196DF01982F1D929A953D
:10147000E9F788E0FE013996DF01982F1D929A95D1
:10148000E9F7CE0109960E945A0ACE0101960E9400
:101490008C0A89E161E00E94710489E160E00E94A8
:1014A000710460960FB6F894DEBF0FBECDBFCF912A
:1014B000DF910895DF93CF9300D00F92CDB7DEB7C1
:1014C0009B838A8319821FC08981282F30E08A81FB
:1014D0009B81FC01E20FF31F8081813029F48AE1B6
:1014E00060E00E94710404C08AE161E00E9471041E
:1014F00088E161E00E94710488E160E00E9471046B
:1015000089818F5F898389818830F0F20F900F90F5
:101510000F90CF91DF910895DF93CF9300D00F927A
:10152000CDB7DEB79B838A8319821FC08981282F9C
:1015300030E08A819B81FC01E20FF31F80818130C2
:1015400029F48AE161E00E94710404C08AE160E04C
:101550000E94710488E161E00E94710488E160E00A
:101560000E94710489818F5F898389818830F0F2BC
:101570000F900F900F90CF91DF910895DF93CF934D
:1015800000D0CDB7DEB780916901882319F40E949D
:1015900043080DC080916901813019F40E94A009AF
:1015A00006C080916901823011F40E94270ACE01A1
:1015B00001960E943C068981882391F189818031BE
:1015C00059F48091DA011A82882311F481E08A8328
:1015D0008A818093DA0166C08981882F90E0A0E03B
:1015E000B0E0BC01CD010E947301DC01CB0180930E
:1015F000D4019093D501A093D601B093D7018091E7
:10160000D4019091D501A091D601B091D7018093DA
:10161000D0019093D101A093D201B093D30142C0E5
:101620008091D4019091D501A091D601B091D701BC
:101630002091D0013091D1014091D2015091D3013C
:10164000BC01CD010E944900DC01CB018093D40193
:101650009093D501A093D601B093D7018091D40186
:101660009091D501A091D601B091D701BC01CD01D7
:1016700020E030E64AE656E40E944301181694F44E
:101680000E94570B8091D0019091D101A091D2017D
:10169000B091D3018093D4019093D501A093D6014A
:1016A000B093D7010F900F90CF91DF910895DF9302
:1016B000CF93CDB7DEB78091DA018823B1F5809161
:1016C0006801982F91708AE0692F0E9471048091BF
:1016D0006801882F90E08270907095958795982F7B
:1016E0008BE0692F0E94710480916801882F90E03F
:1016F000847090709595879595958795982F8CE037
:10170000692F0E94710480916801882F90E0887091
:101710009070959587959595879595958795982F30
:101720008DE0692F0E94710435C080916801982F67
:1017300091708DE0692F0E94710480916801882F5B
:1017400090E08270907095958795982F8CE0692F26
:101750000E94710480916801882F90E084709070DD
:101760009595879595958795982F8BE0692F0E9481
:10177000710480916801882F90E088709070959531
:1017800087959595879595958795982F8AE0692FE8
:101790000E94710480916801880F80936801809194
:1017A0006801803119F481E080936801CF91DF9165
:1017B00008952F923F924F925F926F927F928F92F5
:1017C0009F92AF92BF92CF92DF92EF92FF920F93D0
:1017D0001F93CF93DF93CDB7DEB7CA1BDB0B0FB6DA
:1017E000F894DEBF0FBECDBF09942A883988488897
:1017F0005F846E847D848C849B84AA84B984C8842D
:10180000DF80EE80FD800C811B81AA81B981CE0F23
:10181000D11D0FB6F894DEBF0FBECDBFED01089508
:04182000F894FFCF6A
:1018240000000000000000000001020203030303A3
:10183400040404040404040405050505050505055C
:10184400050505050505050506060606060606063C
:101854000606060606060606060606060606060624
:10186400060606060606060607070707070707070C
:1018740007070707070707070707070707070707F4
:1018840007070707070707070707070707070707E4
:1018940007070707070707070707070707070707D4
:1018A40007070707070707070808080808080808BC
:1018B40008080808080808080808080808080808A4
:1018C4000808080808080808080808080808080894
:1018D4000808080808080808080808080808080884
:1018E4000808080808080808080808080808080874
:1018F4000808080808080808080808080808080864
:101904000808080808080808080808080808080853
:101914000808080808080808080808080808080843
:10192400080808080808080801023B0038003500C8
:1019340032003A00370034003100390036003300F9
:101944003000000102030405060708090A0B0C0D08
:101954000E0F100102030004000101010100000048
:10196400010001000100000100000100010001006C
:101974000000010101010101010000000101010059
:0A1984000000000101010101010053
:00000001FF
