:100000000C942A000C9447000C9447000C94470071
:100010000C9447000C9447000C9447000C94470044
:100020000C9447000C9447000C9447000C94470034
:100030000C9447000C9447000C9447000C94470024
:100040000C9447000C9447000C9447000C94470014
:100050000C94470011241FBECFE5D4E0DEBFCDBF16
:1000600011E0A0E6B0E0E0EBF0E202C005900D92F6
:10007000AC3CB107D9F711E0ACECB1E001C01D9286
:10008000AD3EB107E1F70E94800D0C9456100C9420
:100090000000EF92FF920F931F937B018C0120E0F1
:1000A00030E040E05FE40E94C50388238CF0C80183
:1000B000B70120E030E040E05FE40E94C1010E940F
:1000C000F5039B01AC01205030404040504806C031
:1000D000C801B7010E94F5039B01AC01B901CA0137
:1000E0001F910F91FF90EF900895A0E0B0E0EBE733
:1000F000F0E00C94DA0FDC012B01FA019C919230B4
:1001000008F439C1EB018881823008F433C194309E
:1001100069F4843009F02FC111969C91119789815F
:10012000981709F428C1A8E9B0E025C1843009F482
:1001300021C18230A9F4923009F01DC19A01AD01AC
:1001400088E0EA010990AE01E90109929E0181501F
:10015000C1F7E201898111969C918923818308C1AD
:10016000923009F407C112962D903C901397EB0141
:100170008A819B811496AD90BD90CD90DC901797AD
:10018000EC80FD800E811F819101281B390BB90184
:1001900037FF04C066277727621B730B6032710537
:1001A0000CF061C0121613066CF537014801062EDB
:1001B00004C096948794779467940A94D2F721E0C8
:1001C00030E040E050E004C0220F331F441F551FB1
:1001D0006A95D2F721503040404050402E213F21B7
:1001E00040235123211531054105510521F021E01E
:1001F00030E040E050E079018A01E628F72808293C
:1002000019293CC0232BD1F1260E371E350146019A
:10021000062E04C096948794779467940A94D2F734
:1002200021E030E040E050E004C0220F331F441FC3
:10023000551F6A95D2F721503040404050402A2146
:100240003B214C215D21211531054105510521F04E
:1002500021E030E040E050E059016A01A628B728CB
:10026000C828D9280BC0821593052CF01C01AA249C
:10027000BB24650103C0EE24FF24870111969C91E5
:10028000D20111968C91981709F445C0992339F041
:10029000A80197012A193B094C095D0906C0A6016E
:1002A00095012E193F09400B510B57FD08C01182D3
:1002B0003382228224833583468357831DC081E0A5
:1002C00081833382228288279927DC01821B930B4A
:1002D000A40BB50B84839583A683B7830DC0220F2F
:1002E000331F441F551F24833583468357838281E0
:1002F000938101979383828324813581468157813D
:10030000DA01C9010197A109B1098F5F9F4FAF4F72
:10031000BF4328F30BC0918333822282EA0CFB1C7B
:100320000C1D1D1DE482F5820683178383E0808304
:10033000248135814681578157FF1AC0C901AA27F8
:1003400097FDA095BA2F81709070A070B0705695EF
:10035000479537952795822B932BA42BB52B848318
:100360009583A683B7838281938101969383828349
:10037000DF0101C0D201CD01CDB7DEB7E2E10C94BF
:10038000F60FA0E2B0E0E7ECF1E00C94E60F698331
:100390007A838B839C832D833E834F835887E9E048
:1003A000EE2EF12CEC0EFD1ECE010196B7010E943F
:1003B000E6058E010F5E1F4FCE010596B8010E9423
:1003C000E6058A8991E089278A8BC701B801AE01C9
:1003D000475E5F4F0E9475000E941105A096E6E0FF
:1003E0000C940210A0E2B0E0E8EFF1E00C94E60F0C
:1003F00069837A838B839C832D833E834F835887C5
:10040000F9E0EF2EF12CEC0EFD1ECE010196B701A6
:100410000E94E6058E010F5E1F4FCE010596B801C2
:100420000E94E605C701B801AE01475E5F4F0E941A
:1004300075000E941105A096E6E00C940210A0E25F
:10044000B0E0E5E2F2E00C94DA0F69837A838B8303
:100450009C832D833E834F835887CE010196BE0136
:10046000675F7F4F0E94E605CE010596BE016F5E75
:100470007F4F0E94E6059985923088F08989823005
:10048000C8F0943019F4823051F404C0843029F457
:10049000923081F488E990E0C6C0923049F420E0BF
:1004A0009A858A89981321E02A87CE010996BBC0D4
:1004B000823049F420E09A858A89981321E02A8BBA
:1004C000CE014196B0C02D843E844F8458886D88FB
:1004D0007E888F88988CEE24FF248701AA24BB2471
:1004E000650140E050E060E070E0E0E0F0E0C10174
:1004F00081709070892BE9F0E60CF71C081D191D1E
:100500009A01AB012A0D3B1D4C1D5D1D80E090E062
:10051000A0E0B0E0E614F7040805190520F481E036
:1005200090E0A0E0B0E0BA01A901480F591F6A1F8E
:100530007B1FAA0CBB1CCC1CDD1C97FE08C081E0F5
:1005400090E0A0E0B0E0A82AB92ACA2ADB2A3196B6
:10055000E032F10549F0660C771C881C991C569412
:10056000479437942794C3CFFA85EA892B893C892D
:100570008B859C85280F391F2E5F3F4F17C0CA01FE
:1005800081709070892B61F016950795F794E79428
:1005900080E090E0A0E0B0E8E82AF92A0A2B1B2BC3
:1005A00076956795579547952F5F3F4F77FDE7CF36
:1005B0000CC0440F551F661F771F17FD4160EE0CDE
:1005C000FF1C001F111F21503040403090E05907A0
:1005D00090E0690790E4790760F32B8F3C8FDB0193
:1005E000CA018F779070A070B07080349105A1051A
:1005F000B10561F447FD0AC0E114F10401051105DC
:1006000029F0405C5F4F6F4F7F4F40781A8EFE1786
:1006100011F081E08A8F4D8F5E8F6F8F78A383E01A
:10062000898FCE0149960E941105A096E2E10C94B3
:10063000F60FA8E1B0E0EFE1F3E00C94E20F69837C
:100640007A838B839C832D833E834F835887B9E0C5
:10065000EB2EF12CEC0EFD1ECE010196B7010E948F
:10066000E6058E010F5E1F4FCE010596B8010E9470
:10067000E6052985223008F47EC03989323010F42D
:10068000B8017CC08A859A8989278A87243011F02D
:10069000223031F4231709F06EC068E970E06EC0B3
:1006A000343039F41D861E861F86188A1C861B86E8
:1006B00004C0323021F484E08987B7015FC02B8504
:1006C0003C858B899C89281B390B3C872B87ED84C3
:1006D000FE840F851889AD88BE88CF88D88CEA142F
:1006E000FB040C051D0540F4EE0CFF1C001F111F40
:1006F000215030403C872B8720E030E040E050E044
:1007000080E090E0A0E0B0E460E070E0EA14FB0478
:100710000C051D0540F0282B392B4A2B5B2BEA18C2
:10072000FB080C091D09B695A79597958795EE0CC2
:10073000FF1C001F111F6F5F7F4F6F31710531F775
:10074000DA01C9018F779070A070B0708034910584
:10075000A105B10561F427FD0AC0E114F10401050A
:10076000110529F0205C3F4F4F4F5F4F20782D87B8
:100770003E874F87588BBE01675F7F4FCB010E943A
:1007800011056896EAE00C94FE0FA8E1B0E0EBECEE
:10079000F3E00C94E60F69837A838B839C832D832B
:1007A0003E834F83588789E0E82EF12CEC0EFD1E26
:1007B000CE010196B7010E94E6058E010F5E1F4F24
:1007C000CE010596B8010E94E6058985823040F089
:1007D0008989823028F0C701B8010E945E0601C0F5
:1007E0008FEF6896E6E00C940210ACE0B0E0EBEF1F
:1007F000F3E00C94EA0F69837A838B839C83CE01A8
:100800000196BE016B5F7F4F0E94E6058D818230AD
:1008100061F1823050F1843021F48E81882351F1CE
:100820002EC02F81388537FD20C06E812F313105D4
:100830001CF06623F9F023C08EE190E0821B930B3D
:1008400029853A854B855C8504C056954795379533
:1008500027958A95D2F76623B1F05095409530954B
:1008600021953F4F4F4F5F4F0EC020E030E040E0FA
:1008700050E009C02FEF3FEF4FEF5FE704C020E0EB
:1008800030E040E050E8B901CA012C96E2E00C9457
:100890000610A8E0B0E0EFE4F4E00C94E20F7B0176
:1008A0008C01611571058105910519F482E0898338
:1008B00060C083E089838EE1C82ED12CDC82CB829C
:1008C000ED82FE820F831887C801B7010E94C2041F
:1008D000FC013197F7FF3BC0222733272E1B3F0B2C
:1008E00057016801022E04C0D694C794B794A79408
:1008F0000A94D2F740E050E060E070E081E090E0E0
:10090000A0E0B0E004C0880F991FAA1FBB1F2A9562
:10091000D2F70197A109B1098E219F21A023B1230C
:100920000097A105B10521F041E050E060E070E0E2
:100930004A295B296C297D294D835E836F837887E3
:100940008EE190E08E1B9F0B9C838B8312C03097AF
:1009500081F00E2E04C0EE0CFF1C001F111F0A9424
:10096000D2F7ED82FE820F831887CE1ADF0ADC826F
:10097000CB821A82CE0101960E9411052896EAE0E8
:100980000C94FE0FEF92FF920F931F937B018C014B
:1009900080E0E81680E0F80681E0080780E01807AC
:1009A00088F48FEFE816F1040105110531F028F005
:1009B00088E090E0A0E0B0E017C080E090E0A0E028
:1009C000B0E012C080E0E81680E0F80680E008079A
:1009D00081E0180728F088E190E0A0E0B0E004C0D2
:1009E00080E190E0A0E0B0E020E230E040E050E0C4
:1009F000281B390B4A0B5B0B04C016950795F7941F
:100A0000E7948A95D2F7F701E056FF4F8081281BC3
:100A1000310941095109C9011F910F91FF90EF90D0
:100A20000895DF92EF92FF920F931F93FC01E480F1
:100A3000F58006811781D1808081823048F480E082
:100A400090E0A0E1B0E0E82AF92A0A2B1B2BA5C010
:100A5000843009F49FC0823021F4EE24FF24870102
:100A600005C0E114F1040105110519F4E0E0F0E01E
:100A700096C0628173819FEF623879070CF05BC08A
:100A800022E83FEF261B370B2A3131052CF020E0FE
:100A900030E040E050E02AC0B801A701022E04C0B7
:100AA00076956795579547950A94D2F781E090E03F
:100AB000A0E0B0E004C0880F991FAA1FBB1F2A95B1
:100AC000D2F70197A109B1098E219F21A023B1235B
:100AD0000097A105B10521F081E090E0A0E0B0E031
:100AE0009A01AB01282B392B4A2B5B2BDA01C90168
:100AF0008F779070A070B07080349105A105B1051A
:100B000039F427FF09C0205C3F4F4F4F5F4F04C0AF
:100B1000215C3F4F4F4F5F4FE0E0F0E02030A0E01E
:100B20003A07A0E04A07A0E45A0710F0E1E0F0E03D
:100B300079018A0127C06038710564F5FB01E1582D
:100B4000FF4FD801C7018F779070A070B0708034CC
:100B50009105A105B10539F4E7FE0DC080E490E0F0
:100B6000A0E0B0E004C08FE390E0A0E0B0E0E80EC9
:100B7000F91E0A1F1B1F17FF05C016950795F7944E
:100B8000E794319687E016950795F794E7948A9550
:100B9000D1F705C0EE24FF248701EFEFF0E06E2FC0
:100BA000679566276795902F9F77D794DD24D79414
:100BB0008E2F8695492F462B582F5D29B701CA01E4
:100BC0001F910F91FF90EF90DF900895FC01DB01E2
:100BD000408151812281622F6F7770E0221F22278E
:100BE000221F9381892F880F822B282F30E0991F95
:100BF0009927991F11969C93119721153105A9F5F5
:100C0000411551056105710511F482E037C082E894
:100C10009FEF13969C938E9312979A01AB0167E016
:100C2000220F331F441F551F6A95D1F783E08C9321
:100C30000DC0220F331F441F551F12968D919C919A
:100C40001397019713969C938E931297203080E010
:100C5000380780E0480780E4580758F314962D932E
:100C60003D934D935C93179708952F3F310579F489
:100C7000411551056105710519F484E08C930895BF
:100C800064FF03C081E08C9312C01C9210C02F57E8
:100C9000304013963C932E93129783E08C9387E019
:100CA000440F551F661F771F8A95D1F770641496FD
:100CB0004D935D936D937C93179708951F93DC017B
:100CC000FB019C91923008F447C08081823008F487
:100CD00043C0943051F411961C91843099F5818170
:100CE000682F70E0611B71093FC0843021F09230A1
:100CF00031F48230B9F18181882389F12DC01196B8
:100D00001C9111978230F1F081811817D9F4129655
:100D10002D913C911397828193818217930794F0D0
:100D200028173907BCF014968D919D910D90BC91B8
:100D3000A02D2481358146815781281739074A071C
:100D40005B0718F4112341F00AC082179307A40728
:100D5000B50740F4112319F061E070E005C06FEFB2
:100D60007FEF02C060E070E0CB011F910895DF9338
:100D7000CF93CDB7DEB7E7E2F0E01082E6E2F0E035
:100D800087E08083E5E2F0E01082E4E2F0E01082A8
:100D9000A0E5B0E0E0E5F0E080818C93CF91DF91B9
:100DA0000895DF93CF93CDB7DEB7A6E2B0E0E6E2D9
:100DB000F0E0808180688C93CF91DF910895DF937C
:100DC000CF93CDB7DEB7A6E2B0E0E6E2F0E08081F7
:100DD0008F778C93CF91DF910895DF93CF9300D0DD
:100DE00000D00F92CDB7DEB789837B836A83EA8117
:100DF000FB8111821082A7E2B0E0E7E2F0E080819F
:100E0000982F89818F71892B8C93A6E2B0E0E6E25E
:100E1000F0E0808180648C93E6E2F0E08081882FAE
:100E200090E0807490700097B9F7E4E2F0E0808180
:100E3000882F90E0EA81FB8191838083EA81FB81A6
:100E400020813181E5E2F0E08081882F90E0982FC9
:100E50008827822B932BEA81FB81918380831D82DB
:100E60001C828981883020F481E090E09D838C830E
:100E7000EC81FD81EE55FE4F80810F900F900F9019
:100E80000F900F90CF91DF910895DF93CF93CDB75F
:100E9000DEB72A970FB6F894DEBF0FBECDBF8E83A4
:100EA00078876F831D821C821B821A821982EF81D0
:100EB000F88511821082A7E2B0E0E7E2F0E08081DD
:100EC000982F8E818F71892B8C931D8230C0A6E262
:100ED000B0E0E6E2F0E0808180648C93E6E2F0E04E
:100EE0008081882F90E0807490700097B9F7E4E2D9
:100EF000F0E08081882F90E09C838B83E5E2F0E036
:100F00008081882F90E0982F88279C018B819C817D
:100F1000822B932B9C838B8329813A818B819C81AB
:100F2000820F931F9A8389838D818F5F8D838D813B
:100F3000883068F289819A819695879596958795EC
:100F400096958795EF81F885918380831A86198617
:100F50008E81883020F481E090E09A878987E98546
:100F6000FA85EE55FE4F80812A960FB6F894DEBFC3
:100F70000FBECDBFCF91DF910895DF93CF93CDB753
:100F8000DEB727970FB6F894DEBF0FBECDBF9B83A9
:100F90008A837D836C83EC81FD81118210821982AA
:100FA0003FC0A7E2B0E0E7E2F0E08081482F89810E
:100FB000282F30E08A819B81FC01E20FF31F8081A2
:100FC0008F71842B8C93A6E2B0E0E6E2F0E08081A2
:100FD00080648C93E6E2F0E08081882F90E080745A
:100FE00090700097B9F7E4E2F0E08081882F90E0FC
:100FF000EC81FD8191838083EC81FD8120813181B1
:10100000E5E2F0E08081882F90E0982F8827822BFE
:10101000932BEC81FD819183808389818F5F89830C
:101020008981843008F4BDCFEA81FB8180818830DA
:10103000D0F48A819B81FC0131968081883098F4BC
:101040008A819B81FC0132968081883060F48A819C
:101050009B81FC0133968081883028F481E090E008
:101060009F838E8302C01F821E828E819F81FC011E
:10107000EE55FE4F808127960FB6F894DEBF0FBE67
:10108000CDBFCF91DF910895DF93CF93CDB7DEB77A
:1010900028970FB6F894DEBF0FBECDBF18861F820B
:1010A00006C000008F819885019698878F838F8175
:1010B000988527E280319207A0F380E30E94A80878
:1010C0001E821D8206C000008D819E8101969E8336
:1010D0008D838D819E8129E0843C9207A0F380E37B
:1010E0000E94A8081C821B8206C000008B819C8184
:1010F00001969C838B838B819C8121E0843F9207A6
:10110000A0F380E30E94A80888E30E94A80886E074
:101110000E94A8088CE00E94A8081A82198206C0C2
:10112000000089819A8101969A83898389819A81B5
:1011300021E0843F9207A0F38CE30E94A808289640
:101140000FB6F894DEBF0FBECDBFCF91DF910895EB
:10115000DF93CF9300D000D0CDB7DEB78C831B8256
:1011600029C08B81882F90E0FC01EC55FE4F6081F7
:101170008C81482F50E08B81282F30E081E090E077
:1011800002C0880F991F2A95E2F79A012823392374
:101190008B81882F90E0A90102C0559547958A95CB
:1011A000E2F7CA01982F862F692F0E94CD0A8B8102
:1011B0008F5F8B838B818830A0F280E160E00E949A
:1011C000CD0A81E160E00E94CD0A82E161E00E94E7
:1011D000CD0A1A82198206C0000089819A8101967F
:1011E0009A83898389819A8151E0843F9507A0F38E
:1011F00082E160E00E94CD0A80E00F900F900F9096
:101200000F90CF91DF910895DF93CF9300D000D05E
:10121000CDB7DEB78C831B8229C08B81882F90E0ED
:10122000FC01EC55FE4F60818C81482F50E08B8192
:10123000282F30E081E090E002C0880F991F2A95A6
:10124000E2F79A01282339238B81882F90E0A901A6
:1012500002C0559547958A95E2F7CA01982F862FC7
:10126000692F0E94CD0A8B818F5F8B838B818830A1
:10127000A0F280E161E00E94CD0A81E160E00E947D
:10128000CD0A82E161E00E94CD0A1A82198206C06D
:10129000000089819A8101969A83898389819A8144
:1012A00051E0843F9507A0F382E160E00E94CD0AFF
:1012B00080E00F900F900F900F90CF91DF910895E5
:1012C000DF93CF9300D000D00F92CDB7DEB79D83D0
:1012D0008C831B8254C01B822BC08B81882F90E093
:1012E000FC01EC55FE4F6081EC81FD818081482F2F
:1012F00050E08B81282F30E081E090E002C0880F21
:10130000991F2A95E2F79A01282339238B81882F88
:1013100090E0A90102C0559547958A95E2F7CA0168
:10132000982F862F692F0E94CD0A8B818F5F8B8328
:101330008B81883090F280E161E00E94CD0A81E1EA
:1013400060E00E94CD0A82E161E00E94CD0A1A822B
:10135000198206C0000089819A8101969A83898347
:1013600089819A8151E0843F9507A0F382E160E092
:101370000E94CD0A8C819D8101969D838C83EC8196
:10138000FD818081882309F0A6CF80E00F900F9027
:101390000F900F900F90CF91DF910895DF93CF932F
:1013A00000D000D0CDB7DEB79C838B8380E160E0B6
:1013B0000E94CD0A81E161E00E94CD0A8FE060E0E9
:1013C0000E94A60B2B813C818FE0B9010E94820A0A
:1013D0001A82198206C0000089819A8101969A8337
:1013E000898389819A8121E0843F9207A0F38FE06D
:1013F00061E00E94A60B80E00F900F900F900F907D
:10140000CF91DF910895DF93CF9300D000D000D02B
:10141000CDB7DEB79B838A836C838C81882F90E065
:101420000896880F991F880F991F880F991F0E948F
:10143000A80819820EC08981282F30E08A819B81FB
:10144000FC01E20FF31F80810E94040989818F5FF4
:1014500089838981883078F31E821D828C8188304F
:1014600020F481E090E09E838D83ED81FE81E45540
:10147000FE4F808126960FB6F894DEBF0FBECDBF1B
:10148000CF91DF910895DF93CF93CDB7DEB7E09191
:10149000B601F091B70180EF8083E091B801F0913F
:1014A000B9018FEF8083E091BA01F091BB018FEF1A
:1014B0008083E091BC01F091BD018EEF8083A0910B
:1014C000AE01B091AF01E091AE01F091AF0180812A
:1014D0008F708C93E091B001F091B1011082E09196
:1014E000B201F091B3011082A091B401B091B501A5
:1014F000E091B401F091B501808181708C93CF911E
:10150000DF910895DF93CF9300D000D000D0CDB706
:10151000DEB78C837E836D8381E08B838C818F31FA
:1015200080F58C818695869586958A838C818770D7
:1015300089838A81882F90E0880F991FFC01E254EB
:10154000FE4F0190F081E02D8081482F50E089818D
:10155000282F30E081E090E002C0880F991F2A9583
:10156000E2F79A01282339238981882F90E0A90185
:1015700002C0559547958A95E2F7CA01ED81FE8133
:10158000808381E08B838B8126960FB6F894DEBF33
:101590000FBECDBFCF91DF910895DF93CF9300D0E1
:1015A00000D000D0CDB7DEB78D836E8381E08C8311
:1015B0008D81803210F01C8264C08D818695869565
:1015C00086958B838D8187708A838B81882F90E0AD
:1015D000880F991FFC01EA54FE4F0190F081E02D25
:1015E0008081482F50E08A81282F30E081E090E010
:1015F00002C0880F991F2A95E2F79A012823392300
:101600008A81882F90E0A90102C0559547958A9557
:10161000E2F7CA0189838981813099F58B81882F0E
:1016200090E0880F991FFC01E255FE4FA081B18127
:101630008A81282F30E081E090E002C0880F991F56
:101640002A95E2F7282F20958B81882F90E0880F2C
:10165000991FFC01E255FE4F0190F081E02D808141
:10166000422F48238E81282F30E08A81882F90E0F6
:10167000B90102C0660F771F8A95E2F7CB01842B70
:101680008C938C8126960FB6F894DEBF0FBECDBF2B
:10169000CF91DF910895DF93CF9300D000D0CDB7E5
:1016A000DEB78A837C836B8381E089838A8184307F
:1016B00080F48A81882F90E0880F991FFC01E25402
:1016C000FE4F0190F081E02D8081EB81FC818083D1
:1016D00001C0198289810F900F900F900F90CF91C8
:1016E000DF910895DF93CF9300D000D0CDB7DEB760
:1016F0008B836C8381E08A838B818430F0F48B81CF
:10170000882F90E0880F991FFC01EA54FE4F01904A
:10171000F081E02D8081898389818F3F79F48B81ED
:10172000882F90E0880F991FFC01E255FE4F019031
:10173000F081E02D8C81808301C01A828A810F9014
:101740000F900F900F90CF91DF910895DF93CF937B
:1017500000D000D00F92CDB7DEB78C836D8381E0CF
:101760008B838C81803210F01B823BC08C818695EC
:10177000869586958A838C81877089838A81882F54
:1017800090E0880F991FFC01EA54FE4FA081B181BF
:101790008981282F30E081E090E002C0880F991FF6
:1017A0002A95E2F7282F20958A81882F90E0880FCC
:1017B000991FFC01EA54FE4F0190F081E02D8081D9
:1017C000422F48238D81282F30E08981882F90E097
:1017D000B90102C0660F771F8A95E2F7CB01842B0F
:1017E0008C938B810F900F900F900F900F90CF9153
:1017F000DF910895DF93CF9300D00F92CDB7DEB77E
:101800008A836B8381E089838A81843070F48A8142
:10181000882F90E0880F991FFC01EA54FE4F019039
:10182000F081E02D8B81808301C0198289810F9026
:101830000F900F90CF91DF910895DF93CF9300D059
:1018400000D000D0CDB7DEB78C837E836D8381E07E
:101850008B838C81803210F01B8230C08C81869506
:10186000869586958A838C81877089838A81882F63
:1018700090E0880F991FFC01EA54FE4F0190F0811F
:10188000E02D8081482F50E08981282F30E081E0D1
:1018900090E002C0880F991F2A95E2F79A01282349
:1018A00039238981882F90E0A90102C05595479579
:1018B0008A95E2F7CA01ED81FE8180838B812696AD
:1018C0000FB6F894DEBF0FBECDBFCF91DF91089564
:1018D000DF93CF9300D000D0CDB7DEB78A837C836F
:1018E0006B8381E089838A81843080F48A81882FA8
:1018F00090E0880F991FFC01E254FE4F0190F081A7
:10190000E02D8081EB81FC81808301C01982898177
:101910000F900F900F900F90CF91DF910895DF936C
:10192000CF93CDB7DEB727970FB6F894DEBF0FBEC3
:10193000CDBF8B837D836C838B81882F90E0FC01EE
:10194000E453FE4F80819E012F5F3F4FB9010E94FB
:10195000ED0689819A81969587959A8389838981F5
:101960009A81EC81FD81918380831F821E828B810D
:10197000893020F081E090E09F838E83EE81FF81AB
:10198000EA53FE4F808127960FB6F894DEBF0FBE54
:10199000CDBFCF91DF910895DF93CF93CDB7DEB761
:1019A0001092CD011092CF011092CE011092D00171
:1019B0001092D101CF91DF910895DF93CF93CDB7EE
:1019C000DEB727970FB6F894DEBF0FBECDBF898371
:1019D0007B836A838981882F90E0FC01E853FE4F66
:1019E00080812EEC31E0B9010E94820A8091CD0104
:1019F000282F30E03F832E838E819F818130910597
:101A0000E9F02E813F812230310569F18E819F817D
:101A1000009709F05EC08091CE01813059F482E0D8
:101A20008093CD011092CF018091CF01EA81FB819B
:101A300080834FC0EA81FB8110824BC08091CE0130
:101A4000882361F482E08093CD0181E08093CF010F
:101A50008091CF01EA81FB8180833BC0EA81FB81D9
:101A600081E0808336C08091CE01813059F480912D
:101A7000D1018F5F8093D1018091CF01EA81FB81F9
:101A800080830AC08091D0018F5F8093D0018091C4
:101A9000CF01EA81FB8180838091D101853061F49F
:101AA00081E08093CD011092D1011092D001EA81A2
:101AB000FB8181E080830DC08091D001853049F4A5
:101AC0001092CD011092D0011092D101EA81FB81D8
:101AD00010821D821C8289818F3020F421E030E049
:101AE0003D832C83EC81FD81E753FE4F8081279657
:101AF0000FB6F894DEBF0FBECDBFCF91DF91089532
:101B0000DF93CF93CDB7DEB70E94430A0E94B7069A
:101B10000E9444080E94D1060E94810FFDCFDF93EE
:101B2000CF93CDB7DEB72BED31E080E0B9010E9455
:101B3000ED068091DB019091DC01CC01A0E0B0E0EA
:101B4000BC01CD010E944904DC01CB01BC01CD01E7
:101B50002AE037ED43EA5BE30E941F02DC01CB0180
:101B60008093E4019093E501A093E601B093E7012F
:101B70008091E4019091E501A091E601B091E70127
:101B8000BC01CD012AE939E949E150E40E941F0274
:101B9000DC01CB018093E4019093E501A093E60181
:101BA000B093E7018091E4019091E501A091E601F5
:101BB000B091E701BC01CD010E944900DC01CB01DD
:101BC000882F90E02DED31E0B9014AE050E00E940D
:101BD00011108DED91E00E94600980E80E94A80834
:101BE000CF91DF910895EF92FF920F931F93DF93B0
:101BF000CF9300D0CDB7DEB72AED31E088E1B9014F
:101C00000E94820A8091DA018130B1F48091D3017F
:101C1000882391F48091D2018F5F8093D2018091CB
:101C2000D201833011F41092D20181E00E94A80801
:101C300081E08093D30106C08091DA01882311F4FA
:101C40001092D3018091D201282F30E03A8329836A
:101C500089819A818130910509F46AC029813A818C
:101C60002230310509F4C3C089819A81009709F0B7
:101C70001CC122EE31E080E0B9010E94ED068091A6
:101C8000E2019091E301CC01A0E0B0E0BC01CD0104
:101C90000E944904DC01CB01BC01CD012AE037EDF3
:101CA00043EA5BE30E941F02DC01CB01BC01CD01D2
:101CB00020E030E048EC52E40E941F02DC01CB013E
:101CC0007C018D018091E2019091E301CC01A0E0C3
:101CD000B0E0BC01CD010E944904DC01CB01BC0194
:101CE000CD012AE037ED43EA5BEB0E941F02DC01E5
:101CF000CB01BC01CD0120E030E040EA50E40E947D
:101D0000F201DC01CB019C01AD01C801B7010E94C9
:101D10001903DC01CB018093D6019093D701A093E6
:101D2000D801B093D90180E690E00E946009BDC05F
:101D300022EE31E080E0B9010E94ED068091E201DF
:101D40009091E301CC01A0E0B0E0BC01CD010E9484
:101D50004904DC01CB01BC01CD012AE037ED43EAA7
:101D60005BE30E941F02DC01CB01BC01CD0120E03E
:101D700030E04AE754E40E941F02DC01CB017C0101
:101D80008D018091E2019091E301CC01A0E0B0E0EF
:101D9000BC01CD010E944904DC01CB01BC01CD0195
:101DA0002AE037ED43EA5BEB0E941F02DC01CB0126
:101DB000BC01CD0120E030E040EA50E40E94F20195
:101DC000DC01CB019C01AD01C801B7010E941903E0
:101DD000DC01CB018093D6019093D701A093D80169
:101DE000B093D9018FE690E00E9460095EC022EEB8
:101DF00031E080E0B9010E94ED068091E20190910E
:101E0000E301CC01A0E0B0E0BC01CD010E94490497
:101E1000DC01CB01BC01CD012AE037ED43EA5BE3F5
:101E20000E941F02DC01CB01BC01CD0120E030E4A7
:101E30004CE156E40E941F02DC01CB017C018D01C4
:101E40008091E2019091E301CC01A0E0B0E0BC01FF
:101E5000CD010E944904DC01CB01BC01CD012AE087
:101E600037ED43EA5BEB0E941F02DC01CB01BC01B2
:101E7000CD0120E030E040EA50E40E94F201DC01B4
:101E8000CB019C01AD01C801B7010E941903DC011F
:101E9000CB018093D6019093D701A093D801B09342
:101EA000D9018DE790E00E9460098091D601909160
:101EB000D701A091D801B091D901BC01CD010E94F8
:101EC0004900DC01CB0128EE31E0B9014AE050E0E5
:101ED0000E94111080EC0E94A8088CE890E00E94FB
:101EE000600988EE91E00E94600980E80E94A808DD
:101EF0000F900F90CF91DF911F910F91FF90EF9076
:101F00000895DF93CF93CDB7DEB724ED31E080E0C5
:101F1000B9010E94ED062091D4013091D501809144
:101F2000A0019091A1012817390709F440C081E070
:101F30000E94A80880E80E94A8088091D40190918E
:101F4000D501CC01A0E0B0E0BC01CD010E94490464
:101F5000DC01CB01BC01CD012AE037ED43EA5BE3B4
:101F60000E941F02DC01CB018093E4019093E50104
:101F7000A093E601B093E7018091D4019091D5013F
:101F800028EE31E0B9014AE050E00E94111081E9E9
:101F900090E00E94600988EE91E00E9460098091C3
:101FA000D4019091D5019093A1018093A001CF918C
:101FB000DF9108952F923F924F925F926F927F929E
:101FC0008F929F92AF92BF92CF92DF92EF92FF9249
:101FD0000F931F93CF93DF93CDB7DEB7CA1BDB0BF5
:101FE0000FB6F894DEBF0FBECDBF09942A8839889A
:101FF00048885F846E847D848C849B84AA84B984A1
:10200000C884DF80EE80FD800C811B81AA81B981AC
:10201000CE0FD11D0FB6F894DEBF0FBECDBFED01C0
:102020000895FB019F01E8944230C4F04532B4F4B6
:102030004A3029F497FB1EF4909581959F4F642FA9
:1020400077270E944210805D8A330CF0895D81936E
:10205000CB010097A1F716F45DE251931082C901FC
:102060000C943210DC01FC01672F71917723E1F7AA
:10207000329704C07C916D9370836291AE17BF0755
:10208000C8F30895AA1BBB1B51E107C0AA1FBB1FC1
:10209000A617B70710F0A61BB70B881F991F5A95F4
:1020A000A9F780959095BC01CD010895F894FFCFD4
:1020B00052616E67653D20313030206F686D00528F
:1020C000616E67653D20314B206F686D0052616E17
:1020D00067653D2031304B206F686D005245533DA0
:1020E0000054454D503D200000000000000000005D
:1020F00000010202030303030404040404040404AF
:10210000050505050505050505050505050505057F
:10211000060606060606060606060606060606065F
:10212000060606060606060606060606060606064F
:10213000070707070707070707070707070707072F
:10214000070707070707070707070707070707071F
:10215000070707070707070707070707070707070F
:1021600007070707070707070707070707070707FF
:1021700008080808080808080808080808080808DF
:1021800008080808080808080808080808080808CF
:1021900008080808080808080808080808080808BF
:1021A00008080808080808080808080808080808AF
:1021B000080808080808080808080808080808089F
:1021C000080808080808080808080808080808088F
:1021D000080808080808080808080808080808087F
:1021E000080808080808080808080808080808086F
:1021F0000100000108090A0B0C0D0E0F00013B0045
:102200003800350032003A00370034003100390020
:0C2210003600330030000100180001000F
:00000001FF
