:100000000C942A000C9447000C9447000C94470071
:100010000C9447000C9447000C9447000C94470044
:100020000C9447000C9447000C9447000C94470034
:100030000C9447000C9447000C9447000C94470024
:100040000C9447000C9447000C9447000C94470014
:100050000C94470011241FBECFE5D8E0DEBFCDBF12
:1000600010E0A0E6B0E0EEEEF3E102C005900D92E4
:10007000A43CB107D9F710E0A4ECB0E001C01D9298
:10008000A33DB107E1F70E9412070C94F5090C9407
:100090000000DF93CF93CDB7DEB7E7E2F0E080E476
:1000A0008083E6E2F0E01082E5E2F0E01082E4E234
:1000B000F0E01082A0E5B0E0E0E5F0E08081806E45
:1000C0008C93CF91DF910895DF93CF93CDB7DEB7B7
:1000D000A6E2B0E0E6E2F0E0808180688C93CF9108
:1000E000DF910895DF93CF93CDB7DEB7A6E2B0E0FE
:1000F000E6E2F0E080818F778C93CF91DF910895D5
:10010000DF93CF9300D000D00F92CDB7DEB78983B5
:100110007B836A83EA81FB8111821082A7E2B0E0CF
:10012000E7E2F0E08081982F89818F71892B8C9391
:10013000A6E2B0E0E6E2F0E0808180648C93E6E243
:10014000F0E08081882F90E0807490700097B9F77C
:10015000E4E2F0E08081882F90E0EA81FB819183E6
:100160008083EA81FB818081918196958795969520
:100170008795EA81FB8191838083EA81FB812081DD
:100180003181E5E2F0E08081882F90E000249695AF
:1001900087950794969587950794982F802D822BA5
:1001A000932BEA81FB81918380831D821C8289814C
:1001B000883020F481E090E09D838C83EC81FD8188
:1001C000E358FF4F80810F900F900F900F900F908A
:1001D000CF91DF910895DF93CF93CDB7DEB72A9704
:1001E0000FB6F894DEBF0FBECDBF8E8378876F83C6
:1001F0001D821C821B821A821982EF81F88511826E
:1002000010821D8249C0A7E2B0E0E7E2F0E0808101
:10021000982F8E818F71892B8C93A6E2B0E0E6E255
:10022000F0E0808180648C93E6E2F0E08081882FAA
:1002300090E0807490700097B9F7E4E2F0E080817C
:10024000882F90E09C838B838B819C8196958795EA
:10025000969587959C838B83E5E2F0E08081882FDB
:1002600090E0002496958795079496958795079436
:10027000982F802D9C018B819C81822B932B9C83BA
:100280008B8329813A818B819C81820F931F9A8372
:1002900089838D818F5F8D838D81883008F4B3CF02
:1002A00089819A8196958795969587959695879554
:1002B000EF81F885918380831A8619868E81883034
:1002C00020F481E090E09A878987E985FA85E358F0
:1002D000FF4F80812A960FB6F894DEBF0FBECDBFC8
:1002E000CF91DF910895DF93CF93CDB7DEB72797F6
:1002F0000FB6F894DEBF0FBECDBF9B838A837D838C
:100300006C83EC81FD8111821082198252C0A7E2B8
:10031000B0E0E7E2F0E08081482F8981282F30E0CB
:100320008A819B81FC01E20FF31F80818F71842BF6
:100330008C93A6E2B0E0E6E2F0E0808180648C93EA
:10034000E6E2F0E08081882F90E080749070009762
:10035000B9F7E4E2F0E08081882F90E0EC81FD8144
:1003600091838083EC81FD81808191819695879531
:1003700096958795EC81FD8191838083EC81FD8149
:1003800020813181E5E2F0E08081882F90E0002437
:10039000969587950794969587950794982F802D25
:1003A000822B932BEC81FD819183808389818F5FE8
:1003B00089838981843008F4AACFEA81FB81808116
:1003C0008830D0F48A819B81FC013196808188300D
:1003D00098F48A819B81FC0132968081883060F498
:1003E0008A819B81FC0133968081883028F481E0EA
:1003F00090E09F838E8302C01F821E828E819F8128
:10040000FC01E358FF4F808127960FB6F894DEBFBA
:100410000FBECDBFCF91DF910895DF93CF93CDB7BE
:10042000DEB728970FB6F894DEBF0FBECDBF83E0CE
:1004300090E090937C0080937B0018861F8206C01A
:1004400000008F819885019698878F838F8198858A
:1004500027E280319207A0F380E30E9477021E8298
:100460001D8206C000008D819E8101969E838D8332
:100470008D819E8129E0843C9207A0F380E30E9455
:1004800077021C821B8206C000008B819C81019632
:100490009C838B838B819C8121E0843F9207A0F316
:1004A00080E30E94770288E30E94770286E00E9440
:1004B00077028CE00E9477021A82198206C000003F
:1004C00089819A8101969A83898389819A8121E021
:1004D000843F9207A0F38CE30E94770228960FB620
:1004E000F894DEBF0FBECDBFCF91DF910895DF93AB
:1004F000CF9300D000D0CDB7DEB78C831B8229C04C
:100500008B81882F90E0FC01E158FF4F60818C8146
:10051000482F50E08B81282F30E081E090E002C02E
:10052000880F991F2A95E2F79A01282339238B8196
:10053000882F90E0A90102C0559547958A95E2F76A
:10054000CA01982F862F692F0E949C048B818F5F90
:100550008B838B818830A0F28AE160E00E949C044A
:1005600089E160E00E949C0488E161E00E949C04B3
:100570001A82198206C0000089819A8101969A83A5
:10058000898389819A8151E0843F9507A0F388E1AE
:1005900060E00E949C0480E00F900F900F900F90FD
:1005A000CF91DF910895DF93CF9300D000D0CDB7E6
:1005B000DEB78C831B8229C08B81882F90E0FC01E1
:1005C000E158FF4F60818C81482F50E08B81282FAC
:1005D00030E081E090E002C0880F991F2A95E2F791
:1005E0009A01282339238B81882F90E0A90102C02A
:1005F000559547958A95E2F7CA01982F862F692F5E
:100600000E949C048B818F5F8B838B818830A0F24A
:100610008AE161E00E949C0489E160E00E949C0400
:1006200088E161E00E949C041A82198206C00000E1
:1006300089819A8101969A83898389819A8151E07F
:10064000843F9507A0F388E160E00E949C0480E06D
:100650000F900F900F900F90CF91DF910895DF933F
:10066000CF9300D000D00F92CDB7DEB79D838C839F
:100670001B8254C01B822BC08B81882F90E0FC0111
:10068000E158FF4F6081EC81FD818081482F50E06F
:100690008B81282F30E081E090E002C0880F991F05
:1006A0002A95E2F79A01282339238B81882F90E03D
:1006B000A90102C0559547958A95E2F7CA01982F7E
:1006C000862F692F0E949C048B818F5F8B838B8187
:1006D000883090F28AE161E00E949C0489E160E048
:1006E0000E949C0488E161E00E949C041A821982A5
:1006F00006C0000089819A8101969A838983898145
:100700009A8151E0843F9507A0F388E160E00E9460
:100710009C048C819D8101969D838C83EC81FD815D
:100720008081882309F0A6CF80E00F900F900F9072
:100730000F900F90CF91DF910895DF93CF9300D06A
:1007400000D0CDB7DEB79C838B838AE160E00E9446
:100750009C0489E161E00E949C0487E160E00E94C2
:1007600075052B813C8187E1B9010E9451041A82F1
:10077000198206C0000089819A8101969A83898333
:1007800089819A8121E0843F9207A0F387E161E0AB
:100790000E94750580E00F900F900F900F90CF9101
:1007A000DF910895DF93CF9300D000D000D0CDB774
:1007B000DEB79B838A836C838C81882F90E00896B8
:1007C000880F991F880F991F880F991F0E94770221
:1007D00019820EC08981282F30E08A819B81FC011B
:1007E000E20FF31F80810E94D30289818F5F89838A
:1007F0008981883078F31E821D828C81883020F4B4
:1008000081E090E09E838D83ED81FE81E957FF4F6B
:10081000808126960FB6F894DEBF0FBECDBFCF9174
:10082000DF910895DF93CF93CDB7DEB7E0919100CC
:10083000F09192008EEF8083E0919300F09194000C
:100840008EEF8083E0919500F09196008FEF80838A
:10085000E0919700F09198008FEF8083A09189003C
:10086000B0918A00E0918900F0918A0080818170C6
:100870008C93A0918B00B0918C00E0918B00F09153
:100880008C00808181708C93E0918D00F0918E00BE
:100890001082E0918F00F09190001082CF91DF9153
:1008A0000895DF93CF9300D000D000D0CDB7DEB74E
:1008B0008C837E836D8381E08B838C818F3180F587
:1008C0008C818695869586958A838C8187708983AD
:1008D0008A81882F90E0880F991FFC01E756FF4F0F
:1008E0000190F081E02D8081482F50E08981282FF0
:1008F00030E081E090E002C0880F991F2A95E2F76E
:100900009A01282339238981882F90E0A90102C008
:10091000559547958A95E2F7CA01ED81FE8180835E
:1009200081E08B838B8126960FB6F894DEBF0FBED5
:10093000CDBFCF91DF910895DF93CF9300D000D04A
:1009400000D0CDB7DEB78D836E8381E08C838D813F
:10095000803210F01C8264C08D81869586958695C4
:100960008B838D8187708A838B81882F90E0880F9D
:10097000991FFC01EF56FF4F0190F081E02D80811F
:10098000482F50E08A81282F30E081E090E002C0BB
:10099000880F991F2A95E2F79A01282339238A8123
:1009A000882F90E0A90102C0559547958A95E2F7F6
:1009B000CA0189838981813099F58B81882F90E0E4
:1009C000880F991FFC01E757FF4FA081B1818A81F1
:1009D000282F30E081E090E002C0880F991F2A950F
:1009E000E2F7282F20958B81882F90E0880F991FA0
:1009F000FC01E757FF4F0190F081E02D8081422FED
:100A000048238E81282F30E08A81882F90E0B90119
:100A100002C0660F771F8A95E2F7CB01842B8C9377
:100A20008C8126960FB6F894DEBF0FBECDBFCF9156
:100A3000DF910895DF93CF9300D000D0CDB7DEB71C
:100A40008A837C836B8381E089838A81843080F40C
:100A50008A81882F90E0880F991FFC01E756FF4F8D
:100A60000190F081E02D8081EB81FC81808301C0C9
:100A7000198289810F900F900F900F90CF91DF9185
:100A80000895DF93CF9300D000D0CDB7DEB78B832E
:100A90006C8381E08A838B818430F0F48B81882F92
:100AA00090E0880F991FFC01EF56FF4F0190F081F5
:100AB000E02D8081898389818F3F79F48B81882F14
:100AC00090E0880F991FFC01E757FF4F0190F081DC
:100AD000E02D8C81808301C01A828A810F900F9053
:100AE0000F900F90CF91DF910895DF93CF9300D0B7
:100AF00000D00F92CDB7DEB78C836D8381E08B83FE
:100B00008C81803210F01B823BC08C81869586954B
:100B100086958A838C81877089838A81882F90E06B
:100B2000880F991FFC01EF56FF4FA081B181898189
:100B3000282F30E081E090E002C0880F991F2A95AD
:100B4000E2F7282F20958A81882F90E0880F991F3F
:100B5000FC01EF56FF4F0190F081E02D8081422F84
:100B600048238D81282F30E08981882F90E0B901BA
:100B700002C0660F771F8A95E2F7CB01842B8C9316
:100B80008B810F900F900F900F900F90CF91DF916E
:100B90000895DF93CF9300D00F92CDB7DEB78A834D
:100BA0006B8381E089838A81843070F48A81882F05
:100BB00090E0880F991FFC01EF56FF4F0190F081E4
:100BC000E02D8B81808301C0198289810F900F9065
:100BD0000F90CF91DF910895DF93CF9300D000D095
:100BE00000D0CDB7DEB78C837E836D8381E08B83AD
:100BF0008C81803210F01B8230C08C818695869566
:100C000086958A838C81877089838A81882F90E07A
:100C1000880F991FFC01EF56FF4F0190F081E02DE6
:100C20008081482F50E08981282F30E081E090E0DA
:100C300002C0880F991F2A95E2F79A0128233923C9
:100C40008981882F90E0A90102C0559547958A9522
:100C5000E2F7CA01ED81FE8180838B8126960FB673
:100C6000F894DEBF0FBECDBFCF91DF910895DF9323
:100C7000CF9300D000D0CDB7DEB78A837C836B835F
:100C800081E089838A81843080F48A81882F90E092
:100C9000880F991FFC01E756FF4F0190F081E02D6E
:100CA0008081EB81FC81808301C0198289810F9052
:100CB0000F900F900F90CF91DF910895DF93CF9316
:100CC000CDB7DEB71092C4001092C6001092C500D6
:100CD0001092C7001092C800CF91DF910895DF9362
:100CE000CF93CDB7DEB727970FB6F894DEBF0FBE10
:100CF000CDBF89837B836A838981882F90E0FC0143
:100D0000EF55FF4F808125EC30E0B9010E9451047E
:100D10008091C400282F30E03F832E838E819F81F5
:100D200081309105E9F02E813F812230310569F152
:100D30008E819F81009709F05EC08091C50081304F
:100D400059F482E08093C4001092C6008091C600DE
:100D5000EA81FB8180834FC0EA81FB8110824BC016
:100D60008091C500882361F482E08093C40081E013
:100D70008093C6008091C600EA81FB8180833BC0DE
:100D8000EA81FB8181E0808336C08091C50081309B
:100D900059F48091C8008F5F8093C8008091C6008D
:100DA000EA81FB8180830AC08091C7008F5F8093B6
:100DB000C7008091C600EA81FB8180838091C800D2
:100DC0008A3061F481E08093C4001092C8001092D0
:100DD000C700EA81FB8181E080830DC08091C7005C
:100DE0008A3049F41092C4001092C7001092C800D3
:100DF000EA81FB8110821D821C8289818F3020F460
:100E000021E030E03D832C83EC81FD81EE55FF4FE6
:100E1000808127960FB6F894DEBF0FBECDBFCF916D
:100E2000DF910895DF93CF93CDB7DEB70E94120410
:100E30000E940D020E945E060E9449000E9464000A
:100E40000E94B108FDCFDF93CF93CDB7DEB72BEC77
:100E500030E080E0B9010E9480002091CB00309109
:100E6000CC008091D200882F90E0A901481B590B3B
:100E7000CA018630910560F08091D100882341F449
:100E80008091CB009091CC008093D2000E943708D3
:100E90008091CB009091CC008538910558F48091D9
:100EA000CB009091CC008D37910520F082E08093AB
:100EB000C90058C08091CB009091CC008538910535
:100EC00018F18091D200282F30E08091CF009091CE
:100ED000D000820F931F9093D0008093CF00809119
:100EE000CF009091D00055E08D3D950750F00E94C5
:100EF000B5078091CB009091CC009093D000809367
:100F0000CF001092C9002EC08091CB009091CC00F0
:100F10008D37910538F52091CD003091CE0080912C
:100F2000D200882F90E0A901481B590BCA018150BB
:100F30009F4F9093CE008093CD008091CD009091F3
:100F4000CE0055E08D3D950750F00E94B507809189
:100F5000CB009091CC009093CE008093CD0081E0A7
:100F60008093C900CF91DF910895DF93CF93CDB7E0
:100F7000DEB78091C9008823B1F580917A00982F5F
:100F800091708FE1692F0E949C0480917A00882FD4
:100F900090E08270907095958795982F8CE1692FDD
:100FA0000E949C0480917A00882F90E08470907059
:100FB0009595879595958795982F8EE1692F0E9435
:100FC0009C0480917A00882F90E0887090709595AD
:100FD00087959595879595958795982F8DE1692F9C
:100FE0000E949C0435C080917A00982F91708DE109
:100FF000692F0E949C0480917A00882F90E0827073
:10100000907095958795982F8EE1692F0E949C048A
:1010100080917A00882F90E08470907095958795E4
:1010200095958795982F8CE1692F0E949C0480915B
:101030007A00882F90E088709070959587959595A7
:10104000879595958795982F8FE1692F0E949C042D
:1010500080917A00880F80937A0080917A008031A5
:1010600019F481E080937A00CF91DF910895DF93A6
:10107000CF93CDB7DEB72A970FB6F894DEBF0FBE79
:10108000CDBF8091C900282F30E03A872987898514
:101090009A858130910549F129853A8522303105BB
:1010A00009F445C089859A85009709F051C081E00F
:1010B0000E94770280E690E00E942F0380EC0E945D
:1010C00077028091CB009091CC009E012F5F3F4F23
:1010D000B9014AE050E00E94B009CE0101960E9499
:1010E0002F0380E80E94770233C081E00E947702DC
:1010F00086E690E00E942F0380EC0E947702209108
:10110000CB003091CC0080E091E0821B930B9E01DC
:101110002F5F3F4FB9014AE050E00E94B009CE0175
:1011200001960E942F0380E80E94770211C081E09F
:101130000E9477028CE690E00E942F0380EC0E94D0
:10114000770282E790E00E942F0380E80E947702F6
:101150002A960FB6F894DEBF0FBECDBFCF91DF91B8
:101160000895DF93CF930F92CDB7DEB780E09E0155
:101170002F5F3F4FB9010E946F0689818130D9F4FA
:101180008091CA008823A1F481E08093CA0081E0A5
:101190008093D1001092D2008091CB009091CC002E
:1011A0008A30910518F484E18093D2000E94E90806
:1011B0000E9423070AC08091CA00813021F4109256
:1011C000D1001092CA000E9423070F90CF91DF91A7
:1011D0000895DF93CF93CDB7DEB7E5970FB6F894B8
:1011E000DEBF0FBECDBFCE0102969BA38AA3ECEB60
:1011F000F0E0FDA3ECA3F8E0FEA3ECA1FDA10080CC
:101200008CA19DA101969DA38CA3EAA1FBA10082C4
:101210008AA19BA101969BA38AA39EA191509EA304
:10122000EEA1EE2351F7CE010A9698A78FA3E4EB27
:10123000F0E0FAA7E9A7F8E0FBA7E9A5FAA5008086
:1012400089A59AA501969AA789A7EFA1F8A500827A
:101250008FA198A5019698A78FA39BA591509BA7B6
:10126000EBA5EE2351F7CE0142969DA78CA7ECEAA1
:10127000F0E0FFA7EEA7F8E0F8ABEEA5FFA5008031
:101280008EA59FA501969FA78EA7ECA5FDA5008220
:101290008CA59DA501969DA78CA798A9915098AB68
:1012A000E8A9EE2351F7CE014A969AAB89ABE4EA5E
:1012B000F0E0FCABEBABF8E0FDABEBA9FCA90080E8
:1012C0008BA99CA901969CAB8BABE9A9FAA90082DA
:1012D00089A99AA901969AAB89AB9DA991509DAB1A
:1012E000EDA9EE2351F781E00E947702CE014A96E4
:1012F00060E00E94D203CE01429661E00E94D203D8
:10130000CE010A9662E00E94D203CE01029663E00B
:101310000E94D203CE01029664E00E94D20380E8CC
:101320000E947702198206C089810E94D3028981B6
:101330008F5F898389818530B8F380EC0E947702C2
:1013400086E790E00E942F0380E80E947702E596EE
:101350000FB6F894DEBF0FBECDBFCF91DF910895D9
:10136000FB019F01E8944230C4F04532B4F44A30A6
:1013700029F497FB1EF4909581959F4F642F772752
:101380000E94E109805D8A330CF0895D8193CB0175
:101390000097A1F716F45DE251931082C9010C94F5
:1013A000D109DC01FC01672F71917723E1F73297B6
:1013B00004C07C916D9370836291AE17BF07C8F330
:1013C0000895AA1BBB1B51E107C0AA1FBB1FA6178C
:1013D000B70710F0A61BB70B881F991F5A95A9F7DE
:0E13E00080959095BC01CD010895F894FFCF43
:1013EE005249474854004C454654200053544F50E0
:1013FE0020003030300020202000010700000110B6
:10140E001112131415161700013B00380035003267
:10141E00003A003700340031003900360033003016
:10142E00000800011F010F0808080F001F11111FEF
:10143E00011F0000000101011F0000001F09090922
:04144E00090F000082
:00000001FF
