:100000000C942A000C943F000C943F000C943F0089
:100010000C943F000C943F000C943F000C943F0064
:100020000C943F000C943F000C943F000C943F0054
:100030000C943F000C943F000C943F000C943F0044
:100040000C943F000C943F000C943F000C943F0034
:100050000C943F0011241FBECFE5D8E0DEBFCDBF1A
:1000600010E0A0E6B0E0EAEFF8E002C005900D92E3
:10007000AA37B107D9F70E9453040C947B040C945F
:100080000000DF93CF93CDB7DEB7E7E2F0E080E486
:100090008083E6E2F0E01082E5E2F0E01082E4E244
:1000A000F0E01082A0E5B0E0E0E5F0E080818C9324
:1000B000CF91DF910895DF93CF93CDB7DEB7A6E25E
:1000C000B0E0E6E2F0E0808180688C93CF91DF9130
:1000D0000895DF93CF93CDB7DEB7A6E2B0E0E6E2B6
:1000E000F0E080818F778C93CF91DF910895DF933B
:1000F000CF9300D000D00F92CDB7DEB789837B833A
:100100006A83EA81FB8111821082A7E2B0E0E7E214
:10011000F0E08081807E8C93A7E2B0E0E7E2F0E03F
:100120008081982F89818F71892B8C93A6E2B0E012
:10013000E6E2F0E0808180648C93E6E2F0E080818A
:10014000882F90E0807490700097B9F7E4E2F0E0B7
:100150008081882F90E0EA81FB8191838083EA810E
:10016000FB81808191819695879596958795EA8107
:10017000FB8191838083EA81FB8120813181E5E2EB
:10018000F0E08081882F90E0002496958795079471
:10019000969587950794982F802D822B932BEA8133
:1001A000FB81918380831D821C828981883020F4A9
:1001B00081E090E09D838C83EC81FD81E05AFF4FCC
:1001C00080810F900F900F900F900F90CF91DF9143
:1001D0000895DF93CF93CDB7DEB72A970FB6F89483
:1001E000DEBF0FBECDBF8E8378876F831D821C82DA
:1001F0001B821A821982EF81F885118210821D827A
:1002000049C0A7E2B0E0E7E2F0E08081982F8E815C
:100210008F71892B8C93A6E2B0E0E6E2F0E080815A
:1002200080648C93E6E2F0E08081882F90E0807417
:1002300090700097B9F7E4E2F0E08081882F90E0B9
:100240009C838B838B819C819695879596958795CA
:100250009C838B83E5E2F0E08081882F90E000248E
:10026000969587950794969587950794982F802D56
:100270009C018B819C81822B932B9C838B83298176
:100280003A818B819C81820F931F9A8389838D8110
:100290008F5F8D838D81883008F4B3CF89819A81F7
:1002A000969587959695879596958795EF81F8858C
:1002B000918380831A8619868E81883020F481E0AC
:1002C00090E09A878987E985FA85E05AFF4F808117
:1002D0002A960FB6F894DEBF0FBECDBFCF91DF9147
:1002E0000895DF93CF93CDB7DEB727970FB6F89475
:1002F000DEBF0FBECDBF9B838A837D836C83EC8181
:10030000FD8111821082198252C0A7E2B0E0E7E2BB
:10031000F0E08081482F8981282F30E08A819B81FD
:10032000FC01E20FF31F80818F71842B8C93A6E276
:10033000B0E0E6E2F0E0808180648C93E6E2F0E0F9
:100340008081882F90E0807490700097B9F7E4E284
:10035000F0E08081882F90E0EC81FD8191838083A3
:10036000EC81FD8180819181969587959695879501
:10037000EC81FD8191838083EC81FD81208131813D
:10038000E5E2F0E08081882F90E000249695879543
:100390000794969587950794982F802D822B932B01
:1003A000EC81FD819183808389818F5F898389813D
:1003B000843008F4AACFEA81FB8180818830D0F4B0
:1003C0008A819B81FC0131968081883098F48A81F2
:1003D0009B81FC0132968081883060F48A819B8108
:1003E000FC0133968081883028F481E090E09F837F
:1003F0008E8302C01F821E828E819F81FC01E05A83
:10040000FF4F808127960FB6F894DEBF0FBECDBF99
:10041000CF91DF910895DF93CF93CDB7DEB7E09111
:100420006A00F0916B001082E0916C00F0916D0019
:100430001082E0916E00F0916F008FEF8083E09169
:100440007000F09171008FEF8083A0916200B091F5
:100450006300E0916200F091630080818C93A09131
:100460006400B0916500E0916400F09165008081C6
:100470008C93E0916600F09167001082E091680033
:10048000F09169001082CF91DF910895DF93CF93AF
:1004900000D000D000D0CDB7DEB78C837E836D83D3
:1004A00081E08B838C818F3180F58C818695869558
:1004B00086958A838C81877089838A81882F90E0D2
:1004C000880F991FFC01EE58FF4F0190F081E02D3D
:1004D0008081482F50E08981282F30E081E090E032
:1004E00002C0880F991F2A95E2F79A012823392321
:1004F0008981882F90E0A90102C0559547958A957A
:10050000E2F7CA01ED81FE81808381E08B838B81DC
:1005100026960FB6F894DEBF0FBECDBFCF91DF9108
:100520000895DF93CF9300D000D000D0CDB7DEB7D1
:100530008D836E8381E08C838D81803210F01C82EC
:1005400064C08D818695869586958B838D81877015
:100550008A838B81882F90E0880F991FFC01E659D0
:10056000FF4F0190F081E02D8081482F50E08A817B
:10057000282F30E081E090E002C0880F991F2A9573
:10058000E2F79A01282339238A81882F90E0A90174
:1005900002C0559547958A95E2F7CA0189838981FA
:1005A000813099F58B81882F90E0880F991FFC018D
:1005B000EE59FF4FA081B1818A81282F30E081E080
:1005C00090E002C0880F991F2A95E2F7282F209506
:1005D0008B81882F90E0880F991FFC01EE59FF4F07
:1005E0000190F081E02D8081422F48238E81282FB9
:1005F00030E08A81882F90E0B90102C0660F771F32
:100600008A95E2F7CB01842B8C938C8126960FB6CA
:10061000F894DEBF0FBECDBFCF91DF910895DF9379
:10062000CF9300D000D0CDB7DEB78A837C836B83B5
:1006300081E089838A81843080F48A81882F90E0E8
:10064000880F991FFC01EE58FF4F0190F081E02DBB
:100650008081EB81FC81808301C0198289810F90A8
:100660000F900F900F90CF91DF910895DF93CF936C
:1006700000D000D0CDB7DEB78B836C8381E08A8356
:100680008B818430F0F48B81882F90E0880F991F44
:10069000FC01E659FF4F0190F081E02D80818983B4
:1006A00089818F3F79F48B81882F90E0880F991F83
:1006B000FC01EE59FF4F0190F081E02D8C81808389
:1006C00001C01A828A810F900F900F900F90CF91E6
:1006D000DF910895DF93CF9300D000D00F92CDB774
:1006E000DEB78C836D8381E08B838C81803210F048
:1006F0001B823BC08C818695869586958A838C81EA
:10070000877089838A81882F90E0880F991FFC0168
:10071000E659FF4FA081B1818981282F30E081E027
:1007200090E002C0880F991F2A95E2F7282F2095A4
:100730008A81882F90E0880F991FFC01E659FF4FAE
:100740000190F081E02D8081422F48238D81282F58
:1007500030E08981882F90E0B90102C0660F771FD1
:100760008A95E2F7CB01842B8C938B810F900F90AD
:100770000F900F900F90CF91DF910895DF93CF935B
:1007800000D00F92CDB7DEB78A836B8381E0898377
:100790008A81843070F48A81882F90E0880F991FB5
:1007A000FC01E659FF4F0190F081E02D8B818083A1
:1007B00001C0198289810F900F900F90CF91DF9126
:1007C0000895DF93CF9300D000D000D0CDB7DEB72F
:1007D0008C837E836D8381E08B838C81803210F0EB
:1007E0001B8230C08C818695869586958A838C8104
:1007F000877089838A81882F90E0880F991FFC0178
:10080000E659FF4F0190F081E02D8081482F50E0A4
:100810008981282F30E081E090E002C0880F991F85
:100820002A95E2F79A01282339238981882F90E0BD
:10083000A90102C0559547958A95E2F7CA01ED8155
:10084000FE8180838B8126960FB6F894DEBF0FBEA3
:10085000CDBFCF91DF910895DF93CF9300D000D02B
:10086000CDB7DEB78A837C836B8381E089838A81FD
:10087000843080F48A81882F90E0880F991FFC01D2
:10088000EE58FF4F0190F081E02D8081EB81FC81DB
:10089000808301C0198289810F900F900F900F9073
:1008A000CF91DF910895DF93CF9300D00F92CDB712
:1008B000DEB781E089830E940B020E9441000E9402
:1008C0005B009E012E5F3F4F80E0B9010E947700E0
:1008D00089818130B1F78A819B818C3D910530F40B
:1008E00080E161E00E9491021982EBCF80E160E03B
:0A08F0000E949102E6CFF894FFCFBA
:1008FA0000013B003800350032003A00370034006E
:0A090A0031003900360033003000E0
:00000001FF
