:100000000C942A000C943F000C943F000C943F0089
:100010000C943F000C943F000C943F000C943F0064
:100020000C943F000C943F000C943F000C943F0054
:100030000C943F000C943F000C943F000C943F0044
:100040000C943F000C943F000C943F000C943F0034
:100050000C943F0011241FBECFE5D8E0DEBFCDBF1A
:1000600010E0A0E6B0E0E0EEF7E002C005900D92EF
:10007000A837B107D9F70E9495020C94EE030C94AF
:100080000000DF93CF93CDB7DEB7E0916800F09129
:10009000690083E08083E0916A00F0916B00108238
:1000A000E0916C00F0916D001082E0916E00F09193
:1000B0006F0080E88083A0916000B0916100E091C2
:1000C0006000F091610080818C7F8C93A091620030
:1000D000B0916300E0916200F091630080818C93A5
:1000E000A0916400B0916500E0916400F09165001A
:1000F00080818C93A0916600B0916700E0916600CA
:10010000F091670080818F778C93CF91DF91089574
:10011000DF93CF9300D000D000D0CDB7DEB78C8373
:100120007E836D8381E08B838C818F3180F58C8120
:100130008695869586958A838C81877089838A8146
:10014000882F90E0880F991FFC01E059FF4F019024
:10015000F081E02D8081482F50E08981282F30E008
:1001600081E090E002C0880F991F2A95E2F79A017A
:10017000282339238981882F90E0A90102C0559551
:1001800047958A95E2F7CA01ED81FE81808381E07F
:100190008B838B8126960FB6F894DEBF0FBECDBF42
:1001A000CF91DF910895DF93CF9300D000D000D09E
:1001B000CDB7DEB78D836E8381E08C838D818032F5
:1001C00010F01C8264C08D818695869586958B8300
:1001D0008D8187708A838B81882F90E0880F991F8B
:1001E000FC01E859FF4F0190F081E02D8081482FFC
:1001F00050E08A81282F30E081E090E002C0880F33
:10020000991F2A95E2F79A01282339238A81882F9A
:1002100090E0A90102C0559547958A95E2F7CA0179
:1002200089838981813099F58B81882F90E0880FAF
:10023000991FFC01E05AFF4FA081B1818A81282FCC
:1002400030E081E090E002C0880F991F2A95E2F724
:10025000282F20958B81882F90E0880F991FFC0113
:10026000E05AFF4F0190F081E02D8081422F48231A
:100270008E81282F30E08A81882F90E0B90102C05A
:10028000660F771F8A95E2F7CB01842B8C938C81C4
:1002900026960FB6F894DEBF0FBECDBFCF91DF918B
:1002A0000895DF93CF9300D000D0CDB7DEB78A8317
:1002B0007C836B8381E089838A81843080F48A81A6
:1002C000882F90E0880F991FFC01E059FF4F0190A3
:1002D000F081E02D8081EB81FC81808301C0198257
:1002E00089810F900F900F900F90CF91DF9108951B
:1002F000DF93CF9300D000D0CDB7DEB78B836C8374
:1003000081E08A838B818430F0F48B81882F90E0A8
:10031000880F991FFC01E859FF4F0190F081E02DF3
:100320008081898389818F3F79F48B81882F90E048
:10033000880F991FFC01E05AFF4F0190F081E02DDA
:100340008C81808301C01A828A810F900F900F9058
:100350000F90CF91DF910895DF93CF9300D000D01D
:100360000F92CDB7DEB78C836D8381E08B838C8158
:10037000803210F01B823BC08C81869586958695D5
:100380008A838C81877089838A81882F90E0880F87
:10039000991FFC01E859FF4FA081B1818981282F65
:1003A00030E081E090E002C0880F991F2A95E2F7C3
:1003B000282F20958A81882F90E0880F991FFC01B3
:1003C000E859FF4F0190F081E02D8081422F4823B2
:1003D0008D81282F30E08981882F90E0B90102C0FB
:1003E000660F771F8A95E2F7CB01842B8C938B8164
:1003F0000F900F900F900F900F90CF91DF91089575
:10040000DF93CF9300D00F92CDB7DEB78A836B8393
:1004100081E089838A81843070F48A81882F90E01A
:10042000880F991FFC01E859FF4F0190F081E02DE2
:100430008B81808301C0198289810F900F900F906A
:10044000CF91DF910895DF93CF9300D000D000D0FB
:10045000CDB7DEB78C837E836D8381E08B838C8107
:10046000803210F01B8230C08C81869586958695EF
:100470008A838C81877089838A81882F90E0880F96
:10048000991FFC01E859FF4F0190F081E02D808118
:10049000482F50E08981282F30E081E090E002C0B1
:1004A000880F991F2A95E2F79A0128233923898119
:1004B000882F90E0A90102C0559547958A95E2F7EB
:1004C000CA01ED81FE8180838B8126960FB6F89458
:1004D000DEBF0FBECDBFCF91DF910895DF93CF93E5
:1004E00000D000D0CDB7DEB78A837C836B8381E0F8
:1004F00089838A81843080F48A81882F90E0880FF4
:10050000991FFC01E059FF4F0190F081E02D80819F
:10051000EB81FC81808301C0198289810F900F904B
:100520000F900F90CF91DF910895DF93CF93CDB7C8
:10053000DEB7A3970FB6F894DEBF0FBECDBF1E8AFD
:100540001F8A1D8A0E9441008E89982F917080E039
:10055000692F0E94D3008E89882F90E0827090705E
:1005600095958795982F81E0692F0E94D3008E89F9
:100570008F5F8E8B8AE090E09A8B898B13C088E224
:100580009AE09C8B8B8B1BA28B899C89009711F026
:1005900021E02BA38B899C8901979C8B8B8B3BA1A2
:1005A000332389F71AA289899A89009711F081E08B
:1005B0008AA389899A8901979A8B898B9AA1992311
:1005C000F1F69E01295E3F4F80E0B9010E94510182
:1005D0008F89282F30E039A328A388A199A18535D8
:1005E000910509F44EC028A139A1263531053CF406
:1005F00088A199A18F30910509F4AFC0E2C028A16C
:1006000039A12A3A310539F088A199A1803F910595
:1006100009F46DC0D6C08D89882309F0D2C08FE15E
:1006200061E00E94D30082E390E09E878D8713C033
:1006300088E29AE0988B8F871F8E8F859889009724
:1006400011F091E09F8F8F8598890197988B8F8704
:100650002F8D222389F71E8E8D859E85009711F0A0
:1006600031E03E8F8D859E8501979E878D878E8D8B
:100670008823F1F68FE160E00E94D30081E08D8B4A
:10068000A0C08D89813009F09CC08FE161E00E949B
:10069000D30082E390E09A87898713C088E29AE0CA
:1006A0009C878B871D8E8B859C85009711F091E030
:1006B0009D8F8B859C8501979C878B872D8D222311
:1006C00089F71C8E89859A85009711F031E03C8F5F
:1006D00089859A8501979A8789878C8D8823F1F679
:1006E0008FE160E00E94D30082E08D8B6AC08D892B
:1006F000823009F066C08FE161E00E94D30082E39E
:1007000090E09E838D8313C088E29AE098878F8360
:100710001B8E8F819885009711F091E09B8F8F81C0
:100720009885019798878F832B8D222389F71A8EBE
:100730008D819E81009711F031E03A8F8D819E81ED
:1007400001979E838D838A8D8823F1F68FE160E087
:100750000E94D30083E08D8B34C08D89833089F56E
:100760008FE161E00E94D30082E390E09A83898365
:1007700013C088E29AE09C838B83198E8B819C81C5
:10078000009711F091E0998F8B819C8101979C8358
:100790008B83298D222389F7188E89819A8100976E
:1007A00011F031E0388F89819A8101979A8389838A
:1007B000888D8823F1F68FE160E00E94D30084E009
:1007C0008D8B8E89843009F41E8A8D89843009F0DE
:1007D000BBCE8FE161E00E94D300B6CEF894FFCF8C
:1007E0003B003800350032003A0037003400310059
:0807F00039003600330030002F
:00000001FF
