:100000000C942A000C9447000C9447000C94470071
:100010000C9447000C9447000C9447000C94470044
:100020000C9447000C9447000C9447000C94470034
:100030000C9447000C9447000C9447000C94470024
:100040000C9447000C9447000C9447000C94470014
:100050000C94470011241FBECFE5D8E0DEBFCDBF12
:1000600011E0A0E6B0E0ECE9F7E302C005900D92E4
:10007000AE3DB107D9F711E0AEEDB1E001C01D9280
:10008000A53EB107E1F70E94E9060C94CC1B0C9445
:100090000000A0E0B0E0EFE4F0E00C94951BDC0180
:1000A0002B01FA019C91923008F439C1EB0188814F
:1000B000823008F433C1943069F4843009F02FC1E0
:1000C00011969C9111978981981709F428C1A0E68F
:1000D000B0E025C1843009F421C18230A9F4923006
:1000E00009F01DC19A01AD0188E0EA010990AE0155
:1000F000E90109929E018150C1F7E20189811196BF
:100100009C918923818308C1923009F407C112961A
:100110002D903C901397EB018A819B811496AD90B2
:10012000BD90CD90DC901797EC80FD800E811F81F3
:100130009101281B390BB90137FF04C066277727C7
:10014000621B730B603271050CF061C0121613064E
:100150006CF537014801062E04C096948794779475
:1001600067940A94D2F721E030E040E050E004C008
:10017000220F331F441F551F6A95D2F7215030407C
:10018000404050402E213F2140235123211531056D
:100190004105510521F021E030E040E050E07901D7
:1001A0008A01E628F728082919293CC0232BD1F118
:1001B000260E371E35014601062E04C096948794FC
:1001C000779467940A94D2F721E030E040E050E061
:1001D00004C0220F331F441F551F6A95D2F72150C8
:1001E0003040404050402A213B214C215D212115C7
:1001F00031054105510521F021E030E040E050E0BB
:1002000059016A01A628B728C828D9280BC0821529
:1002100093052CF01C01AA24BB24650103C0EE2425
:10022000FF24870111969C91D20111968C91981709
:1002300009F445C0992339F0A80197012A193B090F
:100240004C095D0906C0A60195012E193F09400B16
:10025000510B57FD08C011823382228224833583DB
:10026000468357831DC081E08183338222828827A1
:100270009927DC01821B930BA40BB50B8483958318
:10028000A683B7830DC0220F331F441F551F24833D
:100290003583468357838281938101979383828339
:1002A0002481358146815781DA01C9010197A1096D
:1002B000B1098F5F9F4FAF4FBF4328F30BC09183AE
:1002C00033822282EA0CFB1C0C1D1D1DE482F58288
:1002D0000683178383E0808324813581468157819B
:1002E00057FF1AC0C901AA2797FDA095BA2F8170A0
:1002F0009070A070B0705695479537952795822BD2
:10030000932BA42BB52B84839583A683B7838281FB
:100310009381019693838283DF0101C0D201CD01D5
:10032000CDB7DEB7E2E10C94B11BA0E2B0E0EBE99F
:10033000F1E00C94A11B69837A838B839C832D83CA
:100340003E834F835887E9E0EE2EF12CEC0EFD1E24
:10035000CE010196B7010E94F8028E010F5E1F4F79
:10036000CE010596B8010E94F8028A8991E089279A
:100370008A8BC701B801AE01475E5F4F0E944900FA
:100380000E942302A096E6E00C94BD1BA0E2B0E020
:10039000ECECF1E00C94A11B69837A838B839C8342
:1003A0002D833E834F835887F9E0EF2EF12CEC0E1E
:1003B000FD1ECE010196B7010E94F8028E010F5E6C
:1003C0001F4FCE010596B8010E94F802C701B8017F
:1003D000AE01475E5F4F0E9449000E942302A09633
:1003E000E6E00C94BD1BA8E1B0E0E9EFF1E00C946D
:1003F000A11B69837A838B839C832D833E834F83E8
:10040000588789E0E82EF12CEC0EFD1ECE010196F6
:10041000B7010E94F8028E010F5E1F4FCE010596B4
:10042000B8010E94F8028985823040F089898230C3
:1004300028F0C701B8010E94700301C08FEF6896D1
:10044000E6E00C94BD1BDF92EF92FF920F931F9397
:10045000FC01E480F58006811781D18080818230A3
:1004600048F480E090E0A0E1B0E0E82AF92A0A2B05
:100470001B2BA5C0843009F49FC0823021F4EE24E8
:10048000FF24870105C0E114F1040105110519F4E9
:10049000E0E0F0E096C0628173819FEF62387907F7
:1004A0000CF05BC022E83FEF261B370B2A313105E9
:1004B0002CF020E030E040E050E02AC0B801A70175
:1004C000022E04C076956795579547950A94D2F702
:1004D00081E090E0A0E0B0E004C0880F991FAA1F5F
:1004E000BB1F2A95D2F70197A109B1098E219F213F
:1004F000A023B1230097A105B10521F081E090E090
:10050000A0E0B0E09A01AB01282B392B4A2B5B2BE2
:10051000DA01C9018F779070A070B07080349105B6
:10052000A105B10539F427FF09C0205C3F4F4F4FAB
:100530005F4F04C0215C3F4F4F4F5F4FE0E0F0E062
:100540002030A0E03A07A0E04A07A0E45A0710F0E4
:10055000E1E0F0E079018A0127C06038710564F5B7
:10056000FB01E158FF4FD801C7018F779070A07051
:10057000B07080349105A105B10539F4E7FE0DC0D6
:1005800080E490E0A0E0B0E004C08FE390E0A0E061
:10059000B0E0E80EF91E0A1F1B1F17FF05C01695D5
:1005A0000795F794E794319687E016950795F794A9
:1005B000E7948A95D1F705C0EE24FF248701EFEF79
:1005C000F0E06E2F679566276795902F9F77D794F9
:1005D000DD24D7948E2F8695492F462B582F5D29E1
:1005E000B701CA011F910F91FF90EF90DF9008951E
:1005F000FC01DB01408151812281622F6F7770E025
:10060000221F2227221F9381892F880F822B282FB8
:1006100030E0991F9927991F11969C9311972115E6
:100620003105A9F5411551056105710511F482E007
:1006300037C082E89FEF13969C938E9312979A018E
:10064000AB0167E0220F331F441F551F6A95D1F796
:1006500083E08C930DC0220F331F441F551F129649
:100660008D919C911397019713969C938E9312975B
:10067000203080E0380780E0480780E4580758F3CE
:1006800014962D933D934D935C93179708952F3FA8
:10069000310579F4411551056105710519F484E0BE
:1006A0008C93089564FF03C081E08C9312C01C9268
:1006B00010C02F57304013963C932E93129783E02F
:1006C0008C9387E0440F551F661F771F8A95D1F7DB
:1006D000706414964D935D936D937C931797089572
:1006E0001F93DC01FB019C91923008F447C080818C
:1006F000823008F443C0943051F411961C91843038
:1007000099F58181682F70E0611B71093FC08430C9
:1007100021F0923031F48230B9F18181882389F15E
:100720002DC011961C9111978230F1F0818118171C
:10073000D9F412962D913C9113978281938182175F
:10074000930794F028173907BCF014968D919D916A
:100750000D90BC91A02D24813581468157812817A9
:1007600039074A075B0718F4112341F00AC08217C2
:100770009307A407B50740F4112319F061E070E076
:1007800005C06FEF7FEF02C060E070E0CB011F910A
:100790000895DF93CF93CDB7DEB7E091BE00F0911F
:1007A000BF008FEF8083E091C000F091C1008FEF18
:1007B0008083E091C200F091C3008FEF8083E091CD
:1007C000C400F091C5008FEF8083E091B600F091F6
:1007D000B7001082E091B800F091B9001082E0916A
:1007E000BA00F091BB001082E091BC00F091BD0016
:1007F0001082CF91DF910895DF93CF9300D000D086
:1008000000D0CDB7DEB78C837E836D8381E08B8390
:100810008C818F3180F58C818695869586958A832B
:100820008C81877089838A81882F90E0880F991F37
:10083000FC01EA53FF4F0190F081E02D8081482FA9
:1008400050E08981282F30E081E090E002C0880FDD
:10085000991F2A95E2F79A01282339238981882F45
:1008600090E0A90102C0559547958A95E2F7CA0123
:10087000ED81FE81808381E08B838B8126960FB68C
:10088000F894DEBF0FBECDBFCF91DF910895DF9307
:10089000CF9300D000D000D0CDB7DEB78D836E836C
:1008A00081E08C838D81803210F01C8264C08D8148
:1008B0008695869586958B838D8187708A838B81BB
:1008C000882F90E0880F991FFC01E254FF4F0190A0
:1008D000F081E02D8081482F50E08A81282F30E080
:1008E00081E090E002C0880F991F2A95E2F79A01F3
:1008F000282339238A81882F90E0A90102C05595C9
:1009000047958A95E2F7CA0189838981813099F5F3
:100910008B81882F90E0880F991FFC01EA54FF4FCC
:10092000A081B1818A81282F30E081E090E002C06F
:10093000880F991F2A95E2F7282F20958B81882F01
:1009400090E0880F991FFC01EA54FF4F0190F0815D
:10095000E02D8081422F48238E81282F30E08A812C
:10096000882F90E0B90102C0660F771F8A95E2F7E1
:10097000CB01842B8C938C8126960FB6F894DEBF26
:100980000FBECDBFCF91DF910895DF93CF9300D0FD
:1009900000D0CDB7DEB78A837C836B8381E0898307
:1009A0008A81843080F48A81882F90E0880F991F93
:1009B000FC01EA53FF4F0190F081E02D8081EB8133
:1009C000FC81808301C0198289810F900F900F9064
:1009D0000F90CF91DF910895DF93CF9300D000D097
:1009E000CDB7DEB78B836C8381E08A838B818430C3
:1009F000F0F48B81882F90E0880F991FFC01E2545E
:100A0000FF4F0190F081E02D8081898389818F3FA4
:100A100079F48B81882F90E0880F991FFC01EA54AC
:100A2000FF4F0190F081E02D8C81808301C01A82FC
:100A30008A810F900F900F900F90CF91DF910895C2
:100A4000DF93CF9300D000D00F92CDB7DEB78C8369
:100A50006D8381E08B838C81803210F01B823BC0E0
:100A60008C818695869586958A838C81877089830B
:100A70008A81882F90E0880F991FFC01E254FF4F74
:100A8000A081B1818981282F30E081E090E002C00F
:100A9000880F991F2A95E2F7282F20958A81882FA1
:100AA00090E0880F991FFC01E254FF4F0190F08104
:100AB000E02D8081422F48238D81282F30E08981CD
:100AC000882F90E0B90102C0660F771F8A95E2F780
:100AD000CB01842B8C938B810F900F900F900F90F4
:100AE0000F90CF91DF910895DF93CF9300D00F92B5
:100AF000CDB7DEB78A836B8381E089838A818430B6
:100B000070F48A81882F90E0880F991FFC01E254CD
:100B1000FF4F0190F081E02D8B81808301C019820D
:100B200089810F900F900F90CF91DF910895DF93FF
:100B3000CF9300D000D000D0CDB7DEB78C837E83BA
:100B40006D8381E08B838C81803210F01B8230C0FA
:100B50008C818695869586958A838C81877089831A
:100B60008A81882F90E0880F991FFC01E254FF4F83
:100B70000190F081E02D8081482F50E08981282F5D
:100B800030E081E090E002C0880F991F2A95E2F7DB
:100B90009A01282339238981882F90E0A90102C076
:100BA000559547958A95E2F7CA01ED81FE818083CC
:100BB0008B8126960FB6F894DEBF0FBECDBFCF91C6
:100BC000DF910895DF93CF9300D000D0CDB7DEB78B
:100BD0008A837C836B8381E089838A81843080F47B
:100BE0008A81882F90E0880F991FFC01EA53FF4FFC
:100BF0000190F081E02D8081EB81FC81808301C038
:100C0000198289810F900F900F900F90CF91DF91F3
:100C10000895DF93CF93CDB7DEB788E060E00E9400
:100C2000470480E060E00E941806CF91DF910895AC
:100C3000DF93CF9300D000D00F92CDB7DEB78A8379
:100C40006B838A81882F90E0FC01E152FE4F8B81FB
:100C50008083198231C08A81282F30E08981482F12
:100C600050E0C901880F991F880F991F880F991F9D
:100C7000821B930B840F951FFC01E253FF4F608191
:100C80008B81282F30E08981482F50E0C901880FDF
:100C9000991F880F991F880F991F821B930B840F30
:100CA000951FFC01E859FF4F9081862F692F0E9404
:100CB000470489818F5F89838981873060F21D8233
:100CC0001C828A81863020F481E090E09D838C83B1
:100CD000EC81FD81E255FF4F80810F900F900F90C6
:100CE0000F900F90CF91DF910895DF93CF9300D0B5
:100CF0000F92CDB7DEB789838981882F90E0FC0100
:100D0000EB52FF4F808160E00E9447041B821A82F1
:100D10008981863020F481E090E09B838A83EA8198
:100D2000FB81E255FF4F80810F900F900F90CF9184
:100D3000DF910895DF93CF9300D00F92CDB7DEB748
:100D400089838981882F90E0FC01EB52FF4F8081DD
:100D500061E00E9447041B821A828981863020F458
:100D600081E090E09B838A83EA81FB81E255FF4F1B
:100D700080810F900F900F90CF91DF910895DF93B6
:100D8000CF9300D000D00F92CDB7DEB789837B839D
:100D90006A838981882F90E0FC01E152FE4F8081B7
:100DA000EA81FB8180831D821C828981863020F448
:100DB00081E090E09D838C83EC81FD81E255FF4FC3
:100DC00080810F900F900F900F900F90CF91DF9137
:100DD0000895DF93CF93CDB7DEB70E94C9030E9479
:100DE00009060E9480080E94190A0E9480080E9439
:100DF000540C0E94190E0E940211F3CFDF93CF937F
:100E0000CDB7DEB762970FB6F894DEBF0FBECDBF89
:100E100088E061E00E94470489E061E00E944704A5
:100E20008AE061E00E9447048BE061E00E94470491
:100E30009091B00080E0692F0E94180688E060E081
:100E40000E94470488E060E00E94470480E090E050
:100E5000A0E8BFE38D879E87AF87B88B1DC01A8A35
:100E6000198A06C0000089899A8901979A8B898B13
:100E700089899A890097B1F76D857E858F859889D4
:100E800020E030E040E85FE30E949501DC01CB0107
:100E90008D879E87AF87B88B6D857E858F85988976
:100EA00020E030E040E050E00E94F3011816BCF270
:100EB00088E060E00E94470488E060E00E94470408
:100EC00088E061E00E94470489E061E00E944704F5
:100ED0008AE061E00E9447048BE061E00E944704E1
:100EE0009091B10080E0692F0E94180689E060E0CF
:100EF0000E94470489E060E00E94470480E090E09F
:100F0000A0E0B0E08F839887A987BA871DC01C86B0
:100F10001B8606C000008B859C8501979C878B876C
:100F20008B859C850097B1F76F81788589859A8537
:100F300020E030E040E85FE30E949501DC01CB0156
:100F40008F839887A987BA876F81788589859A85E5
:100F500020E030E040E050E00E94F3011816BCF2BF
:100F600089E060E00E94470489E060E00E94470455
:100F700088E061E00E94470489E061E00E94470444
:100F80008AE061E00E9447048BE061E00E94470430
:100F90009091B20080E0692F0E9418068AE060E01C
:100FA0000E9447048AE060E00E94470488E061E014
:100FB0000E94470489E061E00E9447048AE061E002
:100FC0000E9447048BE061E00E9447049091B300C7
:100FD00080E0692F0E9418068BE060E00E944704C1
:100FE0002091B4003091B50080E1B9010E94FC036A
:100FF000E091B400F091B5008081813009F06EC0BD
:101000008091DE01882309F069C081E08093DE01D0
:1010100080E090E0A0E0B0E089839A83AB83BC835A
:101020001DC01E821D8206C000008D819E81019719
:101030009E838D838D819E810097B1F769817A812E
:101040008B819C8120E030E040E85FE30E949501C5
:10105000DC01CB0189839A83AB83BC8369817A816C
:101060008B819C8120E030E040E050E00E94F30161
:101070001816BCF28091B000893030F48091B00035
:101080008F5F8093B00033C08091B100893040F40D
:101090008091B1008F5F8093B1001092B00027C0A3
:1010A0008091B200893050F48091B2008F5F8093BC
:1010B000B2001092B0001092B10019C08091B1003E
:1010C0008930A8F48091B3008F5F8093B3001092B1
:1010D000B0001092B1001092B20009C0E091B400CB
:1010E000F091B5008081882311F41092DE016296A0
:1010F0000FB6F894DEBF0FBECDBFCF91DF9108953C
:10110000DF93CF93CDB7DEB7CB57D0400FB6F8946F
:10111000DEBF0FBECDBF88E0FE013296DF01982F03
:101120001D929A95E9F781E08A83DE011A96E4968A
:10113000BFAFAEAFE497EEEDF0E0E696FFAFEEAFF7
:10114000E697F8E0E796FFAFE797E696AEADBFAD5E
:10115000E6970C90E696EEADFFADE6973196E696F3
:10116000FFAFEEAFE697E496AEADBFADE4970C925D
:10117000E496EEADFFADE4973196E496FFAFEEAFA7
:10118000E497E796FFADE797F150E796FFAFE79753
:10119000E7968FADE7978823C1F688E0FE01729647
:1011A000DF01982F1D929A95E9F781E08B8B88E0FB
:1011B000FE017A96DF01982F1D929A95E9F781E05A
:1011C0008B8F88E0FE01B296DF01982F1D929A95D1
:1011D000E9F781E08CA388E0FE01BA96DF01982F41
:1011E0001D929A95E9F781E08CA788E0FE01F296BE
:1011F000DF01982F1D929A95E9F781E08DAB88E089
:10120000FE01FA96DF01982F1D929A95E9F781E089
:101210008DAFCE018E5B9F4F28E0FC01DF01822F56
:101220001D928A95E9F7FE01EE5BFF4F81E0848312
:10123000CE01865B9F4F28E0FC01DF01822F1D92CB
:101240008A95E9F7FE01E65BFF4F81E08283CE01DC
:101250008E5A9F4F28E0FC01DF01822F1D928A9554
:10126000E9F7FE01EE5AFF4F81E08583CE01865AF1
:101270009F4F28E0FC01DF01822F1D928A95E9F73C
:10128000FE01E65AFF4F81E08183CE018E599F4FC8
:1012900028E0FC01DF01822F1D928A95E9F7FE010B
:1012A000EE59FF4F81E08683CE0186599F4FE99624
:1012B0009FAF8EAFE997A6EDB0E0EB96BFAFAEAFB4
:1012C000EB97B8E0EC96BFAFEC97EB96EEADFFADC9
:1012D000EB970080EB968EAD9FADEB970196EB966A
:1012E0009FAF8EAFEB97E996AEADBFADE9970C928D
:1012F000E996EEADFFADE9973196E996FFAFEEAF17
:10130000E997EC96FFADEC97F150EC96FFAFEC97B8
:10131000EC968FADEC978823C1F68EE189837BC074
:101320000E94FE06CE010A960E94DA11CE010296B4
:101330000E940C1281E161E00E94470481E160E0BB
:101340000E944704CE014A960E94DA11CE014296CD
:101350000E940C1281E161E00E94470481E160E09B
:101360000E944704CE018A960E94DA11CE0182962D
:101370000E940C1281E161E00E94470481E160E07B
:101380000E944704CE01CA960E94DA11CE01C2968D
:101390000E940C1281E161E00E94470481E160E05B
:1013A0000E944704CE01865B9F4F0E94DA11CE0156
:1013B0008E5B9F4F0E940C1281E161E00E94470406
:1013C00081E160E00E944704CE01865A9F4F0E944F
:1013D000DA11CE018E5A9F4F0E940C1281E161E01A
:1013E0000E94470481E160E00E944704CE018659D3
:1013F0009F4F0E94DA11CE018E599F4F0E940C120E
:1014000081E161E00E94470481E160E00E944704BD
:101410008981815089838981882309F081CFC558CA
:10142000DF4F0FB6F894DEBF0FBECDBFCF91DF9177
:101430000895DF93CF93CDB7DEB7C059D0400FB634
:10144000F894DEBF0FBECDBF88E0FE013296DF010B
:10145000982F1D929A95E9F781E08A83DE011A960A
:10146000CE57DF4FB983A883C258D040E6EFF0E0F3
:10147000CC57DF4FF983E883C458D040F8E0CA570F
:10148000DF4FF883C658D040CC57DF4FA881B981D1
:10149000C458D0400C90CC57DF4FE881F981C45834
:1014A000D0403196CC57DF4FF983E883C458D04001
:1014B000CE57DF4FA881B981C258D0400C92CE5789
:1014C000DF4FE881F981C258D0403196CE57DF4FC7
:1014D000F983E883C258D040CA57DF4FF881C65815
:1014E000D040F150CA57DF4FF883C658D040CA5792
:1014F000DF4F8881C658D040882331F688E0FE014E
:101500007296DF01982F1D929A95E9F781E08B8BF7
:1015100088E0FE017A96DF01982F1D929A95E9F7EF
:1015200081E08C8F88E0FE01B296DF01982F1D923A
:101530009A95E9F781E08CA388E0FE01BA96DF0175
:10154000982F1D929A95E9F781E08BA788E0FE011C
:10155000F296DF01982F1D929A95E9F781E08DAB05
:1015600088E0FE01FA96DF01982F1D929A95E9F71F
:1015700081E08AAFCE018E5B9F4F28E0FC01DF0146
:10158000822F1D928A95E9F7FE01EE5BFF4F81E005
:101590008483CE01865B9F4F28E0FC01DF01822F10
:1015A0001D928A95E9F7FE01E65BFF4F81E081839A
:1015B000CE018E5A9F4F28E0FC01DF01822F1D9241
:1015C0008A95E9F7FE01EE5AFF4F81E08583CE014F
:1015D000865A9F4F28E0FC01DF01822F1D928A95D9
:1015E000E9F7FE01E65AFF4F81E08283CE018E5972
:1015F0009F4F28E0FC01DF01822F1D928A95E9F7B9
:10160000FE01EE59FF4F81E08683CE0186599F4F40
:10161000C957DF4F99838883C758D040AEEEB0E0FA
:10162000C757DF4FB983A883C958D040B8E0C55722
:10163000DF4FB883CB58D040C757DF4FE881F981DF
:10164000C958D0400080C757DF4F88819981C95859
:10165000D0400196C757DF4F99838883C958D0403F
:10166000C957DF4FA881B981C758D0400C92C957DC
:10167000DF4FE881F981C758D0403196C957DF4F15
:10168000F983E883C758D040C557DF4FF881CB585E
:10169000D040F150C557DF4FF883CB58D040C557E5
:1016A000DF4F8881CB58D040882331F6CE018E5849
:1016B0009F4FC457DF4F99838883CC58D040A6EE04
:1016C000B0E0C257DF4FB983A883CE58D040B8E00E
:1016D000C057DF4FB883C059D040C257DF4FE881B1
:1016E000F981CE58D0400080C257DF4F8881998160
:1016F000CE58D0400196C257DF4F99838883CE5889
:10170000D040C457DF4FA881B981CC58D0400C924B
:10171000C457DF4FE881F981CC58D0403196C45787
:10172000DF4FF983E883CC58D040C057DF4FF881B2
:10173000C059D040F150C057DF4FF883C059D04056
:10174000C057DF4F8881C059D040882331F6CE0181
:1017500086589F4F28E0FC01DF01822F1D928A9559
:10176000E9F7FE01E658FF4F81E085838EE189832A
:101770008DC00E94FE06CE010A960E94DA11CE01AB
:1017800002960E940C1281E161E00E94470481E10F
:1017900060E00E944704CE014A960E94DA11CE0111
:1017A00042960E940C1281E161E00E94470481E1AF
:1017B00060E00E944704CE018A960E94DA11CE01B1
:1017C00082960E940C1281E161E00E94470481E14F
:1017D00060E00E944704CE01CA960E94DA11CE0151
:1017E000C2960E940C1281E161E00E94470481E1EF
:1017F00060E00E944704CE01865B9F4F0E94DA1191
:10180000CE018E5B9F4F0E940C1281E161E00E942D
:10181000470481E160E00E944704CE01865A9F4F51
:101820000E94DA11CE018E5A9F4F0E940C1281E164
:1018300061E00E94470481E160E00E944704CE011C
:1018400086599F4F0E94DA11CE018E599F4F0E94F8
:101850000C1281E161E00E94470481E160E00E9496
:101860004704CE0186589F4F0E94DA11CE018E5850
:101870009F4F0E940C1281E161E00E94470481E1C8
:1018800060E00E944704898181508983898188238F
:1018900009F06FCFC057DF4F0FB6F894DEBF0FBE11
:1018A000CDBFCF91DF910895DF93CF93CDB7DEB752
:1018B000CA56D0400FB6F894DEBF0FBECDBF0E940F
:1018C000FE0688E0FE013296DF01982F1D929A9560
:1018D000E9F781E08A83DE011A966496BFAFAEAF66
:1018E0006497EEE1F1E06696FFAFEEAF6697F8E041
:1018F0006796FFAF67976696AEADBFAD66970C90E3
:101900006696EEADFFAD669731966696FFAFEEAF89
:1019100066976496AEADBFAD64970C926496EEADDB
:10192000FFAD649731966496FFAFEEAF649767960C
:10193000FFAD6797F1506796FFAF679767968FADDA
:1019400067978823C1F688E0FE017296DF01982F21
:101950001D929A95E9F781E08B8BDE015A96699684
:10196000BFAFAEAF6997E6E1F1E06B96FFAFEEAFC8
:101970006B97F8E06C96FFAF6C976B96AEADBFAD12
:101980006B970C906B96EEADFFAD6B9731966B96A7
:10199000FFAFEEAF6B976996AEADBFAD69970C9296
:1019A0006996EEADFFAD699731966996FFAFEEAFE0
:1019B00069976C96FFAD6C97F1506C96FFAF6C9782
:1019C0006C968FAD6C978823C1F688E0FE01B296C5
:1019D000DF01982F1D929A95E9F781E08CA3DE0133
:1019E0009A966E96BFAFAEAF6E97EEE0F1E0A0961E
:1019F000FFAFEEAFA097F8E0A196FFAFA197A0963A
:101A0000AEADBFADA0970C90A096EEADFFADA09788
:101A10003196A096FFAFEEAFA0976E96AEADBFAD7C
:101A20006E970C926E96EEADFFAD6E9731966E96F8
:101A3000FFAFEEAF6E97A196FFADA197F150A196C3
:101A4000FFAFA197A1968FADA1978823C1F688E03B
:101A5000FE01F296DF01982F1D929A95E9F781E039
:101A60008DABDE01DA96A396BFAFAEAFA397E6E0EB
:101A7000F1E0A596FFAFEEAFA597F8E0A696FFAF11
:101A8000A697A596AEADBFADA5970C90A596EEAD69
:101A9000FFADA5973196A596FFAFEEAFA597A3969C
:101AA000AEADBFADA3970C92A396EEADFFADA397DD
:101AB0003196A396FFAFEEAFA397A696FFADA6977C
:101AC000F150A696FFAFA697A6968FADA69788234E
:101AD000C1F6CE018E5B9F4F28E0FC01DF01822F13
:101AE0001D928A95E9F7FE01EE5BFF4F81E084834A
:101AF000CE01865B9F4FA8969FAF8EAFA897AEEFA3
:101B0000B0E0AA96BFAFAEAFAA97B8E0AB96BFAFB2
:101B1000AB97AA96EEADFFADAA970080AA968EADC0
:101B20009FADAA970196AA969FAF8EAFAA97A89647
:101B3000AEADBFADA8970C92A896EEADFFADA8973D
:101B40003196A896FFAFEEAFA897AB96FFADAB97D7
:101B5000F150AB96FFAFAB97AB968FADAB978823A9
:101B6000C1F68EE1898357C00E94FE06CE010A9617
:101B70000E94DA11CE0102960E940C1281E161E00E
:101B80000E94470481E160E00E944704CE014A962A
:101B90000E94DA11CE0142960E940C1281E161E0AE
:101BA0000E94470481E160E00E944704CE018A96CA
:101BB0000E94DA11CE0182960E940C1281E161E04E
:101BC0000E94470481E160E00E944704CE01CA966A
:101BD0000E94DA11CE01C2960E940C1281E161E0EE
:101BE0000E94470481E160E00E944704CE01865BC9
:101BF0009F4F0E94DA11CE018E5B9F4F0E940C1204
:101C000081E161E00E94470481E160E00E944704B5
:101C10008981815089838981882309F0A5CFC6599C
:101C2000DF4F0FB6F894DEBF0FBECDBFCF91DF916F
:101C30000895DF93CF93CDB7DEB7C459D0400FB628
:101C4000F894DEBF0FBECDBF0E94FE0688E0FE0105
:101C50003296DF01982F1D929A95E9F781E08A83E9
:101C6000DE011A96E496BFAFAEAFE497E6E5F1E089
:101C7000E696FFAFEEAFE697F8E0E796FFAFE7979F
:101C8000E696AEADBFADE6970C90E696EEADFFAD35
:101C9000E6973196E696FFAFEEAFE697E496AEADE7
:101CA000BFADE4970C92E496EEADFFADE4973196AC
:101CB000E496FFAFEEAFE497E796FFADE797F150FC
:101CC000E796FFAFE797E7968FADE7978823C1F6D2
:101CD00088E0FE017296DF01982F1D929A95E9F730
:101CE00081E08B8BDE015A96E996BFAFAEAFE997E4
:101CF000EEE4F1E0EB96FFAFEEAFEB97F8E0EC9699
:101D0000FFAFEC97EB96AEADBFADEB970C90EB96BB
:101D1000EEADFFADEB973196EB96FFAFEEAFEB97E5
:101D2000E996AEADBFADE9970C92E996EEADFFAD89
:101D3000E9973196E996FFAFEEAFE997EC96FFADE4
:101D4000EC97F150EC96FFAFEC97EC968FADEC97DB
:101D50008823C1F688E0FE01B296DF01982F1D921C
:101D60009A95E9F781E08CA3DE019A96EE96BFAFD3
:101D7000AEAFEE97E6E4F1E0C258DF4FF983E883B7
:101D8000CE57D040F8E0C058DF4FF883C058D0405D
:101D9000C258DF4FA881B981CE57D0400C90C258AD
:101DA000DF4FE881F981CE57D0403196C258DF4FDE
:101DB000F983E883CE57D040EE96AEADBFADEE9737
:101DC0000C92EE96EEADFFADEE973196EE96FFAF2C
:101DD000EEAFEE97C058DF4FF881C058D040F150B9
:101DE000C058DF4FF883C058D040C058DF4F8881BB
:101DF000C058D040882361F688E0FE01F296DF01EA
:101E0000982F1D929A95E9F781E08DABDE01DA9665
:101E1000CF57DF4FB983A883C158D040EEE3F1E03C
:101E2000CD57DF4FF983E883C358D040F8E0CB5754
:101E3000DF4FF883C558D040CD57DF4FA881B98117
:101E4000C358D0400C90CD57DF4FE881F981C3587B
:101E5000D0403196CD57DF4FF983E883C358D04047
:101E6000CF57DF4FA881B981C158D0400C92CF57CE
:101E7000DF4FE881F981C158D0403196CF57DF4F0D
:101E8000F983E883C158D040CB57DF4FF881C5585C
:101E9000D040F150CB57DF4FF883C558D040CB57D7
:101EA000DF4F8881C558D040882331F6CE018E5B44
:101EB0009F4F28E0FC01DF01822F1D928A95E9F7F0
:101EC000FE01EE5BFF4F81E08483CE01865B9F4F76
:101ED000CA57DF4F99838883C658D040A6E3B1E044
:101EE000C857DF4FB983A883C858D040B8E0C65759
:101EF000DF4FB883CA58D040C857DF4FE881F98117
:101F0000C858D0400080C857DF4F88819981C85891
:101F1000D0400196C857DF4F99838883C858D04076
:101F2000CA57DF4FA881B981C658D0400C92CA5712
:101F3000DF4FE881F981C658D0403196CA57DF4F4C
:101F4000F983E883C658D040C657DF4FF881CA5896
:101F5000D040F150C657DF4FF883CA58D040C6571B
:101F6000DF4F8881CA58D040882331F6CE018E5A7F
:101F70009F4F28E0FC01DF01822F1D928A95E9F72F
:101F8000FE01EE5AFF4F81E08583CE01865A9F4FB6
:101F9000C557DF4F99838883CB58D040AEE2B1E07C
:101FA000C357DF4FB983A883CD58D040B8E0C1579D
:101FB000DF4FB883CF58D040C357DF4FE881F98156
:101FC000CD58D0400080C357DF4F88819981CD58CC
:101FD000D0400196C357DF4F99838883CD58D040B6
:101FE000C557DF4FA881B981CB58D0400C92C55757
:101FF000DF4FE881F981CB58D0403196C557DF4F8C
:10200000F983E883CB58D040C157DF4FF881CF58D0
:10201000D040F150C157DF4FF883CF58D040C1575F
:10202000DF4F8881CF58D040882331F6CE018E59BA
:102030009F4F28E0FC01DF01822F1D928A95E9F76E
:10204000FE01EE59FF4F81E08683CE0186599F4FF6
:10205000C057DF4F99838883C059D040A6E2B1E0D2
:10206000CE56DF4FB983A883C259D040B8E0CC56D2
:10207000DF4FB883C459D040CE56DF4FE881F98195
:10208000C259D0400080CE56DF4F88819981C25915
:10209000D0400196CE56DF4F99838883C259D040F5
:1020A000C057DF4FA881B981C059D0400C92C057AA
:1020B000DF4FE881F981C059D0403196C057DF4FDA
:1020C000F983E883C059D040CC56DF4FF881C4591A
:1020D000D040F150CC56DF4FF883C459D040CC5695
:1020E000DF4F8881C459D040882331F68EE189833F
:1020F0007BC00E94FE06CE010A960E94DA11CE0134
:1021000002960E940C1281E161E00E94470481E185
:1021100060E00E944704CE014A960E94DA11CE0187
:1021200042960E940C1281E161E00E94470481E125
:1021300060E00E944704CE018A960E94DA11CE0127
:1021400082960E940C1281E161E00E94470481E1C5
:1021500060E00E944704CE01CA960E94DA11CE01C7
:10216000C2960E940C1281E161E00E94470481E165
:1021700060E00E944704CE01865B9F4F0E94DA1107
:10218000CE018E5B9F4F0E940C1281E161E00E94A4
:10219000470481E160E00E944704CE01865A9F4FC8
:1021A0000E94DA11CE018E5A9F4F0E940C1281E1DB
:1021B00061E00E94470481E160E00E944704CE0193
:1021C00086599F4F0E94DA11CE018E599F4F0E946F
:1021D0000C1281E161E00E94470481E160E00E940D
:1021E00047048981815089838981882309F081CFBF
:1021F000CC56DF4F0FB6F894DEBF0FBECDBFCF91E8
:10220000DF910895DF93CF93CDB7DEB7C054D040B0
:102210000FB6F894DEBF0FBECDBF0E94FE0688E069
:10222000FE013296DF01982F1D929A95E9F781E021
:102230008A83DE011A96BBABAAABEEE6F1E0FDABFA
:10224000ECABF8E0FEABACA9BDA90C90ECA9FDA9E4
:102250003196FDABECABAAA9BBA90C92EAA9FBA9EC
:102260003196FBABEAABFEA9F150FEAB8EA98823F9
:1022700051F7DE015296B8AFAFABE6E6F1E0FAAF48
:10228000E9AFF8E0FBAFA9ADBAAD0C90E9ADFAAD9E
:102290003196FAAFE9AFAFA9B8AD0C92EFA9F8AD9E
:1022A0003196F8AFEFABFBADF150FBAF8BAD8823B0
:1022B00051F788E0FE017A96DF01982F1D929A95DA
:1022C000E9F781E08D8F88E0FE01B296DF01982F5B
:1022D0001D929A95E9F781E089A7DE019A96BDAF34
:1022E000ACAFEEE5F1E0FFAFEEAFF8E02196FFAF67
:1022F0002197AEADBFAD0C90EEADFFAD3196FFAF07
:10230000EEAFACADBDAD0C92ECADFDAD3196FDAF19
:10231000ECAF2196FFAD2197F1502196FFAF2197A9
:1023200021968FAD2197882321F78EE1898335C0CF
:102330000E94FE06CE010A960E94DA11CE01029694
:102340000E940C1281E161E00E94470481E160E09B
:102350000E944704CE014A960E94DA11CE014296AD
:102360000E940C1281E161E00E94470481E160E07B
:102370000E944704CE018A960E94DA11CE0182960D
:102380000E940C1281E161E00E94470481E160E05B
:102390000E9447048981815089838981882341F67D
:1023A000C05CDF4F0FB6F894DEBF0FBECDBFCF913C
:1023B000DF910895DF93CF9300D00F92CDB7DEB7B2
:1023C0009B838A8319821FC08981282F30E08A81EC
:1023D0009B81FC01E20FF31F8081813029F482E1AF
:1023E00060E00E94470404C082E161E00E9447046B
:1023F00080E161E00E94470480E160E00E944704C0
:1024000089818F5F898389818830F0F20F900F90E6
:102410000F90CF91DF910895DF93CF9300D00F926B
:10242000CDB7DEB79B838A8319821FC08981282F8D
:1024300030E08A819B81FC01E20FF31F80818130B3
:1024400029F482E161E00E94470404C082E160E077
:102450000E94470480E161E00E94470480E160E05F
:102460000E94470489818F5F898389818830F0F2D7
:102470000F900F900F90CF91DF910895DF93CF933E
:10248000CDB7DEB7CD56D0400FB6F894DEBF0FBE45
:10249000CDBF88E0FE017A96DF01982F1D929A95B4
:1024A000E9F781E08A8FDE0192966C96BFAFAEAFFE
:1024B0006C97EEE8F1E06E96FFAFEEAF6E97F8E046
:1024C0006F96FFAF6F976E96AEADBFAD6E970C90E7
:1024D0006E96EEADFFAD6E9731966E96FFAFEEAF96
:1024E0006E976C96AEADBFAD6C970C926C96EEADE0
:1024F000FFAD6C9731966C96FFAFEEAF6C976F9611
:10250000FFAD6F97F1506F96FFAF6F976F968FADDE
:102510006F978823C1F688E0FE01BA96DF01982FF5
:102520001D929A95E9F781E08BA7DE01D296A196DC
:10253000BFAFAEAFA197E6E8F1E0A396FFAFEEAF75
:10254000A397F8E0A496FFAFA497A396AEADBFAD56
:10255000A3970C90A396EEADFFADA3973196A396EB
:10256000FFAFEEAFA397A196AEADBFADA1970C9212
:10257000A196EEADFFADA1973196A196FFAFEEAF5C
:10258000A197A496FFADA497F150A496FFAFA4978E
:10259000A4968FADA4978823C1F688E0FE01FA9631
:1025A000DF01982F1D929A95E9F781E08CAFCE015B
:1025B0008E5B9F4FA6969FAF8EAFA697AEE7B1E01A
:1025C000A896BFAFAEAFA897B8E0A996BFAFA9973E
:1025D000A896EEADFFADA8970080A8968EAD9FADF2
:1025E000A8970196A8969FAF8EAFA897A696AEAD76
:1025F000BFADA6970C92A696EEADFFADA69731960D
:10260000A696FFAFEEAFA697A996FFADA997F1509A
:10261000A996FFAFA997A9968FADA9978823C1F670
:10262000CE01865B9F4F28E0FC01DF01822F1D92C7
:102630008A95E9F7FE01E65BFF4F81E08383CE01D7
:102640008E5A9F4FAB969FAF8EAFAB97A6E7B1E088
:10265000AD96BFAFAEAFAD97B8E0AE96BFAFAE9799
:10266000AD96EEADFFADAD970080AD968EAD9FAD52
:10267000AD970196AD969FAF8EAFAD97AB96AEADD1
:10268000BFADAB970C92AB96EEADFFADAB9731966D
:10269000AB96FFAFEEAFAB97AE96FFADAE97F150F6
:1026A000AE96FFAFAE97AE968FADAE978823C1F6CC
:1026B00084E1898F0EC1CE014A960E940C12CE0190
:1026C00082960E94DA1181E161E00E9447048DEC5C
:1026D0009CECACE4BCE38B8B9C8BAD8BBE8B1DC0A8
:1026E000188E1F8A06C000008F89988D0197988FD9
:1026F0008F8B8F89988D0097B1F76B897C898D8935
:102700009E8920E030E040E85FE30E949501DC0113
:10271000CB018B8B9C8BAD8BBE8B6B897C898D8920
:102720009E8920E030E040E050E00E94F30118165E
:10273000BCF281E160E00E944704CE018A960E94CB
:102740000C12CE01C2960E94DA1181E161E00E9472
:1027500047048DEC9CECACE4BCE38D879E87AF878F
:10276000B88B1DC01A8A198A06C0000089899A8907
:1027700001979A8B898B89899A890097B1F76D8522
:102780007E858F85988920E030E040E85FE30E94F5
:102790009501DC01CB018D879E87AF87B88B6D8556
:1027A0007E858F85988920E030E040E050E00E94EF
:1027B000F3011816BCF281E160E00E944704CE01EB
:1027C000CA960E940C12CE018E5B9F4F0E94DA11B6
:1027D00081E161E00E9447048DEC9CECACE4BCE339
:1027E0008F839887A987BA871DC01C861B8606C061
:1027F00000008B859C8501979C878B878B859C85AA
:102800000097B1F76F81788589859A8520E030E05F
:1028100040E85FE30E949501DC01CB018F8398873C
:10282000A987BA876F81788589859A8520E030E00D
:1028300040E050E00E94F3011816BCF281E160E034
:102840000E944704CE01865B9F4F0E940C12CE016E
:102850008E5A9F4F0E94DA1181E161E00E94470485
:102860008DEC9CECACE4BCE389839A83AB83BC83A2
:102870001DC01E821D8206C000008D819E810197B1
:102880009E838D838D819E810097B1F769817A81C6
:102890008B819C8120E030E040E85FE30E9495015D
:1028A000DC01CB0189839A83AB83BC8369817A8104
:1028B0008B819C8120E030E040E050E00E94F301F9
:1028C0001816BCF281E160E00E944704898D8150B6
:1028D000898F898D882309F0EECE81E160E00E9426
:1028E0004704C359DF4F0FB6F894DEBF0FBECDBF0C
:1028F000CF91DF910895DF93CF93CDB7DEB7C75562
:10290000D0400FB6F894DEBF0FBECDBFCE014496C7
:1029100026969FAF8EAF2697AEEAB1E02896BFAF5E
:10292000AEAF2897B8E02996BFAF29972896EEADAD
:10293000FFAD2897008028968EAD9FAD2897019611
:1029400028969FAF8EAF28972696AEADBFAD26973F
:102950000C922696EEADFFAD269731962696FFAFE8
:10296000EEAF26972996FFAD2997F1502996FFAF34
:10297000299729968FAD29978823C1F688E0FE0113
:102980007C96DF01982F1D929A95E9F781E08BA341
:10299000DE0194962B96BFAFAEAF2B97E6EAF1E03F
:1029A0002D96FFAFEEAF2D97F8E02E96FFAF2E9746
:1029B0002D96AEADBFAD2D970C902D96EEADFFAD23
:1029C0002D9731962D96FFAFEEAF2D972B96AEAD8E
:1029D000BFAD2B970C922B96EEADFFAD2B9731969A
:1029E0002B96FFAFEEAF2B972E96FFAD2E97F150A3
:1029F0002E96FFAF2E972E968FAD2E978823C1F679
:102A0000DE019C966096BFAFAEAF6097EEE9F1E055
:102A10006296FFAFEEAF6297F8E06396FFAF639701
:102A20006296AEADBFAD62970C906296EEADFFAD13
:102A3000629731966296FFAFEEAF62976096AEAD49
:102A4000BFAD60970C926096EEADFFAD609731968A
:102A50006096FFAFEEAF60976396FFAD6397F1505E
:102A60006396FFAF639763968FAD63978823C1F634
:102A7000DE01D4966596BFAFAEAF6597E6E9F1E0AB
:102A80006796FFAFEEAF6797F8E06896FFAF68977D
:102A90006796AEADBFAD67970C906796EEADFFAD94
:102AA000679731966796FFAFEEAF67976596AEADC5
:102AB000BFAD65970C926596EEADFFAD659731960B
:102AC0006596FFAFEEAF65976896FFAD6897F150DA
:102AD0006896FFAF689768968FAD68978823C1F6B0
:102AE00088E0FE01FC96DF01982F1D929A95E9F788
:102AF00081E08CAF84E18B8BC9C0CE0144960E94EB
:102B00000C12CE014C960E94DA1181E161E00E9424
:102B100047048FE692E1A3E0B9E38D879E87AF87F4
:102B2000B88B1DC01A8A198A06C0000089899A8943
:102B300001979A8B898B89899A890097B1F76D855E
:102B40007E858F85988920E030E040E85FE30E9431
:102B50009501DC01CB018D879E87AF87B88B6D8592
:102B60007E858F85988920E030E040E050E00E942B
:102B7000F3011816BCF281E160E00E944704CE0127
:102B800084960E940C12CE018C960E94DA1181E18B
:102B900061E00E9447048FE692E1A3E0B9E38F83EE
:102BA0009887A987BA871DC01C861B8606C00000AF
:102BB0008B859C8501979C878B878B859C8500974F
:102BC000B1F76F81788589859A8520E030E040E80B
:102BD0005FE30E949501DC01CB018F839887A98771
:102BE000BA876F81788589859A8520E030E040E05A
:102BF00050E00E94F3011816BCF281E160E00E94EF
:102C00004704CE01C4960E940C12CE01CC960E94BD
:102C1000DA1181E161E00E9447048FE692E1A3E0CE
:102C2000B9E389839A83AB83BC831DC01E821D8256
:102C300006C000008D819E8101979E838D838D81CA
:102C40009E810097B1F769817A818B819C8120E018
:102C500030E040E85FE30E949501DC01CB0189830D
:102C60009A83AB83BC8369817A818B819C8120E0CC
:102C700030E040E050E00E94F3011816BCF281E120
:102C800060E00E9447048B8981508B8B8B8988235D
:102C900009F033CFC95ADF4F0FB6F894DEBF0FBE2D
:102CA000CDBFCF91DF910895DF93CF93CDB7DEB73E
:102CB000CA5BD0400FB6F894DEBF0FBECDBF88E030
:102CC000FE01F196DF01982F1D929A95E9F781E0B8
:102CD00089ABDE01D996CF54DF4FB983A883C15B9E
:102CE000D040EEEBF1E0CD54DF4FF983E883C35BD6
:102CF000D040F8E0CB54DF4FF883C55BD040CD54D3
:102D0000DF4FA881B981C35BD0400C90CD54DF4F19
:102D1000E881F981C35BD0403196CD54DF4FF98310
:102D2000E883C35BD040CF54DF4FA881B981C15B3A
:102D3000D0400C92CF54DF4FE881F981C15BD04085
:102D40003196CF54DF4FF983E883C15BD040CB5439
:102D5000DF4FF881C55BD040F150CB54DF4FF88393
:102D6000C55BD040CB54DF4F8881C55BD040882302
:102D700031F688E0FE01EF5BFF4FDF01982F1D92D7
:102D80009A95E9F7FE01EE5BFF4F81E08083CE016B
:102D9000875B9F4F28E0FC01DF01822F1D928A95FF
:102DA000E9F7FE01E75BFF4F81E08183CE018F5A97
:102DB0009F4F28E0FC01DF01822F1D928A95E9F7E1
:102DC000FE01EF5AFF4F81E08283CE01875A9F4F69
:102DD00028E0FC01DF01822F1D928A95E9F7FE01B0
:102DE000E75AFF4F81E08283CE018F599F4F28E041
:102DF000FC01DF01822F1D928A95E9F7FE01EF5950
:102E0000FF4F81E08383CE0187599F4F28E0FC016B
:102E1000DF01822F1D928A95E9F7FE01E759FF4FE6
:102E200081E08383CE018F589F4F28E0FC01DF01B2
:102E3000822F1D928A95E9F7FE01EF58FF4F81E03E
:102E40008483CE0187589F4F28E0FC01DF01822F49
:102E50001D928A95E9F7FE01E758FF4F81E08483D0
:102E6000CE018F579F4F28E0FC01DF01822F1D927A
:102E70008A95E9F7FE01EF57FF4F81E08583CE0188
:102E800087579F4F28E0FC01DF01822F1D928A9512
:102E9000E9F7FE01E757FF4F81E08583CE018F56AA
:102EA0009F4F28E0FC01DF01822F1D928A95E9F7F0
:102EB000FE01EF56FF4F81E08683CE0187569F4F7C
:102EC00028E0FC01DF01822F1D928A95E9F7FE01BF
:102ED000E756FF4F81E08683CE018F559F4F28E054
:102EE000FC01DF01822F1D928A95E9F7FE01EF5563
:102EF000FF4F81E08783CE0187559F4FCA54DF4F34
:102F000099838883C65BD040A6EBB1E0C854DF4FFD
:102F1000B983A883C85BD040B8E0C654DF4FB883FC
:102F2000CA5BD040C854DF4FE881F981C85BD0400C
:102F30000080C854DF4F88819981C85BD0400196DA
:102F4000C854DF4F99838883C85BD040CA54DF4F91
:102F5000A881B981C65BD0400C92CA54DF4FE8818A
:102F6000F981C65BD0403196CA54DF4FF983E883BC
:102F7000C65BD040C654DF4FF881CA5BD040F150E9
:102F8000C654DF4FF883CA5BD040C654DF4F8881F8
:102F9000CA5BD040882331F6CE01C1960E940C1244
:102FA000CE01C9960E94DA1181E161E00E944704D6
:102FB0008FE692E1A3E0B9E38BA79CA7ADA7BEA7DC
:102FC0001DC018AA1FA606C000008FA598A90197CA
:102FD00098AB8FA78FA598A90097B1F76BA57CA593
:102FE0008DA59EA520E030E040E85FE30E949501BA
:102FF000DC01CB018BA79CA7ADA7BEA76BA57CA5C9
:103000008DA59EA520E030E040E050E00E94F30155
:103010001816BCF281E160E00E944704CE018F5B8C
:103020009F4F0E940C12CE01875B9F4F0E94DA11C6
:1030300081E161E00E9447048FE692E1A3E0B9E3F9
:103040008DA39EA3AFA3B8A71DC01AA619A606C03C
:10305000000089A59AA501979AA789A789A59AA58D
:103060000097B1F76DA17EA18FA198A520E030E077
:1030700040E85FE30E949501DC01CB018DA39EA394
:10308000AFA3B8A76DA17EA18FA198A520E030E0E5
:1030900040E050E00E94F3011816BCF281E160E0CC
:1030A0000E944704CE018F5A9F4F0E940C12CE01FE
:1030B000875A9F4F0E94DA1181E161E00E94470424
:1030C0008FE692E1A3E0B9E38F8F98A3A9A3BAA3F7
:1030D0001DC01CA21BA206C000008BA19CA10197D1
:1030E0009CA38BA38BA19CA10097B1F76F8D78A1B6
:1030F00089A19AA120E030E040E85FE30E949501B9
:10310000DC01CB018F8F98A3A9A3BAA36F8D78A1FF
:1031100089A19AA120E030E040E050E00E94F30154
:103120001816BCF281E160E00E944704CE018F597D
:103130009F4F0E940C12CE0187599F4F0E94DA11B7
:1031400081E161E00E9447048FE692E1A3E0B9E3E8
:10315000898F9A8FAB8FBC8F1DC01E8E1D8E06C0AF
:1031600000008D8D9E8D01979E8F8D8F8D8D9E8DF4
:103170000097B1F7698D7A8D8B8D9C8D20E030E0C2
:1031800040E85FE30E949501DC01CB01898F9A8FB3
:10319000AB8FBC8F698D7A8D8B8D9C8D20E030E05C
:1031A00040E050E00E94F3011816BCF281E160E0BB
:1031B0000E944704CE018F589F4F0E940C12CE01EF
:1031C00087589F4F0E94DA1181E161E00E94470415
:1031D0008FE692E1A3E0B9E38B8B9C8BAD8BBE8B2A
:1031E0001DC0188E1F8A06C000008F89988D019718
:1031F000988F8F8B8F89988D0097B1F76B897C8919
:103200008D899E8920E030E040E85FE30E949501CF
:10321000DC01CB018B8B9C8BAD8BBE8B6B897C894E
:103220008D899E8920E030E040E050E00E94F3016B
:103230001816BCF281E160E00E944704CE018F576E
:103240009F4F0E940C12CE0187579F4F0E94DA11A8
:1032500081E161E00E9447048FE692E1A3E0B9E3D7
:103260008D879E87AF87B88B1DC01A8A198A06C0C2
:10327000000089899A8901979A8B898B89899A8913
:103280000097B1F76D857E858F85988920E030E0C5
:1032900040E85FE30E949501DC01CB018D879E87AA
:1032A000AF87B88B6D857E858F85988920E030E06B
:1032B00040E050E00E94F3011816BCF281E160E0AA
:1032C0000E944704CE018F569F4F0E940C12CE01E0
:1032D00087569F4F0E94DA1181E161E00E94470406
:1032E0008FE692E1A3E0B9E38F839887A987BA8735
:1032F0001DC01C861B8606C000008B859C8501971F
:103300009C878B878B859C850097B1F76F8178852B
:1033100089859A8520E030E040E85FE30E949501CE
:10332000DC01CB018F839887A987BA876F81788565
:1033300089859A8520E030E040E050E00E94F3016A
:103340001816BCF281E160E00E944704CE018F555F
:103350009F4F0E940C12CE0187559F4F0E94DA1199
:1033600081E161E00E9447048FE692E1A3E0B9E3C6
:1033700089839A83AB83BC831DC01E821D8206C0D5
:1033800000008D819E8101979E838D838D819E811A
:103390000097B1F769817A818B819C8120E030E0D0
:1033A00040E85FE30E949501DC01CB0189839A83A9
:1033B000AB83BC8369817A818B819C8120E030E082
:1033C00040E050E00E94F3011816BCF281E160E099
:1033D0000E944704C654DF4F0FB6F894DEBF0FBEFD
:1033E000CDBFCF91DF910895DF93CF93CDB7DEB7F7
:1033F000C155D0400FB6F894DEBF0FBECDBF88E0F8
:10340000FE017396DF01982F1D929A95E9F781E0EE
:10341000898FDE015B962596BFAFAEAF2597E6EDAF
:10342000F1E02796FFAFEEAF2797F8E02896FFAFC1
:1034300028972796AEADBFAD27970C902796EEAD97
:10344000FFAD279731962796FFAFEEAF27972596CA
:10345000AEADBFAD25970C922596EEADFFAD25978D
:1034600031962596FFAFEEAF25972896FFAD2897AA
:10347000F1502896FFAF289728968FAD289788237C
:10348000C1F6DE0193962A96BFAFAEAF2A97EEEC57
:10349000F1E02C96FFAFEEAF2C97F8E02D96FFAF42
:1034A0002D972C96AEADBFAD2C970C902C96EEAD13
:1034B000FFAD2C9731962C96FFAFEEAF2C972A9646
:1034C000AEADBFAD2A970C922A96EEADFFAD2A970E
:1034D00031962A96FFAFEEAF2A972D96FFAD2D9726
:1034E000F1502D96FFAF2D972D968FAD2D978823F8
:1034F000C1F688E0FE01BB96DF01982F1D929A95D8
:10350000E9F781E08AAB88E0FE01F396DF01982FAE
:103510001D929A95E9F781E08AAFDE01DB962F963E
:10352000BFAFAEAF2F97E6ECF1E06196FFAFEEAF25
:103530006197F8E06296FFAF62976196AEADBFAD5E
:1035400061970C906196EEADFFAD619731966196F3
:10355000FFAFEEAF61972F96AEADBFAD2F970C9238
:103560002F96EEADFFAD2F9731962F96FFAFEEAFB2
:103570002F976296FFAD6297F1506296FFAF629708
:1035800062968FAD62978823C1F6CE014B960E945A
:10359000DA11CE0143960E940C1281E161E00E9493
:1035A00047048FE692E1A3E0B9E38D879E87AF875A
:1035B000B88B1DC01A8A198A06C0000089899A89A9
:1035C00001979A8B898B89899A890097B1F76D85C4
:1035D0007E858F85988920E030E040E85FE30E9497
:1035E0009501DC01CB018D879E87AF87B88B6D85F8
:1035F0007E858F85988920E030E040E050E00E9491
:10360000F3011816BCF281E160E00E944704CE018C
:103610008B960E94DA11CE0183960E940C1281E1F2
:1036200061E00E9447048FE692E1A3E0B9E38F8353
:103630009887A987BA871DC01C861B8606C0000014
:103640008B859C8501979C878B878B859C850097B4
:10365000B1F76F81788589859A8520E030E040E870
:103660005FE30E949501DC01CB018F839887A987D6
:10367000BA876F81788589859A8520E030E040E0BF
:1036800050E00E94F3011816BCF281E160E00E9454
:103690004704CE01CB960E94DA11CE01C3960E9458
:1036A0000C1281E161E00E9447048FE692E1A3E001
:1036B000B9E389839A83AB83BC831DC01E821D82BC
:1036C00006C000008D819E8101979E838D838D8130
:1036D0009E810097B1F769817A818B819C8120E07E
:1036E00030E040E85FE30E949501DC01CB01898373
:1036F0009A83AB83BC8369817A818B819C8120E032
:1037000030E040E050E00E94F3011816BCF281E185
:1037100060E00E944704CF5ADF4F0FB6F894DEBF37
:103720000FBECDBFCF91DF9108952F923F924F9260
:103730005F926F927F928F929F92AF92BF92CF9241
:10374000DF92EF92FF920F931F93CF93DF93CDB74A
:10375000DEB7CA1BDB0B0FB6F894DEBF0FBECDBFC2
:1037600009942A88398848885F846E847D848C8493
:103770009B84AA84B984C884DF80EE80FD800C819C
:103780001B81AA81B981CE0FD11D0FB6F894DEBF7F
:0C3790000FBECDBFED010895F894FFCFEF
:10379C000000000000000000010101010101000017
:1037AC000101000000000101000101000101010103
:1037BC0001000001000101000001010100010100F4
:1037CC0001010100010101010101010100000000E2
:1037DC0001010101010101010101010001010100CF
:1037EC000001020306003B003800350032003A00AD
:1037FC00370034003100390036003300300001024C
:10380C000304050607080101010101010101010181
:10381C00010101010101010101010101010000008F
:10382C000001010101010000000101010101000082
:10383C000101010100000001000000000100010075
:10384C000000000000010100000000000001010167
:10385C000101010101010000010101010000000151
:10386C000000000001000100000000000001010048
:10387C000000000000010100000000000001000138
:10388C000000000001000000010101010000010125
:10389C00010101010100010101010101010101010D
:1038AC000101010101000101010000010000010002
:1038BC0001000100000001000100000000000101F6
:1038CC0001010101000001010101010101010101DE
:1038DC0001010101010100000001010000000101D2
:1038EC0001010101010101010101010101010101BC
:1038FC0001010101010101010101010101010101AC
:0E390C0001010101010101010101010101019F
:00000001FF
