:100000000C942A000C9447000C9447000C94470071
:100010000C9447000C9447000C9447000C94470044
:100020000C9447000C9447000C9447000C94470034
:100030000C9447000C9447000C9447000C94470024
:100040000C9447000C9447000C9447000C94470014
:100050000C94470011241FBECFE5D4E0DEBFCDBF16
:1000600010E0A0E6B0E0ECEBFAE002C005900D92E3
:10007000AC38B107D9F710E0ACE8B0E001C01D9290
:10008000A639B107E1F70E941B050C945C050C949E
:100090000000DF93CF93CDB7DEB728970FB6F89463
:1000A000DEBF0FBECDBF18861F8206C000008F8145
:1000B0009885019698878F838F81988527E2803174
:1000C0009207A0F380E30E94AD001E821D8206C04D
:1000D00000008D819E8101969E838D838D819E81FE
:1000E00029E0843C9207A0F380E30E94AD001C82CB
:1000F0001B8206C000008B819C8101969C838B83B0
:100100008B819C8121E0843F9207A0F380E30E94D1
:10011000AD0088E30E94AD0086E00E94AD008CE057
:100120000E94AD001A82198206C0000089819A815E
:1001300001969A83898389819A8121E0843F92077D
:10014000A0F38CE30E94AD0028960FB6F894DEBFB2
:100150000FBECDBFCF91DF910895DF93CF9300D035
:1001600000D0CDB7DEB78C831B8229C08B81882F4E
:1001700090E0FC01E659FF4F60818C81482F50E0F0
:100180008B81282F30E081E090E002C0880F991F1A
:100190002A95E2F79A01282339238B81882F90E052
:1001A000A90102C0559547958A95E2F7CA01982F93
:1001B000862F692F0E94D2028B818F5F8B838B8168
:1001C0008830A0F28FE160E00E94D2028EE160E010
:1001D0000E94D2028DE161E00E94D2021A8219824D
:1001E00006C0000089819A8101969A83898389815A
:1001F0009A8151E0843F9507A0F38DE160E00E9471
:10020000D20280E00F900F900F900F90CF91DF916E
:100210000895DF93CF9300D000D0CDB7DEB78C83A5
:100220001B8229C08B81882F90E0FC01E659FF4F8B
:1002300060818C81482F50E08B81282F30E081E055
:1002400090E002C0880F991F2A95E2F79A012823AF
:1002500039238B81882F90E0A90102C055954795DD
:100260008A95E2F7CA01982F862F692F0E94D20241
:100270008B818F5F8B838B818830A0F28FE161E06F
:100280000E94D2028EE160E00E94D2028DE161E024
:100290000E94D2021A82198206C0000089819A81C6
:1002A00001969A83898389819A8151E0843F9507D9
:1002B000A0F38DE160E00E94D20280E00F900F90E9
:1002C0000F900F90CF91DF910895DF93CF9300D0DF
:1002D00000D00F92CDB7DEB79D838C831B8254C0B4
:1002E0001B822BC08B81882F90E0FC01E659FF4FC9
:1002F0006081EC81FD818081482F50E08B81282F27
:1003000030E081E090E002C0880F991F2A95E2F763
:100310009A01282339238B81882F90E0A90102C0FC
:10032000559547958A95E2F7CA01982F862F692F30
:100330000E94D2028B818F5F8B838B81883090F2F9
:100340008FE161E00E94D2028EE160E00E94D20261
:100350008DE161E00E94D2021A82198206C000007B
:1003600089819A8101969A83898389819A8151E052
:10037000843F9507A0F38DE160E00E94D2028C815A
:100380009D8101969D838C83EC81FD8180818823F2
:1003900009F0A6CF80E00F900F900F900F900F9074
:1003A000CF91DF910895DF93CF9300D000D0CDB7E8
:1003B000DEB79C838B838FE160E00E94D2028EE1E6
:1003C00061E00E94D20287E160E00E94AB032B81D2
:1003D0003C8187E1B9010E9487021A82198206C016
:1003E000000089819A8101969A83898389819A8103
:1003F00021E0843F9207A0F387E161E00E94AB0314
:1004000080E00F900F900F900F90CF91DF910895A3
:10041000DF93CF9300D000D000D0CDB7DEB79B8361
:100420008A836C838C81882F90E00896880F991FAF
:10043000880F991F880F991F0E94AD0019820EC066
:100440008981282F30E08A819B81FC01E20FF31F14
:1004500080810E94090189818F5F89838981883029
:1004600078F31E821D828C81883020F481E090E038
:100470009E838D83ED81FE81EE58FF4F808126960D
:100480000FB6F894DEBF0FBECDBFCF91DF910895B8
:10049000DF93CF93CDB7DEB7E0917C00F0917D0084
:1004A0008FEF8083E0917E00F0917F008FE8808362
:1004B000E0918000F09181008FEF8083E0918200D5
:1004C000F09183008EEF8083E0917400F0917500CD
:1004D0001082A0917600B0917700E0917600F091C3
:1004E0007700808180778C93E0917800F09179009B
:1004F0001082A0917A00B0917B00E0917A00F09197
:100500007B00808181708C93CF91DF910895DF9380
:10051000CF9300D000D000D0CDB7DEB78C837E83E0
:100520006D8381E08B838C818F3180F58C81869502
:10053000869586958A838C81877089838A81882FA6
:1005400090E0880F991FFC01EC57FF4F0190F0815C
:10055000E02D8081482F50E08981282F30E081E014
:1005600090E002C0880F991F2A95E2F79A0128238C
:1005700039238981882F90E0A90102C055954795BC
:100580008A95E2F7CA01ED81FE81808381E08B8349
:100590008B8126960FB6F894DEBF0FBECDBFCF91EC
:1005A000DF910895DF93CF9300D000D000D0CDB776
:1005B000DEB78D836E8381E08C838D81803210F075
:1005C0001C8264C08D818695869586958B838D81EE
:1005D00087708A838B81882F90E0880F991FFC0198
:1005E000E458FF4F0190F081E02D8081482F50E0CA
:1005F0008A81282F30E081E090E002C0880F991FA7
:100600002A95E2F79A01282339238A81882F90E0DE
:10061000A90102C0559547958A95E2F7CA018983D9
:100620008981813099F58B81882F90E0880F991FFF
:10063000FC01EC58FF4FA081B1818A81282F30E066
:1006400081E090E002C0880F991F2A95E2F7282FD9
:1006500020958B81882F90E0880F991FFC01EC5822
:10066000FF4F0190F081E02D8081422F48238E8141
:10067000282F30E08A81882F90E0B90102C0660FF0
:10068000771F8A95E2F7CB01842B8C938C81269679
:100690000FB6F894DEBF0FBECDBFCF91DF910895A6
:1006A000DF93CF9300D000D0CDB7DEB78A837C83B1
:1006B0006B8381E089838A81843080F48A81882FEA
:1006C00090E0880F991FFC01EC57FF4F0190F081DB
:1006D000E02D8081EB81FC81808301C019828981BA
:1006E0000F900F900F900F90CF91DF910895DF93AF
:1006F000CF9300D000D0CDB7DEB78B836C8381E081
:100700008A838B818430F0F48B81882F90E0880F6E
:10071000991FFC01E458FF4F0190F081E02D80818A
:10072000898389818F3F79F48B81882F90E0880FAE
:10073000991FFC01EC58FF4F0190F081E02D8C8156
:10074000808301C01A828A810F900F900F900F90C2
:10075000CF91DF910895DF93CF9300D000D00F9217
:10076000CDB7DEB78C836D8381E08B838C81803243
:1007700010F01B823BC08C818695869586958A8376
:100780008C81877089838A81882F90E0880F991FD8
:10079000FC01E458FF4FA081B1818981282F30E00E
:1007A00081E090E002C0880F991F2A95E2F7282F78
:1007B00020958A81882F90E0880F991FFC01E458CA
:1007C000FF4F0190F081E02D8081422F48238D81E1
:1007D000282F30E08981882F90E0B90102C0660F90
:1007E000771F8A95E2F7CB01842B8C938B810F9036
:1007F0000F900F900F900F90CF91DF910895DF939E
:10080000CF9300D00F92CDB7DEB78A836B8381E0A0
:1008100089838A81843070F48A81882F90E0880FE0
:10082000991FFC01E458FF4F0190F081E02D8B816E
:10083000808301C0198289810F900F900F90CF9112
:10084000DF910895DF93CF9300D000D000D0CDB7D3
:10085000DEB78C837E836D8381E08B838C818032D5
:1008600010F01B8230C08C818695869586958A8390
:100870008C81877089838A81882F90E0880F991FE7
:10088000FC01E458FF4F0190F081E02D8081482F5A
:1008900050E08981282F30E081E090E002C0880F8D
:1008A000991F2A95E2F79A01282339238981882FF5
:1008B00090E0A90102C0559547958A95E2F7CA01D3
:1008C000ED81FE8180838B8126960FB6F894DEBF82
:1008D0000FBECDBFCF91DF910895DF93CF9300D0AE
:1008E00000D0CDB7DEB78A837C836B8381E08983B8
:1008F0008A81843080F48A81882F90E0880F991F44
:10090000FC01EC57FF4F0190F081E02D8081EB81DD
:10091000FC81808301C0198289810F900F900F9014
:100920000F90CF91DF910895DF93CF93CDB7DEB7CE
:10093000E0E4F0E01082E9E2F0E089E18083ABE2FC
:10094000B0E0EBE2F0E080818C93EAE2F0E08CED45
:100950008083E0E4F0E08EE88083CF91DF9108951A
:10096000DF93CF9300D0CDB7DEB79A838983EBE2D4
:10097000F0E08081882F90E0807290700097B9F34A
:1009800089819A818F7190709A838983AAE2B0E0FD
:10099000EAE2F0E080818E7F8C93AAE2B0E0EAE2A6
:1009A000F0E0208189819A81892F9927822B8C936D
:1009B000ECE2F0E0898180830F900F90CF91DF917E
:1009C0000895DF93CF9300D00F92CDB7DEB79B830E
:1009D0008A831982EA81FB8111821082EBE2F0E0C6
:1009E00080818823DCF7EAE2F0E08081882F90E0C4
:1009F000827090709595879589838981882F90E082
:100A0000982F8827EA81FB8191838083EA81FB818B
:100A100020813181ECE2F0E08081882F90E0822B10
:100A2000932BEA81FB81918380830F900F900F902D
:100A3000CF91DF910895DF93CF93CDB7DEB70E94BA
:100A400048020E9449000E9494040E942805FDCF9C
:100A5000DF93CF9300D0CDB7DEB780916000882FB1
:100A600090E00E94B0041A82198206C000008981B9
:100A70009A8101969A83898389819A8123EC8035B2
:100A80009207A0F380918C000E9409010F900F90B3
:100A9000CF91DF910895DF93CF93CDB7DEB78091EB
:100AA0008D008D3431F480916000882F90E00E9499
:0C0AB000B004CF91DF910895F894FFCFBF
:100ABC004D0000000000000000001011121314156E
:100ACC00161700013B003800350032003A003700A1
:0C0ADC00340031003900360033003000D7
:00000001FF
